{
  "_format": "hh-sol-artifact-1",
  "contractName": "FlashLoanArbitrage",
  "sourceName": "contracts/FlashLoanArbitrage.sol",
  "abi": [
    {
      "inputs": [],
      "stateMutability": "nonpayable",
      "type": "constructor"
    },
    {
      "inputs": [
        {
          "internalType": "address",
          "name": "",
          "type": "address"
        },
        {
          "internalType": "bytes",
          "name": "data",
          "type": "bytes"
        }
      ],
      "name": "callFunction",
      "outputs": [],
      "stateMutability": "nonpayable",
      "type": "function"
    },
    {
      "inputs": [
        {
          "internalType": "uint256",
          "name": "amount",
          "type": "uint256"
        }
      ],
      "name": "executeFlashLoan",
      "outputs": [],
      "stateMutability": "nonpayable",
      "type": "function"
    },
    {
      "inputs": [],
      "name": "owner",
      "outputs": [
        {
          "internalType": "address",
          "name": "",
          "type": "address"
        }
      ],
      "stateMutability": "view",
      "type": "function"
    },
    {
      "stateMutability": "payable",
      "type": "receive"
    }
  ],
  "bytecode": "0x6080806040523461002857600080546001600160a01b03191633179055610996908161002e8239f35b600080fdfe608080604052600436101561001d575b50361561001b57600080fd5b005b600090813560e01c9081638da5cb5b1461083e575080639c23da50146103185763fb056f680361000f573461031557602036600319011261031557805460043591906001600160a01b031633036102e35760405161007a81610895565b60018152602036818301373061008f826108d3565b526040519261009d84610895565b60018452825b6020811061029c5750604051816020820152602081526100c281610895565b604051916100cf83610862565b6002835284602084015260408301528360608301528360808301523060a08301528360c083015260e0820152610104846108d3565b5261010e836108d3565b50731e0447b19bb6ecfdae1e4ae1694b0c3659614e4e3b156102985761014c604051916312c9ef7160e31b8352604060048401526044830190610906565b600319828203016024830152835180825260208201916020808360051b83010196019285915b8383106101db5786868181808c038183731e0447b19bb6ecfdae1e4ae1694b0c3659614e4e5af180156101d0576101a7575080f35b67ffffffffffffffff81116101bc5760405280f35b634e487b7160e01b82526041600452602482fd5b6040513d84823e3d90fd5b9091929396601f1982820301835260e0885160ff81511683526020810151602084015260408101516040840152606081015160608401526080810151608084015260018060a01b0360a08201511660a084015260c081015160c0840152015190610100918260e083015280518093830152885b838110610281575050808201610120908101899052601f909201601f191601019660209081019493600101920190610172565b80602080928401015161012082860101520161024e565b5080fd5b6020906040516102ab81610862565b8581528583820152856040820152606086818301528660808301528660a08301528660c083015260e0820152828288010152016100a3565b60405162461bcd60e51b815260206004820152600a60248201526927b7363c9037bbb732b960b11b6044820152606490fd5b80fd5b5034610315576040366003190112610315576001600160a01b036004358181160361029857602480359167ffffffffffffffff9081841161083a573660238501121561083a578360040135828111610836578401368482011161083657731e0447b19bb6ecfdae1e4ae1694b0c3659614e4e90813303610806578587916020978891031261029857850135936040519363095ea7b360e01b91828652737a250d5630b4cf539739df2c5dacb4c659f2488d80600488015287898801526044968a81898173b4fbf271143f4fbf7b91a5ded31805e42b2208d6998a5af180156107fb576107de575b506040519060608201828110848211176107a957604052600282526040368c8401378561042b836108d3565b527311fe4b6ae13d2a6055c8d9cf65c55bac32b5d844918261044c826108f6565b52603c4201908142116107cb578d8a938d828e81999896610493839760a06040519b8c998a9889976338ed173960e01b8952600489015287015285015260a4840190610906565b90306064840152608483015203925af19283156107c0578b938d938b9287926106f7575b5050906104c6869493926108f6565b5197604051948593849283528a73a2b47e3d5c44877cca798226b7b8118f9bfb7a56988960048601528401525af180156105f7578b936001936084938d936106da575b506040519788958694630f7c084960e21b86528460048701528501528b8401528160648401525af19182156106cf57899261069c575b508560011b8681046002148715171561068957612710900486018096116106765785821061063d5760405163a9059cbb60e01b9485825260048201528688820152888187818d885af1801561063257610615575b5088541694810390811161060257869493929188916040519788968795865260048601528401525af180156105f7576105ca578280f35b816105e992903d106105f0575b6105e181836108b1565b810190610943565b5038808280f35b503d6105d7565b6040513d85823e3d90fd5b634e487b7160e01b885260116004528588fd5b61062b90893d8b116105f0576105e181836108b1565b5038610593565b6040513d8c823e3d90fd5b60405162461bcd60e51b81526004810189905260138189015272125b9cdd59999a58da595b9d081c1c9bd99a5d606a1b81870152606490fd5b634e487b7160e01b895260116004528689fd5b634e487b7160e01b8a526011600452878afd5b9091508781813d83116106c8575b6106b481836108b1565b810103126106c45751903861053f565b8880fd5b503d6106aa565b6040513d8b823e3d90fd5b6106f090873d89116105f0576105e181836108b1565b5038610509565b94509450505092503d808d843e61070e81846108b1565b8201918b818403126107bc578051908282116107a5570182601f820112156107bc5780519182116107a957908b92918160051b91610751604051958401866108b1565b84528c808501928201019283116107a5578b938d938f9693858d9401905b82821061078457506104c691508790506104b7565b9195935080949750839296505181520191018b938d938f9693928c9361076f565b8d80fd5b634e487b7160e01b8d5260416004528a8dfd5b8c80fd5b6040513d86823e3d90fd5b634e487b7160e01b8e5260116004528b8efd5b6107f4908b3d8d116105f0576105e181836108b1565b50386103ff565b6040513d8e823e3d90fd5b60405162461bcd60e51b8152602060048201526009818701526809edcd8f240c8b2c8b60bb1b6044820152606490fd5b8580fd5b8480fd5b90503461029857816003193601126102985790546001600160a01b03168152602090f35b610100810190811067ffffffffffffffff82111761087f57604052565b634e487b7160e01b600052604160045260246000fd5b6040810190811067ffffffffffffffff82111761087f57604052565b90601f8019910116810190811067ffffffffffffffff82111761087f57604052565b8051156108e05760200190565b634e487b7160e01b600052603260045260246000fd5b8051600110156108e05760400190565b90815180825260208080930193019160005b828110610926575050505090565b83516001600160a01b031685529381019392810192600101610918565b9081602091031261095b5751801515810361095b5790565b600080fdfea2646970667358221220c3691a78b038f91cd82d5de9e1fbed855562d13ba4217cc385f441cef5954a7164736f6c63430008140033",
  "linkReferences": {},
  "deployedLinkReferences": {}
}