{
  "_format": "hh-sol-artifact-1",
  "contractName": "FlashLoanArbitrage",
  "sourceName": "contracts/FlashLoanArbitrage.sol",
  "abi": [
    {
      "inputs": [
        {
          "internalType": "address",
          "name": "_feeRecipient",
          "type": "address"
        }
      ],
      "stateMutability": "nonpayable",
      "type": "constructor"
    },
    {
      "inputs": [
        {
          "internalType": "address",
          "name": "",
          "type": "address"
        },
        {
          "internalType": "bytes",
          "name": "data",
          "type": "bytes"
        }
      ],
      "name": "callFunction",
      "outputs": [],
      "stateMutability": "nonpayable",
      "type": "function"
    },
    {
      "inputs": [
        {
          "internalType": "uint256",
          "name": "amount",
          "type": "uint256"
        }
      ],
      "name": "executeFlashLoan",
      "outputs": [],
      "stateMutability": "nonpayable",
      "type": "function"
    },
    {
      "inputs": [],
      "name": "feeRecipient",
      "outputs": [
        {
          "internalType": "address",
          "name": "",
          "type": "address"
        }
      ],
      "stateMutability": "view",
      "type": "function"
    },
    {
      "inputs": [],
      "name": "owner",
      "outputs": [
        {
          "internalType": "address",
          "name": "",
          "type": "address"
        }
      ],
      "stateMutability": "view",
      "type": "function"
    },
    {
      "inputs": [
        {
          "internalType": "address",
          "name": "_feeRecipient",
          "type": "address"
        }
      ],
      "name": "setFeeRecipient",
      "outputs": [],
      "stateMutability": "nonpayable",
      "type": "function"
    },
    {
      "stateMutability": "payable",
      "type": "receive"
    }
  ],
  "bytecode": "0x60803461007a57601f610d0b38819003918201601f19168301916001600160401b0383118484101761007f5780849260209460405283398101031261007a57516001600160a01b0381169081900361007a5760018060a01b0319338160005416176000556001541617600155604051610c7590816100968239f35b600080fd5b634e487b7160e01b600052604160045260246000fdfe608080604052600436101561001d575b50361561001b57600080fd5b005b600090813560e01c9081634690484014610aaa575080638da5cb5b14610a835780639c23da501461034d578063e74b981b146102fe5763fb056f680361000f57346102fb5760203660031901126102fb576004359061008660018060a01b038254163314610aea565b60405161009281610b56565b6001815260203681830137306100a782610b94565b52604051926100b584610b56565b60018452825b602081106102b45750604051816020820152602081526100da81610b56565b604051916100e783610b23565b6002835284602084015260408301528360608301528360808301523060a08301528360c083015260e082015261011c84610b94565b5261012683610b94565b50731e0447b19bb6ecfdae1e4ae1694b0c3659614e4e3b156102b057610164604051916312c9ef7160e31b8352604060048401526044830190610bc7565b600319828203016024830152835180825260208201916020808360051b83010196019285915b8383106101f35786868181808c038183731e0447b19bb6ecfdae1e4ae1694b0c3659614e4e5af180156101e8576101bf575080f35b67ffffffffffffffff81116101d45760405280f35b634e487b7160e01b82526041600452602482fd5b6040513d84823e3d90fd5b9091929396601f1982820301835260e0885160ff81511683526020810151602084015260408101516040840152606081015160608401526080810151608084015260018060a01b0360a08201511660a084015260c081015160c0840152015190610100918260e083015280518093830152885b838110610299575050808201610120908101899052601f909201601f19160101966020908101949360010192019061018a565b806020809284010151610120828601015201610266565b5080fd5b6020906040516102c381610b23565b8581528583820152856040820152606086818301528660808301528660a08301528660c083015260e0820152828288010152016100bb565b80fd5b50346102fb5760203660031901126102fb57610318610acf565b81546001600160a01b0391906103319083163314610aea565b166bffffffffffffffffffffffff60a01b600154161760015580f35b50346102fb5760403660031901126102fb57610367610acf565b506024359067ffffffffffffffff82116102fb57366023830112156102fb57816004013567ffffffffffffffff81116102b05782013660248201116102b057731e0447b19bb6ecfdae1e4ae1694b0c3659614e4e3303610a52578260209103126102fb5760405163095ea7b360e01b815273c532a74256d3db42d0bf7a0400fefdbad769400860048201526024838101359082015260208160448185737b79995e5f793a07bc00c21412e50ecae098e7f95af180156101e857610a33575b506040516060810181811067ffffffffffffffff821117610a1f57604052600281526040366020830137737b79995e5f793a07bc00c21412e50ecae098e7f961046d82610b94565b52733e622317f8c93f7328350cf0b56d9ed4c620c5d661048c82610bb7565b526103e360248401358082028190048214901517156108a657603c420142116108a6576103e883916104f060405194859384936338ed173960e01b855260248a0135600486015260248a01350204602484015260a0604484015260a4830190610bc7565b306064830152603c4201608483015203818373c532a74256d3db42d0bf7a0400fefdbad76940085af180156101e8578290610951575b6105309150610bb7565b516040519063095ea7b360e01b825273a2b47e3d5c44877cca798226b7b8118f9bfb7a569182600482015281602482015260208160448187733e622317f8c93f7328350cf0b56d9ed4c620c5d65af1908115610946578491610927575b50156108ec57829160846020926040519485938492630f7c084960e21b84528260048501526001602485015260448401528160648401525af19081156101e85782916108ba575b50602483013560011b926024810135840460021460248201351517156108a657612710602493940483820135019283910135116108a65781811061086b578161061c91610c1c565b60015460405163a9059cbb60e01b8082526001600160a01b039283166004830152600a8404602483018190529094909392916020816044818a737b79995e5f793a07bc00c21412e50ecae098e7f95af1908115610860578791610841575b50156108065760405190858252731e0447b19bb6ecfdae1e4ae1694b0c3659614e4e6004830152602482015260208160448189737b79995e5f793a07bc00c21412e50ecae098e7f95af19081156107fb5786916107dc575b50156107a4576020926106e89186541692610c1c565b6040519384526001600160a01b0391909116600484015260248301528160448185737b79995e5f793a07bc00c21412e50ecae098e7f95af19081156101e8578291610775575b50156107375780f35b60405162461bcd60e51b8152602060048201526016602482015275141c9bd99a5d081d1c985b9cd9995c8819985a5b195960521b6044820152606490fd5b610797915060203d60201161079d575b61078f8183610b72565b810190610c04565b3861072e565b503d610785565b60405162461bcd60e51b815260206004820152601060248201526f14995c185e5b595b9d0819985a5b195960821b6044820152606490fd5b6107f5915060203d60201161079d5761078f8183610b72565b386106d2565b6040513d88823e3d90fd5b60405162461bcd60e51b8152602060048201526013602482015272119959481d1c985b9cd9995c8819985a5b1959606a1b6044820152606490fd5b61085a915060203d60201161079d5761078f8183610b72565b3861067a565b6040513d89823e3d90fd5b60405162461bcd60e51b8152602060048201526013602482015272125b9cdd59999a58da595b9d081c1c9bd99a5d606a1b6044820152606490fd5b634e487b7160e01b83526011600452602483fd5b90506020813d6020116108e4575b816108d560209383610b72565b810103126102b05751386105d4565b3d91506108c8565b60405162461bcd60e51b815260206004820152601360248201527211105248185c1c1c9bdd985b0819985a5b1959606a1b6044820152606490fd5b610940915060203d60201161079d5761078f8183610b72565b3861058d565b6040513d86823e3d90fd5b503d8083833e6109618183610b72565b810190602081830312610a1b5780519167ffffffffffffffff8311610a175780601f848401011215610a1757828201519267ffffffffffffffff8411610a03578360051b90604051946109b76020840187610b72565b855260208501926020838387010101116109ff57602081850101925b602083838701010184106109ef57505050505061053090610526565b83518152602093840193016109d3565b8580fd5b634e487b7160e01b85526041600452602485fd5b8380fd5b8280fd5b634e487b7160e01b83526041600452602483fd5b610a4b9060203d60201161079d5761078f8183610b72565b5038610425565b60405162461bcd60e51b815260206004820152600960248201526809edcd8f240c8b2c8b60bb1b6044820152606490fd5b50346102fb57806003193601126102fb57546040516001600160a01b039091168152602090f35b9050346102b057816003193601126102b0576001546001600160a01b03168152602090f35b600435906001600160a01b0382168203610ae557565b600080fd5b15610af157565b60405162461bcd60e51b815260206004820152600a60248201526927b7363c9037bbb732b960b11b6044820152606490fd5b610100810190811067ffffffffffffffff821117610b4057604052565b634e487b7160e01b600052604160045260246000fd5b6040810190811067ffffffffffffffff821117610b4057604052565b90601f8019910116810190811067ffffffffffffffff821117610b4057604052565b805115610ba15760200190565b634e487b7160e01b600052603260045260246000fd5b805160011015610ba15760400190565b90815180825260208080930193019160005b828110610be7575050505090565b83516001600160a01b031685529381019392810192600101610bd9565b90816020910312610ae557518015158103610ae55790565b91908203918211610c2957565b634e487b7160e01b600052601160045260246000fdfea2646970667358221220de98f801a16d02278f7476ba72dda651b0fa6d7151575395085d2aeefda838d564736f6c63430008140033",
  "linkReferences": {},
  "deployedLinkReferences": {}
}