{"contracts/FlashLoanArbitrage.sol":{"FlashLoanArbitrage":{"abi":[{"inputs":[{"internalType":"address","name":"_feeRecipient","type":"address"}],"stateMutability":"nonpayable","type":"constructor"},{"inputs":[{"internalType":"address","name":"","type":"address"},{"internalType":"bytes","name":"data","type":"bytes"}],"name":"callFunction","outputs":[],"stateMutability":"nonpayable","type":"function"},{"inputs":[{"internalType":"uint256","name":"amount","type":"uint256"}],"name":"executeFlashLoan","outputs":[],"stateMutability":"nonpayable","type":"function"},{"inputs":[],"name":"feeRecipient","outputs":[{"internalType":"address","name":"","type":"address"}],"stateMutability":"view","type":"function"},{"inputs":[],"name":"owner","outputs":[{"internalType":"address","name":"","type":"address"}],"stateMutability":"view","type":"function"},{"inputs":[{"internalType":"address","name":"_feeRecipient","type":"address"}],"name":"setFeeRecipient","outputs":[],"stateMutability":"nonpayable","type":"function"},{"stateMutability":"payable","type":"receive"}],"evm":{"bytecode":{"linkReferences":{},"object":"60803461007a57601f610d0b38819003918201601f19168301916001600160401b0383118484101761007f5780849260209460405283398101031261007a57516001600160a01b0381169081900361007a5760018060a01b0319338160005416176000556001541617600155604051610c7590816100968239f35b600080fd5b634e487b7160e01b600052604160045260246000fdfe608080604052600436101561001d575b50361561001b57600080fd5b005b600090813560e01c9081634690484014610aaa575080638da5cb5b14610a835780639c23da501461034d578063e74b981b146102fe5763fb056f680361000f57346102fb5760203660031901126102fb576004359061008660018060a01b038254163314610aea565b60405161009281610b56565b6001815260203681830137306100a782610b94565b52604051926100b584610b56565b60018452825b602081106102b45750604051816020820152602081526100da81610b56565b604051916100e783610b23565b6002835284602084015260408301528360608301528360808301523060a08301528360c083015260e082015261011c84610b94565b5261012683610b94565b50731e0447b19bb6ecfdae1e4ae1694b0c3659614e4e3b156102b057610164604051916312c9ef7160e31b8352604060048401526044830190610bc7565b600319828203016024830152835180825260208201916020808360051b83010196019285915b8383106101f35786868181808c038183731e0447b19bb6ecfdae1e4ae1694b0c3659614e4e5af180156101e8576101bf575080f35b67ffffffffffffffff81116101d45760405280f35b634e487b7160e01b82526041600452602482fd5b6040513d84823e3d90fd5b9091929396601f1982820301835260e0885160ff81511683526020810151602084015260408101516040840152606081015160608401526080810151608084015260018060a01b0360a08201511660a084015260c081015160c0840152015190610100918260e083015280518093830152885b838110610299575050808201610120908101899052601f909201601f19160101966020908101949360010192019061018a565b806020809284010151610120828601015201610266565b5080fd5b6020906040516102c381610b23565b8581528583820152856040820152606086818301528660808301528660a08301528660c083015260e0820152828288010152016100bb565b80fd5b50346102fb5760203660031901126102fb57610318610acf565b81546001600160a01b0391906103319083163314610aea565b166bffffffffffffffffffffffff60a01b600154161760015580f35b50346102fb5760403660031901126102fb57610367610acf565b506024359067ffffffffffffffff82116102fb57366023830112156102fb57816004013567ffffffffffffffff81116102b05782013660248201116102b057731e0447b19bb6ecfdae1e4ae1694b0c3659614e4e3303610a52578260209103126102fb5760405163095ea7b360e01b815273c532a74256d3db42d0bf7a0400fefdbad769400860048201526024838101359082015260208160448185737b79995e5f793a07bc00c21412e50ecae098e7f95af180156101e857610a33575b506040516060810181811067ffffffffffffffff821117610a1f57604052600281526040366020830137737b79995e5f793a07bc00c21412e50ecae098e7f961046d82610b94565b52733e622317f8c93f7328350cf0b56d9ed4c620c5d661048c82610bb7565b526103e360248401358082028190048214901517156108a657603c420142116108a6576103e883916104f060405194859384936338ed173960e01b855260248a0135600486015260248a01350204602484015260a0604484015260a4830190610bc7565b306064830152603c4201608483015203818373c532a74256d3db42d0bf7a0400fefdbad76940085af180156101e8578290610951575b6105309150610bb7565b516040519063095ea7b360e01b825273a2b47e3d5c44877cca798226b7b8118f9bfb7a569182600482015281602482015260208160448187733e622317f8c93f7328350cf0b56d9ed4c620c5d65af1908115610946578491610927575b50156108ec57829160846020926040519485938492630f7c084960e21b84528260048501526001602485015260448401528160648401525af19081156101e85782916108ba575b50602483013560011b926024810135840460021460248201351517156108a657612710602493940483820135019283910135116108a65781811061086b578161061c91610c1c565b60015460405163a9059cbb60e01b8082526001600160a01b039283166004830152600a8404602483018190529094909392916020816044818a737b79995e5f793a07bc00c21412e50ecae098e7f95af1908115610860578791610841575b50156108065760405190858252731e0447b19bb6ecfdae1e4ae1694b0c3659614e4e6004830152602482015260208160448189737b79995e5f793a07bc00c21412e50ecae098e7f95af19081156107fb5786916107dc575b50156107a4576020926106e89186541692610c1c565b6040519384526001600160a01b0391909116600484015260248301528160448185737b79995e5f793a07bc00c21412e50ecae098e7f95af19081156101e8578291610775575b50156107375780f35b60405162461bcd60e51b8152602060048201526016602482015275141c9bd99a5d081d1c985b9cd9995c8819985a5b195960521b6044820152606490fd5b610797915060203d60201161079d575b61078f8183610b72565b810190610c04565b3861072e565b503d610785565b60405162461bcd60e51b815260206004820152601060248201526f14995c185e5b595b9d0819985a5b195960821b6044820152606490fd5b6107f5915060203d60201161079d5761078f8183610b72565b386106d2565b6040513d88823e3d90fd5b60405162461bcd60e51b8152602060048201526013602482015272119959481d1c985b9cd9995c8819985a5b1959606a1b6044820152606490fd5b61085a915060203d60201161079d5761078f8183610b72565b3861067a565b6040513d89823e3d90fd5b60405162461bcd60e51b8152602060048201526013602482015272125b9cdd59999a58da595b9d081c1c9bd99a5d606a1b6044820152606490fd5b634e487b7160e01b83526011600452602483fd5b90506020813d6020116108e4575b816108d560209383610b72565b810103126102b05751386105d4565b3d91506108c8565b60405162461bcd60e51b815260206004820152601360248201527211105248185c1c1c9bdd985b0819985a5b1959606a1b6044820152606490fd5b610940915060203d60201161079d5761078f8183610b72565b3861058d565b6040513d86823e3d90fd5b503d8083833e6109618183610b72565b810190602081830312610a1b5780519167ffffffffffffffff8311610a175780601f848401011215610a1757828201519267ffffffffffffffff8411610a03578360051b90604051946109b76020840187610b72565b855260208501926020838387010101116109ff57602081850101925b602083838701010184106109ef57505050505061053090610526565b83518152602093840193016109d3565b8580fd5b634e487b7160e01b85526041600452602485fd5b8380fd5b8280fd5b634e487b7160e01b83526041600452602483fd5b610a4b9060203d60201161079d5761078f8183610b72565b5038610425565b60405162461bcd60e51b815260206004820152600960248201526809edcd8f240c8b2c8b60bb1b6044820152606490fd5b50346102fb57806003193601126102fb57546040516001600160a01b039091168152602090f35b9050346102b057816003193601126102b0576001546001600160a01b03168152602090f35b600435906001600160a01b0382168203610ae557565b600080fd5b15610af157565b60405162461bcd60e51b815260206004820152600a60248201526927b7363c9037bbb732b960b11b6044820152606490fd5b610100810190811067ffffffffffffffff821117610b4057604052565b634e487b7160e01b600052604160045260246000fd5b6040810190811067ffffffffffffffff821117610b4057604052565b90601f8019910116810190811067ffffffffffffffff821117610b4057604052565b805115610ba15760200190565b634e487b7160e01b600052603260045260246000fd5b805160011015610ba15760400190565b90815180825260208080930193019160005b828110610be7575050505090565b83516001600160a01b031685529381019392810192600101610bd9565b90816020910312610ae557518015158103610ae55790565b91908203918211610c2957565b634e487b7160e01b600052601160045260246000fdfea2646970667358221220de98f801a16d02278f7476ba72dda651b0fa6d7151575395085d2aeefda838d564736f6c63430008140033","opcodes":"PUSH1 0x80 CALLVALUE PUSH2 0x7A JUMPI PUSH1 0x1F PUSH2 0xD0B CODESIZE DUP2 SWAP1 SUB SWAP2 DUP3 ADD PUSH1 0x1F NOT AND DUP4 ADD SWAP2 PUSH1 0x1 PUSH1 0x1 PUSH1 0x40 SHL SUB DUP4 GT DUP5 DUP5 LT OR PUSH2 0x7F JUMPI DUP1 DUP5 SWAP3 PUSH1 0x20 SWAP5 PUSH1 0x40 MSTORE DUP4 CODECOPY DUP2 ADD SUB SLT PUSH2 0x7A JUMPI MLOAD PUSH1 0x1 PUSH1 0x1 PUSH1 0xA0 SHL SUB DUP2 AND SWAP1 DUP2 SWAP1 SUB PUSH2 0x7A JUMPI PUSH1 0x1 DUP1 PUSH1 0xA0 SHL SUB NOT CALLER DUP2 PUSH1 0x0 SLOAD AND OR PUSH1 0x0 SSTORE PUSH1 0x1 SLOAD AND OR PUSH1 0x1 SSTORE PUSH1 0x40 MLOAD PUSH2 0xC75 SWAP1 DUP2 PUSH2 0x96 DUP3 CODECOPY RETURN JUMPDEST PUSH1 0x0 DUP1 REVERT JUMPDEST PUSH4 0x4E487B71 PUSH1 0xE0 SHL PUSH1 0x0 MSTORE PUSH1 0x41 PUSH1 0x4 MSTORE PUSH1 0x24 PUSH1 0x0 REVERT INVALID PUSH1 0x80 DUP1 PUSH1 0x40 MSTORE PUSH1 0x4 CALLDATASIZE LT ISZERO PUSH2 0x1D JUMPI JUMPDEST POP CALLDATASIZE ISZERO PUSH2 0x1B JUMPI PUSH1 0x0 DUP1 REVERT JUMPDEST STOP JUMPDEST PUSH1 0x0 SWAP1 DUP2 CALLDATALOAD PUSH1 0xE0 SHR SWAP1 DUP2 PUSH4 0x46904840 EQ PUSH2 0xAAA JUMPI POP DUP1 PUSH4 0x8DA5CB5B EQ PUSH2 0xA83 JUMPI DUP1 PUSH4 0x9C23DA50 EQ PUSH2 0x34D JUMPI DUP1 PUSH4 0xE74B981B EQ PUSH2 0x2FE JUMPI PUSH4 0xFB056F68 SUB PUSH2 0xF JUMPI CALLVALUE PUSH2 0x2FB JUMPI PUSH1 0x20 CALLDATASIZE PUSH1 0x3 NOT ADD SLT PUSH2 0x2FB JUMPI PUSH1 0x4 CALLDATALOAD SWAP1 PUSH2 0x86 PUSH1 0x1 DUP1 PUSH1 0xA0 SHL SUB DUP3 SLOAD AND CALLER EQ PUSH2 0xAEA JUMP JUMPDEST PUSH1 0x40 MLOAD PUSH2 0x92 DUP2 PUSH2 0xB56 JUMP JUMPDEST PUSH1 0x1 DUP2 MSTORE PUSH1 0x20 CALLDATASIZE DUP2 DUP4 ADD CALLDATACOPY ADDRESS PUSH2 0xA7 DUP3 PUSH2 0xB94 JUMP JUMPDEST MSTORE PUSH1 0x40 MLOAD SWAP3 PUSH2 0xB5 DUP5 PUSH2 0xB56 JUMP JUMPDEST PUSH1 0x1 DUP5 MSTORE DUP3 JUMPDEST PUSH1 0x20 DUP2 LT PUSH2 0x2B4 JUMPI POP PUSH1 0x40 MLOAD DUP2 PUSH1 0x20 DUP3 ADD MSTORE PUSH1 0x20 DUP2 MSTORE PUSH2 0xDA DUP2 PUSH2 0xB56 JUMP JUMPDEST PUSH1 0x40 MLOAD SWAP2 PUSH2 0xE7 DUP4 PUSH2 0xB23 JUMP JUMPDEST PUSH1 0x2 DUP4 MSTORE DUP5 PUSH1 0x20 DUP5 ADD MSTORE PUSH1 0x40 DUP4 ADD MSTORE DUP4 PUSH1 0x60 DUP4 ADD MSTORE DUP4 PUSH1 0x80 DUP4 ADD MSTORE ADDRESS PUSH1 0xA0 DUP4 ADD MSTORE DUP4 PUSH1 0xC0 DUP4 ADD MSTORE PUSH1 0xE0 DUP3 ADD MSTORE PUSH2 0x11C DUP5 PUSH2 0xB94 JUMP JUMPDEST MSTORE PUSH2 0x126 DUP4 PUSH2 0xB94 JUMP JUMPDEST POP PUSH20 0x1E0447B19BB6ECFDAE1E4AE1694B0C3659614E4E EXTCODESIZE ISZERO PUSH2 0x2B0 JUMPI PUSH2 0x164 PUSH1 0x40 MLOAD SWAP2 PUSH4 0x12C9EF71 PUSH1 0xE3 SHL DUP4 MSTORE PUSH1 0x40 PUSH1 0x4 DUP5 ADD MSTORE PUSH1 0x44 DUP4 ADD SWAP1 PUSH2 0xBC7 JUMP JUMPDEST PUSH1 0x3 NOT DUP3 DUP3 SUB ADD PUSH1 0x24 DUP4 ADD MSTORE DUP4 MLOAD DUP1 DUP3 MSTORE PUSH1 0x20 DUP3 ADD SWAP2 PUSH1 0x20 DUP1 DUP4 PUSH1 0x5 SHL DUP4 ADD ADD SWAP7 ADD SWAP3 DUP6 SWAP2 JUMPDEST DUP4 DUP4 LT PUSH2 0x1F3 JUMPI DUP7 DUP7 DUP2 DUP2 DUP1 DUP13 SUB DUP2 DUP4 PUSH20 0x1E0447B19BB6ECFDAE1E4AE1694B0C3659614E4E GAS CALL DUP1 ISZERO PUSH2 0x1E8 JUMPI PUSH2 0x1BF JUMPI POP DUP1 RETURN JUMPDEST PUSH8 0xFFFFFFFFFFFFFFFF DUP2 GT PUSH2 0x1D4 JUMPI PUSH1 0x40 MSTORE DUP1 RETURN JUMPDEST PUSH4 0x4E487B71 PUSH1 0xE0 SHL DUP3 MSTORE PUSH1 0x41 PUSH1 0x4 MSTORE PUSH1 0x24 DUP3 REVERT JUMPDEST PUSH1 0x40 MLOAD RETURNDATASIZE DUP5 DUP3 RETURNDATACOPY RETURNDATASIZE SWAP1 REVERT JUMPDEST SWAP1 SWAP2 SWAP3 SWAP4 SWAP7 PUSH1 0x1F NOT DUP3 DUP3 SUB ADD DUP4 MSTORE PUSH1 0xE0 DUP9 MLOAD PUSH1 0xFF DUP2 MLOAD AND DUP4 MSTORE PUSH1 0x20 DUP2 ADD MLOAD PUSH1 0x20 DUP5 ADD MSTORE PUSH1 0x40 DUP2 ADD MLOAD PUSH1 0x40 DUP5 ADD MSTORE PUSH1 0x60 DUP2 ADD MLOAD PUSH1 0x60 DUP5 ADD MSTORE PUSH1 0x80 DUP2 ADD MLOAD PUSH1 0x80 DUP5 ADD MSTORE PUSH1 0x1 DUP1 PUSH1 0xA0 SHL SUB PUSH1 0xA0 DUP3 ADD MLOAD AND PUSH1 0xA0 DUP5 ADD MSTORE PUSH1 0xC0 DUP2 ADD MLOAD PUSH1 0xC0 DUP5 ADD MSTORE ADD MLOAD SWAP1 PUSH2 0x100 SWAP2 DUP3 PUSH1 0xE0 DUP4 ADD MSTORE DUP1 MLOAD DUP1 SWAP4 DUP4 ADD MSTORE DUP9 JUMPDEST DUP4 DUP2 LT PUSH2 0x299 JUMPI POP POP DUP1 DUP3 ADD PUSH2 0x120 SWAP1 DUP2 ADD DUP10 SWAP1 MSTORE PUSH1 0x1F SWAP1 SWAP3 ADD PUSH1 0x1F NOT AND ADD ADD SWAP7 PUSH1 0x20 SWAP1 DUP2 ADD SWAP5 SWAP4 PUSH1 0x1 ADD SWAP3 ADD SWAP1 PUSH2 0x18A JUMP JUMPDEST DUP1 PUSH1 0x20 DUP1 SWAP3 DUP5 ADD ADD MLOAD PUSH2 0x120 DUP3 DUP7 ADD ADD MSTORE ADD PUSH2 0x266 JUMP JUMPDEST POP DUP1 REVERT JUMPDEST PUSH1 0x20 SWAP1 PUSH1 0x40 MLOAD PUSH2 0x2C3 DUP2 PUSH2 0xB23 JUMP JUMPDEST DUP6 DUP2 MSTORE DUP6 DUP4 DUP3 ADD MSTORE DUP6 PUSH1 0x40 DUP3 ADD MSTORE PUSH1 0x60 DUP7 DUP2 DUP4 ADD MSTORE DUP7 PUSH1 0x80 DUP4 ADD MSTORE DUP7 PUSH1 0xA0 DUP4 ADD MSTORE DUP7 PUSH1 0xC0 DUP4 ADD MSTORE PUSH1 0xE0 DUP3 ADD MSTORE DUP3 DUP3 DUP9 ADD ADD MSTORE ADD PUSH2 0xBB JUMP JUMPDEST DUP1 REVERT JUMPDEST POP CALLVALUE PUSH2 0x2FB JUMPI PUSH1 0x20 CALLDATASIZE PUSH1 0x3 NOT ADD SLT PUSH2 0x2FB JUMPI PUSH2 0x318 PUSH2 0xACF JUMP JUMPDEST DUP2 SLOAD PUSH1 0x1 PUSH1 0x1 PUSH1 0xA0 SHL SUB SWAP2 SWAP1 PUSH2 0x331 SWAP1 DUP4 AND CALLER EQ PUSH2 0xAEA JUMP JUMPDEST AND PUSH12 0xFFFFFFFFFFFFFFFFFFFFFFFF PUSH1 0xA0 SHL PUSH1 0x1 SLOAD AND OR PUSH1 0x1 SSTORE DUP1 RETURN JUMPDEST POP CALLVALUE PUSH2 0x2FB JUMPI PUSH1 0x40 CALLDATASIZE PUSH1 0x3 NOT ADD SLT PUSH2 0x2FB JUMPI PUSH2 0x367 PUSH2 0xACF JUMP JUMPDEST POP PUSH1 0x24 CALLDATALOAD SWAP1 PUSH8 0xFFFFFFFFFFFFFFFF DUP3 GT PUSH2 0x2FB JUMPI CALLDATASIZE PUSH1 0x23 DUP4 ADD SLT ISZERO PUSH2 0x2FB JUMPI DUP2 PUSH1 0x4 ADD CALLDATALOAD PUSH8 0xFFFFFFFFFFFFFFFF DUP2 GT PUSH2 0x2B0 JUMPI DUP3 ADD CALLDATASIZE PUSH1 0x24 DUP3 ADD GT PUSH2 0x2B0 JUMPI PUSH20 0x1E0447B19BB6ECFDAE1E4AE1694B0C3659614E4E CALLER SUB PUSH2 0xA52 JUMPI DUP3 PUSH1 0x20 SWAP2 SUB SLT PUSH2 0x2FB JUMPI PUSH1 0x40 MLOAD PUSH4 0x95EA7B3 PUSH1 0xE0 SHL DUP2 MSTORE PUSH20 0xC532A74256D3DB42D0BF7A0400FEFDBAD7694008 PUSH1 0x4 DUP3 ADD MSTORE PUSH1 0x24 DUP4 DUP2 ADD CALLDATALOAD SWAP1 DUP3 ADD MSTORE PUSH1 0x20 DUP2 PUSH1 0x44 DUP2 DUP6 PUSH20 0x7B79995E5F793A07BC00C21412E50ECAE098E7F9 GAS CALL DUP1 ISZERO PUSH2 0x1E8 JUMPI PUSH2 0xA33 JUMPI JUMPDEST POP PUSH1 0x40 MLOAD PUSH1 0x60 DUP2 ADD DUP2 DUP2 LT PUSH8 0xFFFFFFFFFFFFFFFF DUP3 GT OR PUSH2 0xA1F JUMPI PUSH1 0x40 MSTORE PUSH1 0x2 DUP2 MSTORE PUSH1 0x40 CALLDATASIZE PUSH1 0x20 DUP4 ADD CALLDATACOPY PUSH20 0x7B79995E5F793A07BC00C21412E50ECAE098E7F9 PUSH2 0x46D DUP3 PUSH2 0xB94 JUMP JUMPDEST MSTORE PUSH20 0x3E622317F8C93F7328350CF0B56D9ED4C620C5D6 PUSH2 0x48C DUP3 PUSH2 0xBB7 JUMP JUMPDEST MSTORE PUSH2 0x3E3 PUSH1 0x24 DUP5 ADD CALLDATALOAD DUP1 DUP3 MUL DUP2 SWAP1 DIV DUP3 EQ SWAP1 ISZERO OR ISZERO PUSH2 0x8A6 JUMPI PUSH1 0x3C TIMESTAMP ADD TIMESTAMP GT PUSH2 0x8A6 JUMPI PUSH2 0x3E8 DUP4 SWAP2 PUSH2 0x4F0 PUSH1 0x40 MLOAD SWAP5 DUP6 SWAP4 DUP5 SWAP4 PUSH4 0x38ED1739 PUSH1 0xE0 SHL DUP6 MSTORE PUSH1 0x24 DUP11 ADD CALLDATALOAD PUSH1 0x4 DUP7 ADD MSTORE PUSH1 0x24 DUP11 ADD CALLDATALOAD MUL DIV PUSH1 0x24 DUP5 ADD MSTORE PUSH1 0xA0 PUSH1 0x44 DUP5 ADD MSTORE PUSH1 0xA4 DUP4 ADD SWAP1 PUSH2 0xBC7 JUMP JUMPDEST ADDRESS PUSH1 0x64 DUP4 ADD MSTORE PUSH1 0x3C TIMESTAMP ADD PUSH1 0x84 DUP4 ADD MSTORE SUB DUP2 DUP4 PUSH20 0xC532A74256D3DB42D0BF7A0400FEFDBAD7694008 GAS CALL DUP1 ISZERO PUSH2 0x1E8 JUMPI DUP3 SWAP1 PUSH2 0x951 JUMPI JUMPDEST PUSH2 0x530 SWAP2 POP PUSH2 0xBB7 JUMP JUMPDEST MLOAD PUSH1 0x40 MLOAD SWAP1 PUSH4 0x95EA7B3 PUSH1 0xE0 SHL DUP3 MSTORE PUSH20 0xA2B47E3D5C44877CCA798226B7B8118F9BFB7A56 SWAP2 DUP3 PUSH1 0x4 DUP3 ADD MSTORE DUP2 PUSH1 0x24 DUP3 ADD MSTORE PUSH1 0x20 DUP2 PUSH1 0x44 DUP2 DUP8 PUSH20 0x3E622317F8C93F7328350CF0B56D9ED4C620C5D6 GAS CALL SWAP1 DUP2 ISZERO PUSH2 0x946 JUMPI DUP5 SWAP2 PUSH2 0x927 JUMPI JUMPDEST POP ISZERO PUSH2 0x8EC JUMPI DUP3 SWAP2 PUSH1 0x84 PUSH1 0x20 SWAP3 PUSH1 0x40 MLOAD SWAP5 DUP6 SWAP4 DUP5 SWAP3 PUSH4 0xF7C0849 PUSH1 0xE2 SHL DUP5 MSTORE DUP3 PUSH1 0x4 DUP6 ADD MSTORE PUSH1 0x1 PUSH1 0x24 DUP6 ADD MSTORE PUSH1 0x44 DUP5 ADD MSTORE DUP2 PUSH1 0x64 DUP5 ADD MSTORE GAS CALL SWAP1 DUP2 ISZERO PUSH2 0x1E8 JUMPI DUP3 SWAP2 PUSH2 0x8BA JUMPI JUMPDEST POP PUSH1 0x24 DUP4 ADD CALLDATALOAD PUSH1 0x1 SHL SWAP3 PUSH1 0x24 DUP2 ADD CALLDATALOAD DUP5 DIV PUSH1 0x2 EQ PUSH1 0x24 DUP3 ADD CALLDATALOAD ISZERO OR ISZERO PUSH2 0x8A6 JUMPI PUSH2 0x2710 PUSH1 0x24 SWAP4 SWAP5 DIV DUP4 DUP3 ADD CALLDATALOAD ADD SWAP3 DUP4 SWAP2 ADD CALLDATALOAD GT PUSH2 0x8A6 JUMPI DUP2 DUP2 LT PUSH2 0x86B JUMPI DUP2 PUSH2 0x61C SWAP2 PUSH2 0xC1C JUMP JUMPDEST PUSH1 0x1 SLOAD PUSH1 0x40 MLOAD PUSH4 0xA9059CBB PUSH1 0xE0 SHL DUP1 DUP3 MSTORE PUSH1 0x1 PUSH1 0x1 PUSH1 0xA0 SHL SUB SWAP3 DUP4 AND PUSH1 0x4 DUP4 ADD MSTORE PUSH1 0xA DUP5 DIV PUSH1 0x24 DUP4 ADD DUP2 SWAP1 MSTORE SWAP1 SWAP5 SWAP1 SWAP4 SWAP3 SWAP2 PUSH1 0x20 DUP2 PUSH1 0x44 DUP2 DUP11 PUSH20 0x7B79995E5F793A07BC00C21412E50ECAE098E7F9 GAS CALL SWAP1 DUP2 ISZERO PUSH2 0x860 JUMPI DUP8 SWAP2 PUSH2 0x841 JUMPI JUMPDEST POP ISZERO PUSH2 0x806 JUMPI PUSH1 0x40 MLOAD SWAP1 DUP6 DUP3 MSTORE PUSH20 0x1E0447B19BB6ECFDAE1E4AE1694B0C3659614E4E PUSH1 0x4 DUP4 ADD MSTORE PUSH1 0x24 DUP3 ADD MSTORE PUSH1 0x20 DUP2 PUSH1 0x44 DUP2 DUP10 PUSH20 0x7B79995E5F793A07BC00C21412E50ECAE098E7F9 GAS CALL SWAP1 DUP2 ISZERO PUSH2 0x7FB JUMPI DUP7 SWAP2 PUSH2 0x7DC JUMPI JUMPDEST POP ISZERO PUSH2 0x7A4 JUMPI PUSH1 0x20 SWAP3 PUSH2 0x6E8 SWAP2 DUP7 SLOAD AND SWAP3 PUSH2 0xC1C JUMP JUMPDEST PUSH1 0x40 MLOAD SWAP4 DUP5 MSTORE PUSH1 0x1 PUSH1 0x1 PUSH1 0xA0 SHL SUB SWAP2 SWAP1 SWAP2 AND PUSH1 0x4 DUP5 ADD MSTORE PUSH1 0x24 DUP4 ADD MSTORE DUP2 PUSH1 0x44 DUP2 DUP6 PUSH20 0x7B79995E5F793A07BC00C21412E50ECAE098E7F9 GAS CALL SWAP1 DUP2 ISZERO PUSH2 0x1E8 JUMPI DUP3 SWAP2 PUSH2 0x775 JUMPI JUMPDEST POP ISZERO PUSH2 0x737 JUMPI DUP1 RETURN JUMPDEST PUSH1 0x40 MLOAD PUSH3 0x461BCD PUSH1 0xE5 SHL DUP2 MSTORE PUSH1 0x20 PUSH1 0x4 DUP3 ADD MSTORE PUSH1 0x16 PUSH1 0x24 DUP3 ADD MSTORE PUSH22 0x141C9BD99A5D081D1C985B9CD9995C8819985A5B1959 PUSH1 0x52 SHL PUSH1 0x44 DUP3 ADD MSTORE PUSH1 0x64 SWAP1 REVERT JUMPDEST PUSH2 0x797 SWAP2 POP PUSH1 0x20 RETURNDATASIZE PUSH1 0x20 GT PUSH2 0x79D JUMPI JUMPDEST PUSH2 0x78F DUP2 DUP4 PUSH2 0xB72 JUMP JUMPDEST DUP2 ADD SWAP1 PUSH2 0xC04 JUMP JUMPDEST CODESIZE PUSH2 0x72E JUMP JUMPDEST POP RETURNDATASIZE PUSH2 0x785 JUMP JUMPDEST PUSH1 0x40 MLOAD PUSH3 0x461BCD PUSH1 0xE5 SHL DUP2 MSTORE PUSH1 0x20 PUSH1 0x4 DUP3 ADD MSTORE PUSH1 0x10 PUSH1 0x24 DUP3 ADD MSTORE PUSH16 0x14995C185E5B595B9D0819985A5B1959 PUSH1 0x82 SHL PUSH1 0x44 DUP3 ADD MSTORE PUSH1 0x64 SWAP1 REVERT JUMPDEST PUSH2 0x7F5 SWAP2 POP PUSH1 0x20 RETURNDATASIZE PUSH1 0x20 GT PUSH2 0x79D JUMPI PUSH2 0x78F DUP2 DUP4 PUSH2 0xB72 JUMP JUMPDEST CODESIZE PUSH2 0x6D2 JUMP JUMPDEST PUSH1 0x40 MLOAD RETURNDATASIZE DUP9 DUP3 RETURNDATACOPY RETURNDATASIZE SWAP1 REVERT JUMPDEST PUSH1 0x40 MLOAD PUSH3 0x461BCD PUSH1 0xE5 SHL DUP2 MSTORE PUSH1 0x20 PUSH1 0x4 DUP3 ADD MSTORE PUSH1 0x13 PUSH1 0x24 DUP3 ADD MSTORE PUSH19 0x119959481D1C985B9CD9995C8819985A5B1959 PUSH1 0x6A SHL PUSH1 0x44 DUP3 ADD MSTORE PUSH1 0x64 SWAP1 REVERT JUMPDEST PUSH2 0x85A SWAP2 POP PUSH1 0x20 RETURNDATASIZE PUSH1 0x20 GT PUSH2 0x79D JUMPI PUSH2 0x78F DUP2 DUP4 PUSH2 0xB72 JUMP JUMPDEST CODESIZE PUSH2 0x67A JUMP JUMPDEST PUSH1 0x40 MLOAD RETURNDATASIZE DUP10 DUP3 RETURNDATACOPY RETURNDATASIZE SWAP1 REVERT JUMPDEST PUSH1 0x40 MLOAD PUSH3 0x461BCD PUSH1 0xE5 SHL DUP2 MSTORE PUSH1 0x20 PUSH1 0x4 DUP3 ADD MSTORE PUSH1 0x13 PUSH1 0x24 DUP3 ADD MSTORE PUSH19 0x125B9CDD59999A58DA595B9D081C1C9BD99A5D PUSH1 0x6A SHL PUSH1 0x44 DUP3 ADD MSTORE PUSH1 0x64 SWAP1 REVERT JUMPDEST PUSH4 0x4E487B71 PUSH1 0xE0 SHL DUP4 MSTORE PUSH1 0x11 PUSH1 0x4 MSTORE PUSH1 0x24 DUP4 REVERT JUMPDEST SWAP1 POP PUSH1 0x20 DUP2 RETURNDATASIZE PUSH1 0x20 GT PUSH2 0x8E4 JUMPI JUMPDEST DUP2 PUSH2 0x8D5 PUSH1 0x20 SWAP4 DUP4 PUSH2 0xB72 JUMP JUMPDEST DUP2 ADD SUB SLT PUSH2 0x2B0 JUMPI MLOAD CODESIZE PUSH2 0x5D4 JUMP JUMPDEST RETURNDATASIZE SWAP2 POP PUSH2 0x8C8 JUMP JUMPDEST PUSH1 0x40 MLOAD PUSH3 0x461BCD PUSH1 0xE5 SHL DUP2 MSTORE PUSH1 0x20 PUSH1 0x4 DUP3 ADD MSTORE PUSH1 0x13 PUSH1 0x24 DUP3 ADD MSTORE PUSH19 0x11105248185C1C1C9BDD985B0819985A5B1959 PUSH1 0x6A SHL PUSH1 0x44 DUP3 ADD MSTORE PUSH1 0x64 SWAP1 REVERT JUMPDEST PUSH2 0x940 SWAP2 POP PUSH1 0x20 RETURNDATASIZE PUSH1 0x20 GT PUSH2 0x79D JUMPI PUSH2 0x78F DUP2 DUP4 PUSH2 0xB72 JUMP JUMPDEST CODESIZE PUSH2 0x58D JUMP JUMPDEST PUSH1 0x40 MLOAD RETURNDATASIZE DUP7 DUP3 RETURNDATACOPY RETURNDATASIZE SWAP1 REVERT JUMPDEST POP RETURNDATASIZE DUP1 DUP4 DUP4 RETURNDATACOPY PUSH2 0x961 DUP2 DUP4 PUSH2 0xB72 JUMP JUMPDEST DUP2 ADD SWAP1 PUSH1 0x20 DUP2 DUP4 SUB SLT PUSH2 0xA1B JUMPI DUP1 MLOAD SWAP2 PUSH8 0xFFFFFFFFFFFFFFFF DUP4 GT PUSH2 0xA17 JUMPI DUP1 PUSH1 0x1F DUP5 DUP5 ADD ADD SLT ISZERO PUSH2 0xA17 JUMPI DUP3 DUP3 ADD MLOAD SWAP3 PUSH8 0xFFFFFFFFFFFFFFFF DUP5 GT PUSH2 0xA03 JUMPI DUP4 PUSH1 0x5 SHL SWAP1 PUSH1 0x40 MLOAD SWAP5 PUSH2 0x9B7 PUSH1 0x20 DUP5 ADD DUP8 PUSH2 0xB72 JUMP JUMPDEST DUP6 MSTORE PUSH1 0x20 DUP6 ADD SWAP3 PUSH1 0x20 DUP4 DUP4 DUP8 ADD ADD ADD GT PUSH2 0x9FF JUMPI PUSH1 0x20 DUP2 DUP6 ADD ADD SWAP3 JUMPDEST PUSH1 0x20 DUP4 DUP4 DUP8 ADD ADD ADD DUP5 LT PUSH2 0x9EF JUMPI POP POP POP POP POP PUSH2 0x530 SWAP1 PUSH2 0x526 JUMP JUMPDEST DUP4 MLOAD DUP2 MSTORE PUSH1 0x20 SWAP4 DUP5 ADD SWAP4 ADD PUSH2 0x9D3 JUMP JUMPDEST DUP6 DUP1 REVERT JUMPDEST PUSH4 0x4E487B71 PUSH1 0xE0 SHL DUP6 MSTORE PUSH1 0x41 PUSH1 0x4 MSTORE PUSH1 0x24 DUP6 REVERT JUMPDEST DUP4 DUP1 REVERT JUMPDEST DUP3 DUP1 REVERT JUMPDEST PUSH4 0x4E487B71 PUSH1 0xE0 SHL DUP4 MSTORE PUSH1 0x41 PUSH1 0x4 MSTORE PUSH1 0x24 DUP4 REVERT JUMPDEST PUSH2 0xA4B SWAP1 PUSH1 0x20 RETURNDATASIZE PUSH1 0x20 GT PUSH2 0x79D JUMPI PUSH2 0x78F DUP2 DUP4 PUSH2 0xB72 JUMP JUMPDEST POP CODESIZE PUSH2 0x425 JUMP JUMPDEST PUSH1 0x40 MLOAD PUSH3 0x461BCD PUSH1 0xE5 SHL DUP2 MSTORE PUSH1 0x20 PUSH1 0x4 DUP3 ADD MSTORE PUSH1 0x9 PUSH1 0x24 DUP3 ADD MSTORE PUSH9 0x9EDCD8F240C8B2C8B PUSH1 0xBB SHL PUSH1 0x44 DUP3 ADD MSTORE PUSH1 0x64 SWAP1 REVERT JUMPDEST POP CALLVALUE PUSH2 0x2FB JUMPI DUP1 PUSH1 0x3 NOT CALLDATASIZE ADD SLT PUSH2 0x2FB JUMPI SLOAD PUSH1 0x40 MLOAD PUSH1 0x1 PUSH1 0x1 PUSH1 0xA0 SHL SUB SWAP1 SWAP2 AND DUP2 MSTORE PUSH1 0x20 SWAP1 RETURN JUMPDEST SWAP1 POP CALLVALUE PUSH2 0x2B0 JUMPI DUP2 PUSH1 0x3 NOT CALLDATASIZE ADD SLT PUSH2 0x2B0 JUMPI PUSH1 0x1 SLOAD PUSH1 0x1 PUSH1 0x1 PUSH1 0xA0 SHL SUB AND DUP2 MSTORE PUSH1 0x20 SWAP1 RETURN JUMPDEST PUSH1 0x4 CALLDATALOAD SWAP1 PUSH1 0x1 PUSH1 0x1 PUSH1 0xA0 SHL SUB DUP3 AND DUP3 SUB PUSH2 0xAE5 JUMPI JUMP JUMPDEST PUSH1 0x0 DUP1 REVERT JUMPDEST ISZERO PUSH2 0xAF1 JUMPI JUMP JUMPDEST PUSH1 0x40 MLOAD PUSH3 0x461BCD PUSH1 0xE5 SHL DUP2 MSTORE PUSH1 0x20 PUSH1 0x4 DUP3 ADD MSTORE PUSH1 0xA PUSH1 0x24 DUP3 ADD MSTORE PUSH10 0x27B7363C9037BBB732B9 PUSH1 0xB1 SHL PUSH1 0x44 DUP3 ADD MSTORE PUSH1 0x64 SWAP1 REVERT JUMPDEST PUSH2 0x100 DUP2 ADD SWAP1 DUP2 LT PUSH8 0xFFFFFFFFFFFFFFFF DUP3 GT OR PUSH2 0xB40 JUMPI PUSH1 0x40 MSTORE JUMP JUMPDEST PUSH4 0x4E487B71 PUSH1 0xE0 SHL PUSH1 0x0 MSTORE PUSH1 0x41 PUSH1 0x4 MSTORE PUSH1 0x24 PUSH1 0x0 REVERT JUMPDEST PUSH1 0x40 DUP2 ADD SWAP1 DUP2 LT PUSH8 0xFFFFFFFFFFFFFFFF DUP3 GT OR PUSH2 0xB40 JUMPI PUSH1 0x40 MSTORE JUMP JUMPDEST SWAP1 PUSH1 0x1F DUP1 NOT SWAP2 ADD AND DUP2 ADD SWAP1 DUP2 LT PUSH8 0xFFFFFFFFFFFFFFFF DUP3 GT OR PUSH2 0xB40 JUMPI PUSH1 0x40 MSTORE JUMP JUMPDEST DUP1 MLOAD ISZERO PUSH2 0xBA1 JUMPI PUSH1 0x20 ADD SWAP1 JUMP JUMPDEST PUSH4 0x4E487B71 PUSH1 0xE0 SHL PUSH1 0x0 MSTORE PUSH1 0x32 PUSH1 0x4 MSTORE PUSH1 0x24 PUSH1 0x0 REVERT JUMPDEST DUP1 MLOAD PUSH1 0x1 LT ISZERO PUSH2 0xBA1 JUMPI PUSH1 0x40 ADD SWAP1 JUMP JUMPDEST SWAP1 DUP2 MLOAD DUP1 DUP3 MSTORE PUSH1 0x20 DUP1 DUP1 SWAP4 ADD SWAP4 ADD SWAP2 PUSH1 0x0 JUMPDEST DUP3 DUP2 LT PUSH2 0xBE7 JUMPI POP POP POP POP SWAP1 JUMP JUMPDEST DUP4 MLOAD PUSH1 0x1 PUSH1 0x1 PUSH1 0xA0 SHL SUB AND DUP6 MSTORE SWAP4 DUP2 ADD SWAP4 SWAP3 DUP2 ADD SWAP3 PUSH1 0x1 ADD PUSH2 0xBD9 JUMP JUMPDEST SWAP1 DUP2 PUSH1 0x20 SWAP2 SUB SLT PUSH2 0xAE5 JUMPI MLOAD DUP1 ISZERO ISZERO DUP2 SUB PUSH2 0xAE5 JUMPI SWAP1 JUMP JUMPDEST SWAP2 SWAP1 DUP3 SUB SWAP2 DUP3 GT PUSH2 0xC29 JUMPI JUMP JUMPDEST PUSH4 0x4E487B71 PUSH1 0xE0 SHL PUSH1 0x0 MSTORE PUSH1 0x11 PUSH1 0x4 MSTORE PUSH1 0x24 PUSH1 0x0 REVERT INVALID LOG2 PUSH5 0x6970667358 0x22 SLT KECCAK256 0xDE SWAP9 0xF8 ADD LOG1 PUSH14 0x2278F7476BA72DDA651B0FA6D71 MLOAD JUMPI MSTORE8 SWAP6 ADDMOD 0x5D 0x2A 0xEE REVERT 0xA8 CODESIZE 0xD5 PUSH5 0x736F6C6343 STOP ADDMOD EQ STOP CALLER "},"methodIdentifiers":{"callFunction(address,bytes)":"9c23da50","executeFlashLoan(uint256)":"fb056f68","feeRecipient()":"46904840","owner()":"8da5cb5b","setFeeRecipient(address)":"e74b981b"}}}}}