{"contracts/FlashLoanProvider.sol":{"FlashLoanProvider":{"abi":[{"inputs":[],"name":"takeFlashLoan","outputs":[],"stateMutability":"payable","type":"function"}],"evm":{"bytecode":{"linkReferences":{},"object":"608080604052346100155760f5908161001b8239f35b600080fdfe60806004361015600e57600080fd5b600090813560e01c63ddfb54a914602457600080fd5b8160031936011260bb5767ffffffffffffffff9081361160a757601f19603f81601f360116011681018181108382111760935783916020916040523681523683838301373601015260405160a08101918211911017607f5780f35b634e487b7160e01b81526041600452602490fd5b634e487b7160e01b84526041600452602484fd5b634e487b7160e01b83526041600452602483fd5b5080fdfea2646970667358221220728da53f42fefc577dc4d49c4af81fc111721f3112e680eac7550959479b3cda64736f6c63430008140033","opcodes":"PUSH1 0x80 DUP1 PUSH1 0x40 MSTORE CALLVALUE PUSH2 0x15 JUMPI PUSH1 0xF5 SWAP1 DUP2 PUSH2 0x1B DUP3 CODECOPY RETURN JUMPDEST PUSH1 0x0 DUP1 REVERT INVALID PUSH1 0x80 PUSH1 0x4 CALLDATASIZE LT ISZERO PUSH1 0xE JUMPI PUSH1 0x0 DUP1 REVERT JUMPDEST PUSH1 0x0 SWAP1 DUP2 CALLDATALOAD PUSH1 0xE0 SHR PUSH4 0xDDFB54A9 EQ PUSH1 0x24 JUMPI PUSH1 0x0 DUP1 REVERT JUMPDEST DUP2 PUSH1 0x3 NOT CALLDATASIZE ADD SLT PUSH1 0xBB JUMPI PUSH8 0xFFFFFFFFFFFFFFFF SWAP1 DUP2 CALLDATASIZE GT PUSH1 0xA7 JUMPI PUSH1 0x1F NOT PUSH1 0x3F DUP2 PUSH1 0x1F CALLDATASIZE ADD AND ADD AND DUP2 ADD DUP2 DUP2 LT DUP4 DUP3 GT OR PUSH1 0x93 JUMPI DUP4 SWAP2 PUSH1 0x20 SWAP2 PUSH1 0x40 MSTORE CALLDATASIZE DUP2 MSTORE CALLDATASIZE DUP4 DUP4 DUP4 ADD CALLDATACOPY CALLDATASIZE ADD ADD MSTORE PUSH1 0x40 MLOAD PUSH1 0xA0 DUP2 ADD SWAP2 DUP3 GT SWAP2 LT OR PUSH1 0x7F JUMPI DUP1 RETURN JUMPDEST PUSH4 0x4E487B71 PUSH1 0xE0 SHL DUP2 MSTORE PUSH1 0x41 PUSH1 0x4 MSTORE PUSH1 0x24 SWAP1 REVERT JUMPDEST PUSH4 0x4E487B71 PUSH1 0xE0 SHL DUP5 MSTORE PUSH1 0x41 PUSH1 0x4 MSTORE PUSH1 0x24 DUP5 REVERT JUMPDEST PUSH4 0x4E487B71 PUSH1 0xE0 SHL DUP4 MSTORE PUSH1 0x41 PUSH1 0x4 MSTORE PUSH1 0x24 DUP4 REVERT JUMPDEST POP DUP1 REVERT INVALID LOG2 PUSH5 0x6970667358 0x22 SLT KECCAK256 PUSH19 0x8DA53F42FEFC577DC4D49C4AF81FC111721F31 SLT 0xE6 DUP1 0xEA 0xC7 SSTORE MULMOD MSIZE SELFBALANCE SWAP12 EXTCODECOPY 0xDA PUSH5 0x736F6C6343 STOP ADDMOD EQ STOP CALLER "},"methodIdentifiers":{"takeFlashLoan()":"ddfb54a9"}}}}}