{"contracts/ZeroCapitalArbTrader.sol":{"ZeroCapitalArbTrader":{"abi":[{"inputs":[{"internalType":"address payable","name":"_feeRecipient","type":"address"},{"internalType":"enum ZeroCapitalArbTrader.Network[]","name":"initialNetworks","type":"uint8[]"},{"internalType":"address[]","name":"poolProviders","type":"address[]"},{"internalType":"uint256[]","name":"liquidityScores","type":"uint256[]"}],"stateMutability":"nonpayable","type":"constructor"},{"anonymous":false,"inputs":[{"indexed":true,"internalType":"enum ZeroCapitalArbTrader.Network","name":"network","type":"uint8"},{"indexed":true,"internalType":"address","name":"token","type":"address"},{"indexed":false,"internalType":"uint256","name":"profit","type":"uint256"},{"indexed":false,"internalType":"uint256","name":"fee","type":"uint256"},{"indexed":false,"internalType":"string","name":"direction","type":"string"},{"indexed":false,"internalType":"uint256","name":"timestamp","type":"uint256"}],"name":"ArbitrageExecuted","type":"event"},{"anonymous":false,"inputs":[{"indexed":false,"internalType":"uint256","name":"newFee","type":"uint256"}],"name":"FeeUpdated","type":"event"},{"anonymous":false,"inputs":[{"indexed":true,"internalType":"enum ZeroCapitalArbTrader.Network","name":"network","type":"uint8"},{"indexed":false,"internalType":"address","name":"poolProvider","type":"address"},{"indexed":false,"internalType":"uint256","name":"liquidityScore","type":"uint256"}],"name":"NetworkUpdated","type":"event"},{"anonymous":false,"inputs":[{"indexed":false,"internalType":"bool","name":"status","type":"bool"}],"name":"Paused","type":"event"},{"anonymous":false,"inputs":[{"indexed":true,"internalType":"enum ZeroCapitalArbTrader.Network","name":"network","type":"uint8"},{"indexed":true,"internalType":"address","name":"token","type":"address"},{"indexed":false,"internalType":"uint256","name":"uniswapPrice","type":"uint256"},{"indexed":false,"internalType":"uint256","name":"sushiswapPrice","type":"uint256"},{"indexed":false,"internalType":"uint256","name":"priceDiff","type":"uint256"}],"name":"PriceData","type":"event"},{"anonymous":false,"inputs":[{"indexed":true,"internalType":"address","name":"token","type":"address"},{"indexed":false,"internalType":"bool","name":"status","type":"bool"}],"name":"TokenApproval","type":"event"},{"anonymous":false,"inputs":[{"indexed":true,"internalType":"enum ZeroCapitalArbTrader.Network","name":"network","type":"uint8"},{"indexed":true,"internalType":"address","name":"token","type":"address"},{"indexed":false,"internalType":"string","name":"reason","type":"string"}],"name":"TradeFailed","type":"event"},{"inputs":[],"name":"ADDRESSES_PROVIDER","outputs":[{"internalType":"contract IPoolAddressesProvider","name":"","type":"address"}],"stateMutability":"view","type":"function"},{"inputs":[],"name":"POOL","outputs":[{"internalType":"contract IPool","name":"","type":"address"}],"stateMutability":"view","type":"function"},{"inputs":[],"name":"SUSHISWAP_ROUTER","outputs":[{"internalType":"address","name":"","type":"address"}],"stateMutability":"view","type":"function"},{"inputs":[],"name":"UNISWAP_ROUTER","outputs":[{"internalType":"address","name":"","type":"address"}],"stateMutability":"view","type":"function"},{"inputs":[],"name":"WBTC","outputs":[{"internalType":"address","name":"","type":"address"}],"stateMutability":"view","type":"function"},{"inputs":[],"name":"WETH","outputs":[{"internalType":"address","name":"","type":"address"}],"stateMutability":"view","type":"function"},{"inputs":[{"internalType":"uint256","name":"","type":"uint256"}],"name":"activeNetworks","outputs":[{"internalType":"enum ZeroCapitalArbTrader.Network","name":"","type":"uint8"}],"stateMutability":"view","type":"function"},{"inputs":[{"internalType":"address","name":"token","type":"address"},{"internalType":"bool","name":"status","type":"bool"}],"name":"approveToken","outputs":[],"stateMutability":"nonpayable","type":"function"},{"inputs":[{"internalType":"address","name":"","type":"address"}],"name":"approvedTokens","outputs":[{"internalType":"bool","name":"","type":"bool"}],"stateMutability":"view","type":"function"},{"inputs":[{"internalType":"address[]","name":"assets","type":"address[]"},{"internalType":"uint256[]","name":"amounts","type":"uint256[]"},{"internalType":"uint256[]","name":"premiums","type":"uint256[]"},{"internalType":"address","name":"initiator","type":"address"},{"internalType":"bytes","name":"params","type":"bytes"}],"name":"executeOperation","outputs":[{"internalType":"bool","name":"","type":"bool"}],"stateMutability":"nonpayable","type":"function"},{"inputs":[{"internalType":"enum ZeroCapitalArbTrader.Network","name":"network","type":"uint8"},{"internalType":"address","name":"token","type":"address"},{"internalType":"uint256","name":"amount","type":"uint256"},{"internalType":"uint256","name":"maxSlippage","type":"uint256"},{"internalType":"bool","name":"buyUniswap","type":"bool"},{"internalType":"uint256","name":"deadline","type":"uint256"}],"name":"executeTrade","outputs":[{"internalType":"uint256","name":"","type":"uint256"}],"stateMutability":"nonpayable","type":"function"},{"inputs":[],"name":"feePercentage","outputs":[{"internalType":"uint256","name":"","type":"uint256"}],"stateMutability":"view","type":"function"},{"inputs":[],"name":"feeRecipient","outputs":[{"internalType":"address payable","name":"","type":"address"}],"stateMutability":"view","type":"function"},{"inputs":[{"internalType":"address","name":"token","type":"address"}],"name":"getProfit","outputs":[{"internalType":"uint256","name":"","type":"uint256"}],"stateMutability":"view","type":"function"},{"inputs":[{"internalType":"address","name":"token","type":"address"}],"name":"isTokenApproved","outputs":[{"internalType":"bool","name":"","type":"bool"}],"stateMutability":"view","type":"function"},{"inputs":[],"name":"minProfitThreshold","outputs":[{"internalType":"uint256","name":"","type":"uint256"}],"stateMutability":"view","type":"function"},{"inputs":[{"internalType":"enum ZeroCapitalArbTrader.Network","name":"","type":"uint8"}],"name":"networkConfigs","outputs":[{"internalType":"address","name":"poolProvider","type":"address"},{"internalType":"uint256","name":"liquidityScore","type":"uint256"},{"internalType":"bool","name":"active","type":"bool"}],"stateMutability":"view","type":"function"},{"inputs":[],"name":"owner","outputs":[{"internalType":"address payable","name":"","type":"address"}],"stateMutability":"view","type":"function"},{"inputs":[],"name":"paused","outputs":[{"internalType":"bool","name":"","type":"bool"}],"stateMutability":"view","type":"function"},{"inputs":[{"internalType":"address","name":"","type":"address"}],"name":"profits","outputs":[{"internalType":"uint256","name":"","type":"uint256"}],"stateMutability":"view","type":"function"},{"inputs":[{"internalType":"uint256","name":"_fee","type":"uint256"}],"name":"setFeePercentage","outputs":[],"stateMutability":"nonpayable","type":"function"},{"inputs":[{"internalType":"uint256","name":"_threshold","type":"uint256"}],"name":"setMinProfitThreshold","outputs":[],"stateMutability":"nonpayable","type":"function"},{"inputs":[{"internalType":"bool","name":"_paused","type":"bool"}],"name":"setPaused","outputs":[],"stateMutability":"nonpayable","type":"function"},{"inputs":[{"internalType":"enum ZeroCapitalArbTrader.Network","name":"network","type":"uint8"},{"internalType":"address","name":"poolProvider","type":"address"},{"internalType":"uint256","name":"liquidityScore","type":"uint256"},{"internalType":"bool","name":"active","type":"bool"}],"name":"updateNetwork","outputs":[],"stateMutability":"nonpayable","type":"function"},{"inputs":[{"internalType":"address","name":"token","type":"address"}],"name":"withdraw","outputs":[],"stateMutability":"nonpayable","type":"function"},{"stateMutability":"payable","type":"receive"}],"evm":{"bytecode":{"linkReferences":{},"object":"60c08060405234620005085762002572803803809162000020828562000543565b8339810190608081830312620005085780516001600160a01b0381169290839003620005085760208201516001600160401b038111620005085782019281601f8501121562000508578351620000768162000567565b9462000086604051968762000543565b81865260208087019260051b820101908482116200050857602001915b818310620005285750505060408301516001600160401b038111620005085783019282601f850112156200050857835190620000df8262000567565b94620000ef604051968762000543565b828652602086016020819460051b830101918683116200050857602001905b8282106200050d575050506060810151906001600160401b0382116200050857019280601f8501121562000508578351620001498162000567565b9462000159604051968762000543565b81865260208087019260051b8201019283116200050857602001905b828210620004f7575050508351156200040f57516001600160a01b0316608081905260405163026b1d5f60e01b815290602090829060049082905afa908115620004eb57600091620004a6575b506001600160a01b031660a05267016345785d8a000060025560646003558351835190811490816200049a575b50156200046457600080546001600160a01b031990811633178255600180549091169290921782556005919091555b83518110156200043b576001600160a01b036200023c828562000594565b51166200024a828462000594565b51604051916001600160401b0360608401908111908411176200042557606083016040528252602082015260016040820152620002926200028c838762000594565b620005a9565b6007811015620003f9576000526008602052604060028160002060018060a01b0384511660018060a01b03198254161781556020840151600182015501910151151560ff80198354169116179055620002f06200028c828662000594565b6009549068010000000000000000821015620004255760018201806009558210156200040f5760096000527f6e1540171b6c0c960b71a7020d9f60077f6af931a8bbf590da0223dacf75c7af6007821015620003f9578260051c019160ff8060f885549360031b169316831b921b1916179055620003736200028c828662000594565b6001600160a01b0362000387838662000594565b511662000395838562000594565b516007831015620003f9577fd3ce3f3c18a4555514f2e4c62b481eda4b7c83c447e089cc8362c4075203f3929160409182519182526020820152a26000198114620003e3576001016200021e565b634e487b7160e01b600052601160045260246000fd5b634e487b7160e01b600052602160045260246000fd5b634e487b7160e01b600052603260045260246000fd5b634e487b7160e01b600052604160045260246000fd5b604051611fba9081620005b8823960805181610fa0015260a0518181816109e801526113c20152f35b60405162461bcd60e51b815260206004820152600e60248201526d082e4e4c2f240dad2e6dac2e8c6d60931b6044820152606490fd5b905082511438620001ef565b906020823d602011620004e2575b81620004c36020938362000543565b81010312620004df5750620004d8906200057f565b38620001c2565b80fd5b3d9150620004b4565b6040513d6000823e3d90fd5b815181526020918201910162000175565b600080fd5b602080916200051c846200057f565b8152019101906200010e565b825160078110156200050857815260209283019201620000a3565b601f909101601f19168101906001600160401b038211908210176200042557604052565b6001600160401b038111620004255760051b60200190565b51906001600160a01b03821682036200050857565b80518210156200040f5760209160051b010190565b516007811015620003f9579056fe608080604052600436101561001d575b50361561001b57600080fd5b005b60003560e01c9081630542975c14610f8d5750806305c4746014610d365780630c0e0cef14610ca657806316c38b3c14610c375780631e9c47c614610bf3578063277754ed14610bc45780634690484014610b9b5780634dede3de14610b6c57806351cff8d914610a585780635c975abb14610a355780636d1ea3fa146108495780637341ab8c14610a175780637535d246146109d25780638da5cb5b146109a9578063920f5c84146108885780639d93d35214610849578063a001ecdd1461082b578063ad5c4648146107fc578063ae06c1b714610799578063c02864651461076b578063c600e1dc14610731578063cc85f08014610731578063d826492014610702578063df564196146106ad5763f8242f1a1461013d573861000f565b346106a85760c03660031901126106a857600760043510156106a857610161610fcf565b60843580151581036106a85761017b6001600554146110a5565b600260055530330361066e576040516060810181811067ffffffffffffffff82111761065857604052600281526040366020830137811561063d578273c02aaa39b223fe8d0a0e5c4f27ead9083c756cc25b6101d683611dc6565b6001600160a01b0390911690526101ec82611dd6565b6001600160a01b039091169052811561062257737a250d5630b4cf539739df2c5dacb4c659f2488d915b156106075773d9e1ce17f2641f24ae83637ab66a2cca9c378b9f925b60405163d06ca61f60e01b81526044356004820152604060248201526000818061025f6044820187611e5f565b03816001600160a01b0388165afa801561054457610285916000916105ec575b50611dc6565b516127106064358103116105d6576102a56127109160643583039061165d565b60405163095ea7b360e01b81526001600160a01b03868116600483015260448035602484015293909204959093909260209285928391600091165af190811561054457600094859361031d936105b7575b506040519586809481936338ed173960e01b835260a4359089309160443560048701611e9c565b03926001600160a01b03165af19182156105445760009261059a575b506001600160a01b0361034b82611dc6565b51166001600160a01b0361035e83611dd6565b511661036983611dc6565b5261037382611dd6565b5261037d82611dc6565b51926040519363d06ca61f60e01b8552600485015260406024850152600084806103aa6044820186611e5f565b6001600160a01b03909416930381845afa8015610544576103e9612710916104279660009161057f575b506103e3606435840391611dc6565b5161165d565b049160206103f685611dc6565b5160405163095ea7b360e01b81526001600160a01b0385166004820152602481019190915295869081906044820190565b0381600073c02aaa39b223fe8d0a0e5c4f27ead9083c756cc25af19485156105445761045f6000958692610484986105505750611dc6565b516040516338ed173960e01b81529687958694859360a4359230929160048701611e9c565b03925af190811561054457600091610521575b506044356104a482611dc6565b511115610519576104c1906104bb60443591611dc6565b51611650565b6002548111156104db576020906001600555604051908152f35b60405162461bcd60e51b8152602060048201526016602482015275141c9bd99a5d0818995b1bddc81d1a1c995cda1bdb1960521b6044820152606490fd5b5060006104c1565b61053e91503d806000833e6105368183611124565b810190611de3565b38610497565b6040513d6000823e3d90fd5b6105719060203d602011610578575b6105698183611124565b810190611146565b503861027f565b503d61055f565b61059491503d806000833e6105368183611124565b386103d4565b6105b09192503d806000833e6105368183611124565b9038610339565b6105cf9060203d602011610578576105698183611124565b50386102f6565b634e487b7160e01b600052601160045260246000fd5b61060191503d806000833e6105368183611124565b3861027f565b737a250d5630b4cf539739df2c5dacb4c659f2488d92610232565b73d9e1ce17f2641f24ae83637ab66a2cca9c378b9f91610216565b73c02aaa39b223fe8d0a0e5c4f27ead9083c756cc2836101cd565b634e487b7160e01b600052604160045260246000fd5b60405162461bcd60e51b8152602060048201526012602482015271496e7465726e616c2063616c6c206f6e6c7960701b6044820152606490fd5b600080fd5b346106a85760203660031901126106a85760043560078110156106a8576106d560609161108c565b60018060a01b038154169060ff600260018301549201541690604051928352602083015215156040820152f35b346106a85760003660031901126106a8576020604051737a250d5630b4cf539739df2c5dacb4c659f2488d8152f35b346106a85760203660031901126106a8576001600160a01b03610752610fe5565b1660005260066020526020604060002054604051908152f35b346106a85760203660031901126106a85761079160018060a01b03600054163314611ed5565b600435600255005b346106a85760203660031901126106a8576004356107c260018060a01b03600054163314611ed5565b6103e881116106a8576020817f8c4d35e54a3f2ef1134138fd8ea3daee6a3c89e10d2665996babdf70261e2c7692600355604051908152a1005b346106a85760003660031901126106a857602060405173c02aaa39b223fe8d0a0e5c4f27ead9083c756cc28152f35b346106a85760003660031901126106a8576020600354604051908152f35b346106a85760203660031901126106a8576001600160a01b0361086a610fe5565b166000526007602052602060ff604060002054166040519015158152f35b346106a85760a03660031901126106a85767ffffffffffffffff6004358181116106a8576108ba90369060040161105b565b916024358181116106a8576108d390369060040161105b565b6044939193358381116106a8576108ee90369060040161105b565b606435929091906001600160a01b03841684036106a857608435968688116106a857366023890112156106a85787600401359687116106a857366024888a0101116106a8576109416001600554146110a5565b600260055560ff6004541661096f57602098602461096099019661117d565b60016005556040519015158152f35b60405162461bcd60e51b815260206004820152601260248201527110dbdb9d1c9858dd081a5cc81c185d5cd95960721b6044820152606490fd5b346106a85760003660031901126106a8576000546040516001600160a01b039091168152602090f35b346106a85760003660031901126106a8576040517f00000000000000000000000000000000000000000000000000000000000000006001600160a01b03168152602090f35b346106a85760003660031901126106a8576020600254604051908152f35b346106a85760003660031901126106a857602060ff600454166040519015158152f35b346106a8576020806003193601126106a857610a72610fe5565b6000546001600160a01b039291908316908390610a90338414611ed5565b169081610ab557505050479081156106a8576000808093819382541682f11561054457005b6040516370a0823160e01b815230600482015292935090918381602481865afa90811561054457600091610b3f575b5080156106a85760405163a9059cbb60e01b81526001600160a01b039290921660048301526024820152908290829060449082906000905af1801561054457610b2957005b8161001b92903d10610578576105698183611124565b90508381813d8311610b65575b610b568183611124565b810103126106a8575184610ae4565b503d610b4c565b346106a85760003660031901126106a8576020604051732260fac5e5542a773aa44fbcfedf7c193bc2c5998152f35b346106a85760003660031901126106a8576001546040516001600160a01b039091168152602090f35b346106a85760003660031901126106a857602060405173d9e1ce17f2641f24ae83637ab66a2cca9c378b9f8152f35b346106a85760203660031901126106a8576004356009548110156106a857610c35610c1f602092610ffb565b9190549160ff60405193849260031b1c1661104e565bf35b346106a85760203660031901126106a8576004358015158091036106a85760207f0e2fb031ee032dc02d8011dc50b816eb450cf856abd8261680dac74f72165bd291610c8e60018060a01b03600054163314611ed5565b60ff196004541660ff821617600455604051908152a1005b346106a85760403660031901126106a857610cbf610fe5565b60243590811515908183036106a8577f3beb044d3b23b475a7a8e337d1f11e8df3faa1508a2a22b21fb4e021d1d6edb991610d2d60209260018060a01b0390610d0d82600054163314611ed5565b1694856000526007845260406000209060ff801983541691151516179055565b604051908152a2005b346106a85760803660031901126106a857600435600780821015806106a857610d5d610fcf565b90604435906064359384158015958681036106a8576000546001600160a01b0390610d8b9082163314611ed5565b6040516060810181811067ffffffffffffffff82111761065857610e0492600291604052808a1683526020830190898252604084019b8c52610dcc8d61108c565b9351166bffffffffffffffffffffffff60a01b845416178355519960019a8b84015551151591019060ff801983541691151516179055565b80610f7d575b15610e9a5750509091926009546801000000000000000081101561065857610e3b81610e4193889301600955610ffb565b90611f0d565b610e8457604080516001600160a01b0393909316835260208301919091527fd3ce3f3c18a4555514f2e4c62b481eda4b7c83c447e089cc8362c4075203f39291a2005b634e487b7160e01b600052602160045260246000fd5b610ea9575b5090919250610e41565b6000855b610eb8575b50610e9f565b600980549081831015610f7657610ece83610ffb565b928660ff809354600396871b1c1690610e845786811015610e84578b14610f025750505050610efc90611516565b85610ead565b91945092919495969750600019918282019182116105d657610e3b84610f2a610f3794610ffb565b905490891b1c1691610ffb565b82548015610f60570192610f4a84610ffb565b81939154921b1b19169055559082918580610eb2565b634e487b7160e01b600052603160045260246000fd5b5050610eb2565b50610f8787611f2e565b15610e0a565b346106a85760003660031901126106a8577f00000000000000000000000000000000000000000000000000000000000000006001600160a01b03168152602090f35b602435906001600160a01b03821682036106a857565b600435906001600160a01b03821682036106a857565b90600954821015611038576009600052601f8260051c7f6e1540171b6c0c960b71a7020d9f60077f6af931a8bbf590da0223dacf75c7af01921690565b634e487b7160e01b600052603260045260246000fd5b906007821015610e845752565b9181601f840112156106a85782359167ffffffffffffffff83116106a8576020808501948460051b0101116106a857565b6007811015610e84576000526008602052604060002090565b156110ac57565b60405162461bcd60e51b81526020600482015260136024820152721499595b9d1c985b98de4819195d1958dd1959606a1b6044820152606490fd5b356001600160a01b03811681036106a85790565b919082018092116105d657565b6040810190811067ffffffffffffffff82111761065857604052565b90601f8019910116810190811067ffffffffffffffff82111761065857604052565b908160209103126106a8575180151581036106a85790565b908160209103126106a857516001600160a01b03811681036106a85790565b91959097969392949660018060a01b039182309116036114dd5760018914806114b5575b156114805784606091810103126106a857833595602096878601359060408097013560078110156106a8576103e882111580611476575b15611441576111e690611525565b60ff60026111f38361108c565b0154161561131d57899a9b6004969798999a8661120f8461108c565b54168b519889809263026b1d5f60e01b82525afa968715611312576000976112e3575b501561103857611241876110e7565b9915611038576112549335998a91611722565b9715611038576000816112766112706112aa998b9835906110fb565b956110e7565b169286519788958694859363095ea7b360e01b8552166004840160209093929193604081019460018060a01b031681520152565b03925af19081156112d957506112bf57505090565b816112d592903d10610578576105698183611124565b5090565b513d6000823e3d90fd5b6113049197508c8d3d1061130b575b6112fc8183611124565b81019061115e565b9538611232565b503d6112f2565b8a513d6000823e3d90fd5b92979599949396989a9150501561103857611337826110e7565b916007821015610e845789611397927f7adee99c99d1c2bf46dc1ed8d09351255600d53b862471fbd3a741e71627833160608980976f4e6574776f726b20696e61637469766560801b8e6010815198808a528901528701521693a36110e7565b1691156110385715611038576113b4869361140b963590356110fb565b845163095ea7b360e01b81527f0000000000000000000000000000000000000000000000000000000000000000939093166001600160a01b0316600484015260248301529093849190829060009082906044820190565b03925af19081156112d95750611423575b5050600190565b8161143992903d10610578576105698183611124565b50388061141c565b875162461bcd60e51b8152600481018b9052600e60248201526d496e76616c696420706172616d7360901b6044820152606490fd5b50428310156111d8565b60405162461bcd60e51b815260206004820152600d60248201526c125b9d985b1a5908185cdcd95d609a1b6044820152606490fd5b50881561103857816114c6846110e7565b16600052600760205260ff604060002054166111a1565b60405162461bcd60e51b815260206004820152601160248201527024b73b30b634b21034b734ba34b0ba37b960791b6044820152606490fd5b60001981146105d65760010190565b60ff9060029082826115368361108c565b0154168061163a575b6116345750600954908115611038576009600052827f6e1540171b6c0c960b71a7020d9f60077f6af931a8bbf590da0223dacf75c7af541692600191826115858661108c565b015490835b85811061159a5750505050505090565b8380836115b86115a985610ffb565b949054600395861b1c1661108c565b01541680611610575b6115d5575b506115d090611516565b61158a565b965091506115d08461160785806115eb87610ffb565b9054908c1b1c16996115fc87610ffb565b9054911b1c1661108c565b015492906115c6565b50838661162c8761162086610ffb565b905490861b1c1661108c565b0154116115c1565b91505090565b50603260016116488361108c565b01541161153f565b919082039182116105d657565b818102929181159184041417156105d657565b919082519283825260005b84811061169c575050826000602080949584010152601f8019910116010190565b60208183018101518483018201520161167b565b600060443d1061170e57604051600319913d83016004833e815167ffffffffffffffff918282113d60248401111761171157818401948551938411611719573d85010160208487010111611711575061170e92910160200190611124565b90565b949350505050565b50949350505050565b6040805163c45a015560e01b8082529196600496602096929592919087878a81737a250d5630b4cf539739df2c5dacb4c659f2488d5afa96871561131257600097611c82575b5089519363e6a4390560e01b9485815273c02aaa39b223fe8d0a0e5c4f27ead9083c756cc295868c830152600160a01b60019003978b838a8087169d8e602484015216815a91604492fa928315611c58578d918f8e92600096611c63575b505192839182528173d9e1ce17f2641f24ae83637ab66a2cca9c378b9f5afa908115611c58578c928f8f938e8d92604495600093611c39575b50519c8d96879586528501526024840152165afa958615611c2e57600096611c03575b50906118318161183793611cb5565b95611cb5565b9380158015611bfb575b611b875784811115611b78576118578582611650565b6007881015611b6357877f49b39efa4ab9d7d4b92b75847d3ff610c9442309ed1fcb0908bded9e5a74cd5360608c8f94858b8f975193898552840152820152a3808511948515611b5557906118ab91611650565b600254106118c3575b50505050505050505050600190565b8951637c12178d60e11b8152926118dc8a85018861104e565b8760248501526044840152606483015282608483015260a4820152858160c4816000305af160009181611b23575b506119ae5750505060019360009060033d116119a1575b506308c379a014611945575b5050506112d957505b388080808080808080806118b4565b61194d6116b0565b80611959575b5061192d565b7f7adee99c99d1c2bf46dc1ed8d09351255600d53b862471fbd3a741e71627833191929394506000946119958751928284938452830190611670565b0390a338808080611953565b81803e5160e01c38611921565b80979294979693966119c8575b5050505050505050611936565b856119e6946127106119dc6003548561165d565b0495868094611650565b968a60005260068352856000206119fe8982546110fb565b9055600154865163a9059cbb60e01b815291166001600160a01b0316918101918252602082019390935282908190604001038160008c5af18015611b1857927faaa3a601b5615a15721d3d042daa78a00501f9520ffc0dd062e1a207b278046d96959492608092611ab695611afb575b5015611acc578051611a7f81611108565b601281527142757920556e692053656c6c20537573686960701b87820152925b815196879687528601528401526080830190611670565b4260608301520390a338808080808080806119bb565b8051611ad781611108565b60128152714275792053757368692053656c6c20556e6960701b8782015292611a9f565b611b1190883d8a11610578576105698183611124565b5038611a6e565b83513d6000823e3d90fd5b90918782813d8311611b4e575b611b3a8183611124565b81010312611b4b575051903861190a565b80fd5b503d611b30565b611b5e91611650565b6118ab565b60218b634e487b7160e01b6000525260246000fd5b611b828186611650565b611857565b505050505050926007849592951015611be657507f7adee99c99d1c2bf46dc1ed8d09351255600d53b862471fbd3a741e716278331916d496e76616c69642070726963657360901b82600e6060945193808552840152820152a3600190565b602190634e487b7160e01b6000525260246000fd5b508415611841565b8261183793929750611c24611831928d803d1061130b576112fc8183611124565b9792509250611822565b8c513d6000823e3d90fd5b611c51919350883d8a1161130b576112fc8183611124565b91386117ff565b8e513d6000823e3d90fd5b611c7b919650833d851161130b576112fc8183611124565b94386117c6565b611c9a919750883d8a1161130b576112fc8183611124565b9538611768565b51906001600160701b03821682036106a857565b6001600160a01b03908116908115611dbe57606060049260405193848092630240bc6b60e21b82525afa918215610544576000908193611d66575b506001600160701b038091169216921673c02aaa39b223fe8d0a0e5c4f27ead9083c756cc210600014611d60575b600082611d2d57505050600090565b670de0b6b3a764000091828102928184041490151715611d4c57500490565b634e487b7160e01b81526011600452602490fd5b90611d1e565b92506060833d8211611db6575b81611d8060609383611124565b81010312611b4b57611d9183611ca1565b906040611da060208601611ca1565b94015163ffffffff811603611b4b575038611cf0565b3d9150611d73565b505050600090565b8051600110156110385760400190565b8051156110385760200190565b9060209081838203126106a857825167ffffffffffffffff938482116106a8570181601f820112156106a8578051938411610658578360051b9060405194611e2d85840187611124565b855283808601928201019283116106a8578301905b828210611e50575050505090565b81518152908301908301611e42565b90815180825260208080930193019160005b828110611e7f575050505090565b83516001600160a01b031685529381019392810192600101611e71565b9192608093611ec192979695978452602084015260a0604084015260a0830190611e5f565b6001600160a01b0390951660608201520152565b15611edc57565b60405162461bcd60e51b81526020600482015260096024820152682737ba1037bbb732b960b91b6044820152606490fd5b91906007821015610e845760ff8084549260031b9316831b921b1916179055565b6009549060005b828110611f4457505050600090565b60ff611f4f82610ffb565b90549060031b1c16600780841015610e8457811015610e84578214611f7c57611f7790611516565b611f35565b50505060019056fea2646970667358221220c4e70622bb6ba8332fc98d69590ec6587137d99b978b203290bc98a235009d8664736f6c63430008140033","opcodes":"PUSH1 0xC0 DUP1 PUSH1 0x40 MSTORE CALLVALUE PUSH3 0x508 JUMPI PUSH3 0x2572 DUP1 CODESIZE SUB DUP1 SWAP2 PUSH3 0x20 DUP3 DUP6 PUSH3 0x543 JUMP JUMPDEST DUP4 CODECOPY DUP2 ADD SWAP1 PUSH1 0x80 DUP2 DUP4 SUB SLT PUSH3 0x508 JUMPI DUP1 MLOAD PUSH1 0x1 PUSH1 0x1 PUSH1 0xA0 SHL SUB DUP2 AND SWAP3 SWAP1 DUP4 SWAP1 SUB PUSH3 0x508 JUMPI PUSH1 0x20 DUP3 ADD MLOAD PUSH1 0x1 PUSH1 0x1 PUSH1 0x40 SHL SUB DUP2 GT PUSH3 0x508 JUMPI DUP3 ADD SWAP3 DUP2 PUSH1 0x1F DUP6 ADD SLT ISZERO PUSH3 0x508 JUMPI DUP4 MLOAD PUSH3 0x76 DUP2 PUSH3 0x567 JUMP JUMPDEST SWAP5 PUSH3 0x86 PUSH1 0x40 MLOAD SWAP7 DUP8 PUSH3 0x543 JUMP JUMPDEST DUP2 DUP7 MSTORE PUSH1 0x20 DUP1 DUP8 ADD SWAP3 PUSH1 0x5 SHL DUP3 ADD ADD SWAP1 DUP5 DUP3 GT PUSH3 0x508 JUMPI PUSH1 0x20 ADD SWAP2 JUMPDEST DUP2 DUP4 LT PUSH3 0x528 JUMPI POP POP POP PUSH1 0x40 DUP4 ADD MLOAD PUSH1 0x1 PUSH1 0x1 PUSH1 0x40 SHL SUB DUP2 GT PUSH3 0x508 JUMPI DUP4 ADD SWAP3 DUP3 PUSH1 0x1F DUP6 ADD SLT ISZERO PUSH3 0x508 JUMPI DUP4 MLOAD SWAP1 PUSH3 0xDF DUP3 PUSH3 0x567 JUMP JUMPDEST SWAP5 PUSH3 0xEF PUSH1 0x40 MLOAD SWAP7 DUP8 PUSH3 0x543 JUMP JUMPDEST DUP3 DUP7 MSTORE PUSH1 0x20 DUP7 ADD PUSH1 0x20 DUP2 SWAP5 PUSH1 0x5 SHL DUP4 ADD ADD SWAP2 DUP7 DUP4 GT PUSH3 0x508 JUMPI PUSH1 0x20 ADD SWAP1 JUMPDEST DUP3 DUP3 LT PUSH3 0x50D JUMPI POP POP POP PUSH1 0x60 DUP2 ADD MLOAD SWAP1 PUSH1 0x1 PUSH1 0x1 PUSH1 0x40 SHL SUB DUP3 GT PUSH3 0x508 JUMPI ADD SWAP3 DUP1 PUSH1 0x1F DUP6 ADD SLT ISZERO PUSH3 0x508 JUMPI DUP4 MLOAD PUSH3 0x149 DUP2 PUSH3 0x567 JUMP JUMPDEST SWAP5 PUSH3 0x159 PUSH1 0x40 MLOAD SWAP7 DUP8 PUSH3 0x543 JUMP JUMPDEST DUP2 DUP7 MSTORE PUSH1 0x20 DUP1 DUP8 ADD SWAP3 PUSH1 0x5 SHL DUP3 ADD ADD SWAP3 DUP4 GT PUSH3 0x508 JUMPI PUSH1 0x20 ADD SWAP1 JUMPDEST DUP3 DUP3 LT PUSH3 0x4F7 JUMPI POP POP POP DUP4 MLOAD ISZERO PUSH3 0x40F JUMPI MLOAD PUSH1 0x1 PUSH1 0x1 PUSH1 0xA0 SHL SUB AND PUSH1 0x80 DUP2 SWAP1 MSTORE PUSH1 0x40 MLOAD PUSH4 0x26B1D5F PUSH1 0xE0 SHL DUP2 MSTORE SWAP1 PUSH1 0x20 SWAP1 DUP3 SWAP1 PUSH1 0x4 SWAP1 DUP3 SWAP1 GAS STATICCALL SWAP1 DUP2 ISZERO PUSH3 0x4EB JUMPI PUSH1 0x0 SWAP2 PUSH3 0x4A6 JUMPI JUMPDEST POP PUSH1 0x1 PUSH1 0x1 PUSH1 0xA0 SHL SUB AND PUSH1 0xA0 MSTORE PUSH8 0x16345785D8A0000 PUSH1 0x2 SSTORE PUSH1 0x64 PUSH1 0x3 SSTORE DUP4 MLOAD DUP4 MLOAD SWAP1 DUP2 EQ SWAP1 DUP2 PUSH3 0x49A JUMPI JUMPDEST POP ISZERO PUSH3 0x464 JUMPI PUSH1 0x0 DUP1 SLOAD PUSH1 0x1 PUSH1 0x1 PUSH1 0xA0 SHL SUB NOT SWAP1 DUP2 AND CALLER OR DUP3 SSTORE PUSH1 0x1 DUP1 SLOAD SWAP1 SWAP2 AND SWAP3 SWAP1 SWAP3 OR DUP3 SSTORE PUSH1 0x5 SWAP2 SWAP1 SWAP2 SSTORE JUMPDEST DUP4 MLOAD DUP2 LT ISZERO PUSH3 0x43B JUMPI PUSH1 0x1 PUSH1 0x1 PUSH1 0xA0 SHL SUB PUSH3 0x23C DUP3 DUP6 PUSH3 0x594 JUMP JUMPDEST MLOAD AND PUSH3 0x24A DUP3 DUP5 PUSH3 0x594 JUMP JUMPDEST MLOAD PUSH1 0x40 MLOAD SWAP2 PUSH1 0x1 PUSH1 0x1 PUSH1 0x40 SHL SUB PUSH1 0x60 DUP5 ADD SWAP1 DUP2 GT SWAP1 DUP5 GT OR PUSH3 0x425 JUMPI PUSH1 0x60 DUP4 ADD PUSH1 0x40 MSTORE DUP3 MSTORE PUSH1 0x20 DUP3 ADD MSTORE PUSH1 0x1 PUSH1 0x40 DUP3 ADD MSTORE PUSH3 0x292 PUSH3 0x28C DUP4 DUP8 PUSH3 0x594 JUMP JUMPDEST PUSH3 0x5A9 JUMP JUMPDEST PUSH1 0x7 DUP2 LT ISZERO PUSH3 0x3F9 JUMPI PUSH1 0x0 MSTORE PUSH1 0x8 PUSH1 0x20 MSTORE PUSH1 0x40 PUSH1 0x2 DUP2 PUSH1 0x0 KECCAK256 PUSH1 0x1 DUP1 PUSH1 0xA0 SHL SUB DUP5 MLOAD AND PUSH1 0x1 DUP1 PUSH1 0xA0 SHL SUB NOT DUP3 SLOAD AND OR DUP2 SSTORE PUSH1 0x20 DUP5 ADD MLOAD PUSH1 0x1 DUP3 ADD SSTORE ADD SWAP2 ADD MLOAD ISZERO ISZERO PUSH1 0xFF DUP1 NOT DUP4 SLOAD AND SWAP2 AND OR SWAP1 SSTORE PUSH3 0x2F0 PUSH3 0x28C DUP3 DUP7 PUSH3 0x594 JUMP JUMPDEST PUSH1 0x9 SLOAD SWAP1 PUSH9 0x10000000000000000 DUP3 LT ISZERO PUSH3 0x425 JUMPI PUSH1 0x1 DUP3 ADD DUP1 PUSH1 0x9 SSTORE DUP3 LT ISZERO PUSH3 0x40F JUMPI PUSH1 0x9 PUSH1 0x0 MSTORE PUSH32 0x6E1540171B6C0C960B71A7020D9F60077F6AF931A8BBF590DA0223DACF75C7AF PUSH1 0x7 DUP3 LT ISZERO PUSH3 0x3F9 JUMPI DUP3 PUSH1 0x5 SHR ADD SWAP2 PUSH1 0xFF DUP1 PUSH1 0xF8 DUP6 SLOAD SWAP4 PUSH1 0x3 SHL AND SWAP4 AND DUP4 SHL SWAP3 SHL NOT AND OR SWAP1 SSTORE PUSH3 0x373 PUSH3 0x28C DUP3 DUP7 PUSH3 0x594 JUMP JUMPDEST PUSH1 0x1 PUSH1 0x1 PUSH1 0xA0 SHL SUB PUSH3 0x387 DUP4 DUP7 PUSH3 0x594 JUMP JUMPDEST MLOAD AND PUSH3 0x395 DUP4 DUP6 PUSH3 0x594 JUMP JUMPDEST MLOAD PUSH1 0x7 DUP4 LT ISZERO PUSH3 0x3F9 JUMPI PUSH32 0xD3CE3F3C18A4555514F2E4C62B481EDA4B7C83C447E089CC8362C4075203F392 SWAP2 PUSH1 0x40 SWAP2 DUP3 MLOAD SWAP2 DUP3 MSTORE PUSH1 0x20 DUP3 ADD MSTORE LOG2 PUSH1 0x0 NOT DUP2 EQ PUSH3 0x3E3 JUMPI PUSH1 0x1 ADD PUSH3 0x21E JUMP JUMPDEST PUSH4 0x4E487B71 PUSH1 0xE0 SHL PUSH1 0x0 MSTORE PUSH1 0x11 PUSH1 0x4 MSTORE PUSH1 0x24 PUSH1 0x0 REVERT JUMPDEST PUSH4 0x4E487B71 PUSH1 0xE0 SHL PUSH1 0x0 MSTORE PUSH1 0x21 PUSH1 0x4 MSTORE PUSH1 0x24 PUSH1 0x0 REVERT JUMPDEST PUSH4 0x4E487B71 PUSH1 0xE0 SHL PUSH1 0x0 MSTORE PUSH1 0x32 PUSH1 0x4 MSTORE PUSH1 0x24 PUSH1 0x0 REVERT JUMPDEST PUSH4 0x4E487B71 PUSH1 0xE0 SHL PUSH1 0x0 MSTORE PUSH1 0x41 PUSH1 0x4 MSTORE PUSH1 0x24 PUSH1 0x0 REVERT JUMPDEST PUSH1 0x40 MLOAD PUSH2 0x1FBA SWAP1 DUP2 PUSH3 0x5B8 DUP3 CODECOPY PUSH1 0x80 MLOAD DUP2 PUSH2 0xFA0 ADD MSTORE PUSH1 0xA0 MLOAD DUP2 DUP2 DUP2 PUSH2 0x9E8 ADD MSTORE PUSH2 0x13C2 ADD MSTORE RETURN JUMPDEST PUSH1 0x40 MLOAD PUSH3 0x461BCD PUSH1 0xE5 SHL DUP2 MSTORE PUSH1 0x20 PUSH1 0x4 DUP3 ADD MSTORE PUSH1 0xE PUSH1 0x24 DUP3 ADD MSTORE PUSH14 0x82E4E4C2F240DAD2E6DAC2E8C6D PUSH1 0x93 SHL PUSH1 0x44 DUP3 ADD MSTORE PUSH1 0x64 SWAP1 REVERT JUMPDEST SWAP1 POP DUP3 MLOAD EQ CODESIZE PUSH3 0x1EF JUMP JUMPDEST SWAP1 PUSH1 0x20 DUP3 RETURNDATASIZE PUSH1 0x20 GT PUSH3 0x4E2 JUMPI JUMPDEST DUP2 PUSH3 0x4C3 PUSH1 0x20 SWAP4 DUP4 PUSH3 0x543 JUMP JUMPDEST DUP2 ADD SUB SLT PUSH3 0x4DF JUMPI POP PUSH3 0x4D8 SWAP1 PUSH3 0x57F JUMP JUMPDEST CODESIZE PUSH3 0x1C2 JUMP JUMPDEST DUP1 REVERT JUMPDEST RETURNDATASIZE SWAP2 POP PUSH3 0x4B4 JUMP JUMPDEST PUSH1 0x40 MLOAD RETURNDATASIZE PUSH1 0x0 DUP3 RETURNDATACOPY RETURNDATASIZE SWAP1 REVERT JUMPDEST DUP2 MLOAD DUP2 MSTORE PUSH1 0x20 SWAP2 DUP3 ADD SWAP2 ADD PUSH3 0x175 JUMP JUMPDEST PUSH1 0x0 DUP1 REVERT JUMPDEST PUSH1 0x20 DUP1 SWAP2 PUSH3 0x51C DUP5 PUSH3 0x57F JUMP JUMPDEST DUP2 MSTORE ADD SWAP2 ADD SWAP1 PUSH3 0x10E JUMP JUMPDEST DUP3 MLOAD PUSH1 0x7 DUP2 LT ISZERO PUSH3 0x508 JUMPI DUP2 MSTORE PUSH1 0x20 SWAP3 DUP4 ADD SWAP3 ADD PUSH3 0xA3 JUMP JUMPDEST PUSH1 0x1F SWAP1 SWAP2 ADD PUSH1 0x1F NOT AND DUP2 ADD SWAP1 PUSH1 0x1 PUSH1 0x1 PUSH1 0x40 SHL SUB DUP3 GT SWAP1 DUP3 LT OR PUSH3 0x425 JUMPI PUSH1 0x40 MSTORE JUMP JUMPDEST PUSH1 0x1 PUSH1 0x1 PUSH1 0x40 SHL SUB DUP2 GT PUSH3 0x425 JUMPI PUSH1 0x5 SHL PUSH1 0x20 ADD SWAP1 JUMP JUMPDEST MLOAD SWAP1 PUSH1 0x1 PUSH1 0x1 PUSH1 0xA0 SHL SUB DUP3 AND DUP3 SUB PUSH3 0x508 JUMPI JUMP JUMPDEST DUP1 MLOAD DUP3 LT ISZERO PUSH3 0x40F JUMPI PUSH1 0x20 SWAP2 PUSH1 0x5 SHL ADD ADD SWAP1 JUMP JUMPDEST MLOAD PUSH1 0x7 DUP2 LT ISZERO PUSH3 0x3F9 JUMPI SWAP1 JUMP INVALID PUSH1 0x80 DUP1 PUSH1 0x40 MSTORE PUSH1 0x4 CALLDATASIZE LT ISZERO PUSH2 0x1D JUMPI JUMPDEST POP CALLDATASIZE ISZERO PUSH2 0x1B JUMPI PUSH1 0x0 DUP1 REVERT JUMPDEST STOP JUMPDEST PUSH1 0x0 CALLDATALOAD PUSH1 0xE0 SHR SWAP1 DUP2 PUSH4 0x542975C EQ PUSH2 0xF8D JUMPI POP DUP1 PUSH4 0x5C47460 EQ PUSH2 0xD36 JUMPI DUP1 PUSH4 0xC0E0CEF EQ PUSH2 0xCA6 JUMPI DUP1 PUSH4 0x16C38B3C EQ PUSH2 0xC37 JUMPI DUP1 PUSH4 0x1E9C47C6 EQ PUSH2 0xBF3 JUMPI DUP1 PUSH4 0x277754ED EQ PUSH2 0xBC4 JUMPI DUP1 PUSH4 0x46904840 EQ PUSH2 0xB9B JUMPI DUP1 PUSH4 0x4DEDE3DE EQ PUSH2 0xB6C JUMPI DUP1 PUSH4 0x51CFF8D9 EQ PUSH2 0xA58 JUMPI DUP1 PUSH4 0x5C975ABB EQ PUSH2 0xA35 JUMPI DUP1 PUSH4 0x6D1EA3FA EQ PUSH2 0x849 JUMPI DUP1 PUSH4 0x7341AB8C EQ PUSH2 0xA17 JUMPI DUP1 PUSH4 0x7535D246 EQ PUSH2 0x9D2 JUMPI DUP1 PUSH4 0x8DA5CB5B EQ PUSH2 0x9A9 JUMPI DUP1 PUSH4 0x920F5C84 EQ PUSH2 0x888 JUMPI DUP1 PUSH4 0x9D93D352 EQ PUSH2 0x849 JUMPI DUP1 PUSH4 0xA001ECDD EQ PUSH2 0x82B JUMPI DUP1 PUSH4 0xAD5C4648 EQ PUSH2 0x7FC JUMPI DUP1 PUSH4 0xAE06C1B7 EQ PUSH2 0x799 JUMPI DUP1 PUSH4 0xC0286465 EQ PUSH2 0x76B JUMPI DUP1 PUSH4 0xC600E1DC EQ PUSH2 0x731 JUMPI DUP1 PUSH4 0xCC85F080 EQ PUSH2 0x731 JUMPI DUP1 PUSH4 0xD8264920 EQ PUSH2 0x702 JUMPI DUP1 PUSH4 0xDF564196 EQ PUSH2 0x6AD JUMPI PUSH4 0xF8242F1A EQ PUSH2 0x13D JUMPI CODESIZE PUSH2 0xF JUMP JUMPDEST CALLVALUE PUSH2 0x6A8 JUMPI PUSH1 0xC0 CALLDATASIZE PUSH1 0x3 NOT ADD SLT PUSH2 0x6A8 JUMPI PUSH1 0x7 PUSH1 0x4 CALLDATALOAD LT ISZERO PUSH2 0x6A8 JUMPI PUSH2 0x161 PUSH2 0xFCF JUMP JUMPDEST PUSH1 0x84 CALLDATALOAD DUP1 ISZERO ISZERO DUP2 SUB PUSH2 0x6A8 JUMPI PUSH2 0x17B PUSH1 0x1 PUSH1 0x5 SLOAD EQ PUSH2 0x10A5 JUMP JUMPDEST PUSH1 0x2 PUSH1 0x5 SSTORE ADDRESS CALLER SUB PUSH2 0x66E JUMPI PUSH1 0x40 MLOAD PUSH1 0x60 DUP2 ADD DUP2 DUP2 LT PUSH8 0xFFFFFFFFFFFFFFFF DUP3 GT OR PUSH2 0x658 JUMPI PUSH1 0x40 MSTORE PUSH1 0x2 DUP2 MSTORE PUSH1 0x40 CALLDATASIZE PUSH1 0x20 DUP4 ADD CALLDATACOPY DUP2 ISZERO PUSH2 0x63D JUMPI DUP3 PUSH20 0xC02AAA39B223FE8D0A0E5C4F27EAD9083C756CC2 JUMPDEST PUSH2 0x1D6 DUP4 PUSH2 0x1DC6 JUMP JUMPDEST PUSH1 0x1 PUSH1 0x1 PUSH1 0xA0 SHL SUB SWAP1 SWAP2 AND SWAP1 MSTORE PUSH2 0x1EC DUP3 PUSH2 0x1DD6 JUMP JUMPDEST PUSH1 0x1 PUSH1 0x1 PUSH1 0xA0 SHL SUB SWAP1 SWAP2 AND SWAP1 MSTORE DUP2 ISZERO PUSH2 0x622 JUMPI PUSH20 0x7A250D5630B4CF539739DF2C5DACB4C659F2488D SWAP2 JUMPDEST ISZERO PUSH2 0x607 JUMPI PUSH20 0xD9E1CE17F2641F24AE83637AB66A2CCA9C378B9F SWAP3 JUMPDEST PUSH1 0x40 MLOAD PUSH4 0xD06CA61F PUSH1 0xE0 SHL DUP2 MSTORE PUSH1 0x44 CALLDATALOAD PUSH1 0x4 DUP3 ADD MSTORE PUSH1 0x40 PUSH1 0x24 DUP3 ADD MSTORE PUSH1 0x0 DUP2 DUP1 PUSH2 0x25F PUSH1 0x44 DUP3 ADD DUP8 PUSH2 0x1E5F JUMP JUMPDEST SUB DUP2 PUSH1 0x1 PUSH1 0x1 PUSH1 0xA0 SHL SUB DUP9 AND GAS STATICCALL DUP1 ISZERO PUSH2 0x544 JUMPI PUSH2 0x285 SWAP2 PUSH1 0x0 SWAP2 PUSH2 0x5EC JUMPI JUMPDEST POP PUSH2 0x1DC6 JUMP JUMPDEST MLOAD PUSH2 0x2710 PUSH1 0x64 CALLDATALOAD DUP2 SUB GT PUSH2 0x5D6 JUMPI PUSH2 0x2A5 PUSH2 0x2710 SWAP2 PUSH1 0x64 CALLDATALOAD DUP4 SUB SWAP1 PUSH2 0x165D JUMP JUMPDEST PUSH1 0x40 MLOAD PUSH4 0x95EA7B3 PUSH1 0xE0 SHL DUP2 MSTORE PUSH1 0x1 PUSH1 0x1 PUSH1 0xA0 SHL SUB DUP7 DUP2 AND PUSH1 0x4 DUP4 ADD MSTORE PUSH1 0x44 DUP1 CALLDATALOAD PUSH1 0x24 DUP5 ADD MSTORE SWAP4 SWAP1 SWAP3 DIV SWAP6 SWAP1 SWAP4 SWAP1 SWAP3 PUSH1 0x20 SWAP3 DUP6 SWAP3 DUP4 SWAP2 PUSH1 0x0 SWAP2 AND GAS CALL SWAP1 DUP2 ISZERO PUSH2 0x544 JUMPI PUSH1 0x0 SWAP5 DUP6 SWAP4 PUSH2 0x31D SWAP4 PUSH2 0x5B7 JUMPI JUMPDEST POP PUSH1 0x40 MLOAD SWAP6 DUP7 DUP1 SWAP5 DUP2 SWAP4 PUSH4 0x38ED1739 PUSH1 0xE0 SHL DUP4 MSTORE PUSH1 0xA4 CALLDATALOAD SWAP1 DUP10 ADDRESS SWAP2 PUSH1 0x44 CALLDATALOAD PUSH1 0x4 DUP8 ADD PUSH2 0x1E9C JUMP JUMPDEST SUB SWAP3 PUSH1 0x1 PUSH1 0x1 PUSH1 0xA0 SHL SUB AND GAS CALL SWAP2 DUP3 ISZERO PUSH2 0x544 JUMPI PUSH1 0x0 SWAP3 PUSH2 0x59A JUMPI JUMPDEST POP PUSH1 0x1 PUSH1 0x1 PUSH1 0xA0 SHL SUB PUSH2 0x34B DUP3 PUSH2 0x1DC6 JUMP JUMPDEST MLOAD AND PUSH1 0x1 PUSH1 0x1 PUSH1 0xA0 SHL SUB PUSH2 0x35E DUP4 PUSH2 0x1DD6 JUMP JUMPDEST MLOAD AND PUSH2 0x369 DUP4 PUSH2 0x1DC6 JUMP JUMPDEST MSTORE PUSH2 0x373 DUP3 PUSH2 0x1DD6 JUMP JUMPDEST MSTORE PUSH2 0x37D DUP3 PUSH2 0x1DC6 JUMP JUMPDEST MLOAD SWAP3 PUSH1 0x40 MLOAD SWAP4 PUSH4 0xD06CA61F PUSH1 0xE0 SHL DUP6 MSTORE PUSH1 0x4 DUP6 ADD MSTORE PUSH1 0x40 PUSH1 0x24 DUP6 ADD MSTORE PUSH1 0x0 DUP5 DUP1 PUSH2 0x3AA PUSH1 0x44 DUP3 ADD DUP7 PUSH2 0x1E5F JUMP JUMPDEST PUSH1 0x1 PUSH1 0x1 PUSH1 0xA0 SHL SUB SWAP1 SWAP5 AND SWAP4 SUB DUP2 DUP5 GAS STATICCALL DUP1 ISZERO PUSH2 0x544 JUMPI PUSH2 0x3E9 PUSH2 0x2710 SWAP2 PUSH2 0x427 SWAP7 PUSH1 0x0 SWAP2 PUSH2 0x57F JUMPI JUMPDEST POP PUSH2 0x3E3 PUSH1 0x64 CALLDATALOAD DUP5 SUB SWAP2 PUSH2 0x1DC6 JUMP JUMPDEST MLOAD PUSH2 0x165D JUMP JUMPDEST DIV SWAP2 PUSH1 0x20 PUSH2 0x3F6 DUP6 PUSH2 0x1DC6 JUMP JUMPDEST MLOAD PUSH1 0x40 MLOAD PUSH4 0x95EA7B3 PUSH1 0xE0 SHL DUP2 MSTORE PUSH1 0x1 PUSH1 0x1 PUSH1 0xA0 SHL SUB DUP6 AND PUSH1 0x4 DUP3 ADD MSTORE PUSH1 0x24 DUP2 ADD SWAP2 SWAP1 SWAP2 MSTORE SWAP6 DUP7 SWAP1 DUP2 SWAP1 PUSH1 0x44 DUP3 ADD SWAP1 JUMP JUMPDEST SUB DUP2 PUSH1 0x0 PUSH20 0xC02AAA39B223FE8D0A0E5C4F27EAD9083C756CC2 GAS CALL SWAP5 DUP6 ISZERO PUSH2 0x544 JUMPI PUSH2 0x45F PUSH1 0x0 SWAP6 DUP7 SWAP3 PUSH2 0x484 SWAP9 PUSH2 0x550 JUMPI POP PUSH2 0x1DC6 JUMP JUMPDEST MLOAD PUSH1 0x40 MLOAD PUSH4 0x38ED1739 PUSH1 0xE0 SHL DUP2 MSTORE SWAP7 DUP8 SWAP6 DUP7 SWAP5 DUP6 SWAP4 PUSH1 0xA4 CALLDATALOAD SWAP3 ADDRESS SWAP3 SWAP2 PUSH1 0x4 DUP8 ADD PUSH2 0x1E9C JUMP JUMPDEST SUB SWAP3 GAS CALL SWAP1 DUP2 ISZERO PUSH2 0x544 JUMPI PUSH1 0x0 SWAP2 PUSH2 0x521 JUMPI JUMPDEST POP PUSH1 0x44 CALLDATALOAD PUSH2 0x4A4 DUP3 PUSH2 0x1DC6 JUMP JUMPDEST MLOAD GT ISZERO PUSH2 0x519 JUMPI PUSH2 0x4C1 SWAP1 PUSH2 0x4BB PUSH1 0x44 CALLDATALOAD SWAP2 PUSH2 0x1DC6 JUMP JUMPDEST MLOAD PUSH2 0x1650 JUMP JUMPDEST PUSH1 0x2 SLOAD DUP2 GT ISZERO PUSH2 0x4DB JUMPI PUSH1 0x20 SWAP1 PUSH1 0x1 PUSH1 0x5 SSTORE PUSH1 0x40 MLOAD SWAP1 DUP2 MSTORE RETURN JUMPDEST PUSH1 0x40 MLOAD PUSH3 0x461BCD PUSH1 0xE5 SHL DUP2 MSTORE PUSH1 0x20 PUSH1 0x4 DUP3 ADD MSTORE PUSH1 0x16 PUSH1 0x24 DUP3 ADD MSTORE PUSH22 0x141C9BD99A5D0818995B1BDDC81D1A1C995CDA1BDB19 PUSH1 0x52 SHL PUSH1 0x44 DUP3 ADD MSTORE PUSH1 0x64 SWAP1 REVERT JUMPDEST POP PUSH1 0x0 PUSH2 0x4C1 JUMP JUMPDEST PUSH2 0x53E SWAP2 POP RETURNDATASIZE DUP1 PUSH1 0x0 DUP4 RETURNDATACOPY PUSH2 0x536 DUP2 DUP4 PUSH2 0x1124 JUMP JUMPDEST DUP2 ADD SWAP1 PUSH2 0x1DE3 JUMP JUMPDEST CODESIZE PUSH2 0x497 JUMP JUMPDEST PUSH1 0x40 MLOAD RETURNDATASIZE PUSH1 0x0 DUP3 RETURNDATACOPY RETURNDATASIZE SWAP1 REVERT JUMPDEST PUSH2 0x571 SWAP1 PUSH1 0x20 RETURNDATASIZE PUSH1 0x20 GT PUSH2 0x578 JUMPI JUMPDEST PUSH2 0x569 DUP2 DUP4 PUSH2 0x1124 JUMP JUMPDEST DUP2 ADD SWAP1 PUSH2 0x1146 JUMP JUMPDEST POP CODESIZE PUSH2 0x27F JUMP JUMPDEST POP RETURNDATASIZE PUSH2 0x55F JUMP JUMPDEST PUSH2 0x594 SWAP2 POP RETURNDATASIZE DUP1 PUSH1 0x0 DUP4 RETURNDATACOPY PUSH2 0x536 DUP2 DUP4 PUSH2 0x1124 JUMP JUMPDEST CODESIZE PUSH2 0x3D4 JUMP JUMPDEST PUSH2 0x5B0 SWAP2 SWAP3 POP RETURNDATASIZE DUP1 PUSH1 0x0 DUP4 RETURNDATACOPY PUSH2 0x536 DUP2 DUP4 PUSH2 0x1124 JUMP JUMPDEST SWAP1 CODESIZE PUSH2 0x339 JUMP JUMPDEST PUSH2 0x5CF SWAP1 PUSH1 0x20 RETURNDATASIZE PUSH1 0x20 GT PUSH2 0x578 JUMPI PUSH2 0x569 DUP2 DUP4 PUSH2 0x1124 JUMP JUMPDEST POP CODESIZE PUSH2 0x2F6 JUMP JUMPDEST PUSH4 0x4E487B71 PUSH1 0xE0 SHL PUSH1 0x0 MSTORE PUSH1 0x11 PUSH1 0x4 MSTORE PUSH1 0x24 PUSH1 0x0 REVERT JUMPDEST PUSH2 0x601 SWAP2 POP RETURNDATASIZE DUP1 PUSH1 0x0 DUP4 RETURNDATACOPY PUSH2 0x536 DUP2 DUP4 PUSH2 0x1124 JUMP JUMPDEST CODESIZE PUSH2 0x27F JUMP JUMPDEST PUSH20 0x7A250D5630B4CF539739DF2C5DACB4C659F2488D SWAP3 PUSH2 0x232 JUMP JUMPDEST PUSH20 0xD9E1CE17F2641F24AE83637AB66A2CCA9C378B9F SWAP2 PUSH2 0x216 JUMP JUMPDEST PUSH20 0xC02AAA39B223FE8D0A0E5C4F27EAD9083C756CC2 DUP4 PUSH2 0x1CD JUMP JUMPDEST PUSH4 0x4E487B71 PUSH1 0xE0 SHL PUSH1 0x0 MSTORE PUSH1 0x41 PUSH1 0x4 MSTORE PUSH1 0x24 PUSH1 0x0 REVERT JUMPDEST PUSH1 0x40 MLOAD PUSH3 0x461BCD PUSH1 0xE5 SHL DUP2 MSTORE PUSH1 0x20 PUSH1 0x4 DUP3 ADD MSTORE PUSH1 0x12 PUSH1 0x24 DUP3 ADD MSTORE PUSH18 0x496E7465726E616C2063616C6C206F6E6C79 PUSH1 0x70 SHL PUSH1 0x44 DUP3 ADD MSTORE PUSH1 0x64 SWAP1 REVERT JUMPDEST PUSH1 0x0 DUP1 REVERT JUMPDEST CALLVALUE PUSH2 0x6A8 JUMPI PUSH1 0x20 CALLDATASIZE PUSH1 0x3 NOT ADD SLT PUSH2 0x6A8 JUMPI PUSH1 0x4 CALLDATALOAD PUSH1 0x7 DUP2 LT ISZERO PUSH2 0x6A8 JUMPI PUSH2 0x6D5 PUSH1 0x60 SWAP2 PUSH2 0x108C JUMP JUMPDEST PUSH1 0x1 DUP1 PUSH1 0xA0 SHL SUB DUP2 SLOAD AND SWAP1 PUSH1 0xFF PUSH1 0x2 PUSH1 0x1 DUP4 ADD SLOAD SWAP3 ADD SLOAD AND SWAP1 PUSH1 0x40 MLOAD SWAP3 DUP4 MSTORE PUSH1 0x20 DUP4 ADD MSTORE ISZERO ISZERO PUSH1 0x40 DUP3 ADD MSTORE RETURN JUMPDEST CALLVALUE PUSH2 0x6A8 JUMPI PUSH1 0x0 CALLDATASIZE PUSH1 0x3 NOT ADD SLT PUSH2 0x6A8 JUMPI PUSH1 0x20 PUSH1 0x40 MLOAD PUSH20 0x7A250D5630B4CF539739DF2C5DACB4C659F2488D DUP2 MSTORE RETURN JUMPDEST CALLVALUE PUSH2 0x6A8 JUMPI PUSH1 0x20 CALLDATASIZE PUSH1 0x3 NOT ADD SLT PUSH2 0x6A8 JUMPI PUSH1 0x1 PUSH1 0x1 PUSH1 0xA0 SHL SUB PUSH2 0x752 PUSH2 0xFE5 JUMP JUMPDEST AND PUSH1 0x0 MSTORE PUSH1 0x6 PUSH1 0x20 MSTORE PUSH1 0x20 PUSH1 0x40 PUSH1 0x0 KECCAK256 SLOAD PUSH1 0x40 MLOAD SWAP1 DUP2 MSTORE RETURN JUMPDEST CALLVALUE PUSH2 0x6A8 JUMPI PUSH1 0x20 CALLDATASIZE PUSH1 0x3 NOT ADD SLT PUSH2 0x6A8 JUMPI PUSH2 0x791 PUSH1 0x1 DUP1 PUSH1 0xA0 SHL SUB PUSH1 0x0 SLOAD AND CALLER EQ PUSH2 0x1ED5 JUMP JUMPDEST PUSH1 0x4 CALLDATALOAD PUSH1 0x2 SSTORE STOP JUMPDEST CALLVALUE PUSH2 0x6A8 JUMPI PUSH1 0x20 CALLDATASIZE PUSH1 0x3 NOT ADD SLT PUSH2 0x6A8 JUMPI PUSH1 0x4 CALLDATALOAD PUSH2 0x7C2 PUSH1 0x1 DUP1 PUSH1 0xA0 SHL SUB PUSH1 0x0 SLOAD AND CALLER EQ PUSH2 0x1ED5 JUMP JUMPDEST PUSH2 0x3E8 DUP2 GT PUSH2 0x6A8 JUMPI PUSH1 0x20 DUP2 PUSH32 0x8C4D35E54A3F2EF1134138FD8EA3DAEE6A3C89E10D2665996BABDF70261E2C76 SWAP3 PUSH1 0x3 SSTORE PUSH1 0x40 MLOAD SWAP1 DUP2 MSTORE LOG1 STOP JUMPDEST CALLVALUE PUSH2 0x6A8 JUMPI PUSH1 0x0 CALLDATASIZE PUSH1 0x3 NOT ADD SLT PUSH2 0x6A8 JUMPI PUSH1 0x20 PUSH1 0x40 MLOAD PUSH20 0xC02AAA39B223FE8D0A0E5C4F27EAD9083C756CC2 DUP2 MSTORE RETURN JUMPDEST CALLVALUE PUSH2 0x6A8 JUMPI PUSH1 0x0 CALLDATASIZE PUSH1 0x3 NOT ADD SLT PUSH2 0x6A8 JUMPI PUSH1 0x20 PUSH1 0x3 SLOAD PUSH1 0x40 MLOAD SWAP1 DUP2 MSTORE RETURN JUMPDEST CALLVALUE PUSH2 0x6A8 JUMPI PUSH1 0x20 CALLDATASIZE PUSH1 0x3 NOT ADD SLT PUSH2 0x6A8 JUMPI PUSH1 0x1 PUSH1 0x1 PUSH1 0xA0 SHL SUB PUSH2 0x86A PUSH2 0xFE5 JUMP JUMPDEST AND PUSH1 0x0 MSTORE PUSH1 0x7 PUSH1 0x20 MSTORE PUSH1 0x20 PUSH1 0xFF PUSH1 0x40 PUSH1 0x0 KECCAK256 SLOAD AND PUSH1 0x40 MLOAD SWAP1 ISZERO ISZERO DUP2 MSTORE RETURN JUMPDEST CALLVALUE PUSH2 0x6A8 JUMPI PUSH1 0xA0 CALLDATASIZE PUSH1 0x3 NOT ADD SLT PUSH2 0x6A8 JUMPI PUSH8 0xFFFFFFFFFFFFFFFF PUSH1 0x4 CALLDATALOAD DUP2 DUP2 GT PUSH2 0x6A8 JUMPI PUSH2 0x8BA SWAP1 CALLDATASIZE SWAP1 PUSH1 0x4 ADD PUSH2 0x105B JUMP JUMPDEST SWAP2 PUSH1 0x24 CALLDATALOAD DUP2 DUP2 GT PUSH2 0x6A8 JUMPI PUSH2 0x8D3 SWAP1 CALLDATASIZE SWAP1 PUSH1 0x4 ADD PUSH2 0x105B JUMP JUMPDEST PUSH1 0x44 SWAP4 SWAP2 SWAP4 CALLDATALOAD DUP4 DUP2 GT PUSH2 0x6A8 JUMPI PUSH2 0x8EE SWAP1 CALLDATASIZE SWAP1 PUSH1 0x4 ADD PUSH2 0x105B JUMP JUMPDEST PUSH1 0x64 CALLDATALOAD SWAP3 SWAP1 SWAP2 SWAP1 PUSH1 0x1 PUSH1 0x1 PUSH1 0xA0 SHL SUB DUP5 AND DUP5 SUB PUSH2 0x6A8 JUMPI PUSH1 0x84 CALLDATALOAD SWAP7 DUP7 DUP9 GT PUSH2 0x6A8 JUMPI CALLDATASIZE PUSH1 0x23 DUP10 ADD SLT ISZERO PUSH2 0x6A8 JUMPI DUP8 PUSH1 0x4 ADD CALLDATALOAD SWAP7 DUP8 GT PUSH2 0x6A8 JUMPI CALLDATASIZE PUSH1 0x24 DUP9 DUP11 ADD ADD GT PUSH2 0x6A8 JUMPI PUSH2 0x941 PUSH1 0x1 PUSH1 0x5 SLOAD EQ PUSH2 0x10A5 JUMP JUMPDEST PUSH1 0x2 PUSH1 0x5 SSTORE PUSH1 0xFF PUSH1 0x4 SLOAD AND PUSH2 0x96F JUMPI PUSH1 0x20 SWAP9 PUSH1 0x24 PUSH2 0x960 SWAP10 ADD SWAP7 PUSH2 0x117D JUMP JUMPDEST PUSH1 0x1 PUSH1 0x5 SSTORE PUSH1 0x40 MLOAD SWAP1 ISZERO ISZERO DUP2 MSTORE RETURN JUMPDEST PUSH1 0x40 MLOAD PUSH3 0x461BCD PUSH1 0xE5 SHL DUP2 MSTORE PUSH1 0x20 PUSH1 0x4 DUP3 ADD MSTORE PUSH1 0x12 PUSH1 0x24 DUP3 ADD MSTORE PUSH18 0x10DBDB9D1C9858DD081A5CC81C185D5CD959 PUSH1 0x72 SHL PUSH1 0x44 DUP3 ADD MSTORE PUSH1 0x64 SWAP1 REVERT JUMPDEST CALLVALUE PUSH2 0x6A8 JUMPI PUSH1 0x0 CALLDATASIZE PUSH1 0x3 NOT ADD SLT PUSH2 0x6A8 JUMPI PUSH1 0x0 SLOAD PUSH1 0x40 MLOAD PUSH1 0x1 PUSH1 0x1 PUSH1 0xA0 SHL SUB SWAP1 SWAP2 AND DUP2 MSTORE PUSH1 0x20 SWAP1 RETURN JUMPDEST CALLVALUE PUSH2 0x6A8 JUMPI PUSH1 0x0 CALLDATASIZE PUSH1 0x3 NOT ADD SLT PUSH2 0x6A8 JUMPI PUSH1 0x40 MLOAD PUSH32 0x0 PUSH1 0x1 PUSH1 0x1 PUSH1 0xA0 SHL SUB AND DUP2 MSTORE PUSH1 0x20 SWAP1 RETURN JUMPDEST CALLVALUE PUSH2 0x6A8 JUMPI PUSH1 0x0 CALLDATASIZE PUSH1 0x3 NOT ADD SLT PUSH2 0x6A8 JUMPI PUSH1 0x20 PUSH1 0x2 SLOAD PUSH1 0x40 MLOAD SWAP1 DUP2 MSTORE RETURN JUMPDEST CALLVALUE PUSH2 0x6A8 JUMPI PUSH1 0x0 CALLDATASIZE PUSH1 0x3 NOT ADD SLT PUSH2 0x6A8 JUMPI PUSH1 0x20 PUSH1 0xFF PUSH1 0x4 SLOAD AND PUSH1 0x40 MLOAD SWAP1 ISZERO ISZERO DUP2 MSTORE RETURN JUMPDEST CALLVALUE PUSH2 0x6A8 JUMPI PUSH1 0x20 DUP1 PUSH1 0x3 NOT CALLDATASIZE ADD SLT PUSH2 0x6A8 JUMPI PUSH2 0xA72 PUSH2 0xFE5 JUMP JUMPDEST PUSH1 0x0 SLOAD PUSH1 0x1 PUSH1 0x1 PUSH1 0xA0 SHL SUB SWAP3 SWAP2 SWAP1 DUP4 AND SWAP1 DUP4 SWAP1 PUSH2 0xA90 CALLER DUP5 EQ PUSH2 0x1ED5 JUMP JUMPDEST AND SWAP1 DUP2 PUSH2 0xAB5 JUMPI POP POP POP SELFBALANCE SWAP1 DUP2 ISZERO PUSH2 0x6A8 JUMPI PUSH1 0x0 DUP1 DUP1 SWAP4 DUP2 SWAP4 DUP3 SLOAD AND DUP3 CALL ISZERO PUSH2 0x544 JUMPI STOP JUMPDEST PUSH1 0x40 MLOAD PUSH4 0x70A08231 PUSH1 0xE0 SHL DUP2 MSTORE ADDRESS PUSH1 0x4 DUP3 ADD MSTORE SWAP3 SWAP4 POP SWAP1 SWAP2 DUP4 DUP2 PUSH1 0x24 DUP2 DUP7 GAS STATICCALL SWAP1 DUP2 ISZERO PUSH2 0x544 JUMPI PUSH1 0x0 SWAP2 PUSH2 0xB3F JUMPI JUMPDEST POP DUP1 ISZERO PUSH2 0x6A8 JUMPI PUSH1 0x40 MLOAD PUSH4 0xA9059CBB PUSH1 0xE0 SHL DUP2 MSTORE PUSH1 0x1 PUSH1 0x1 PUSH1 0xA0 SHL SUB SWAP3 SWAP1 SWAP3 AND PUSH1 0x4 DUP4 ADD MSTORE PUSH1 0x24 DUP3 ADD MSTORE SWAP1 DUP3 SWAP1 DUP3 SWAP1 PUSH1 0x44 SWAP1 DUP3 SWAP1 PUSH1 0x0 SWAP1 GAS CALL DUP1 ISZERO PUSH2 0x544 JUMPI PUSH2 0xB29 JUMPI STOP JUMPDEST DUP2 PUSH2 0x1B SWAP3 SWAP1 RETURNDATASIZE LT PUSH2 0x578 JUMPI PUSH2 0x569 DUP2 DUP4 PUSH2 0x1124 JUMP JUMPDEST SWAP1 POP DUP4 DUP2 DUP2 RETURNDATASIZE DUP4 GT PUSH2 0xB65 JUMPI JUMPDEST PUSH2 0xB56 DUP2 DUP4 PUSH2 0x1124 JUMP JUMPDEST DUP2 ADD SUB SLT PUSH2 0x6A8 JUMPI MLOAD DUP5 PUSH2 0xAE4 JUMP JUMPDEST POP RETURNDATASIZE PUSH2 0xB4C JUMP JUMPDEST CALLVALUE PUSH2 0x6A8 JUMPI PUSH1 0x0 CALLDATASIZE PUSH1 0x3 NOT ADD SLT PUSH2 0x6A8 JUMPI PUSH1 0x20 PUSH1 0x40 MLOAD PUSH20 0x2260FAC5E5542A773AA44FBCFEDF7C193BC2C599 DUP2 MSTORE RETURN JUMPDEST CALLVALUE PUSH2 0x6A8 JUMPI PUSH1 0x0 CALLDATASIZE PUSH1 0x3 NOT ADD SLT PUSH2 0x6A8 JUMPI PUSH1 0x1 SLOAD PUSH1 0x40 MLOAD PUSH1 0x1 PUSH1 0x1 PUSH1 0xA0 SHL SUB SWAP1 SWAP2 AND DUP2 MSTORE PUSH1 0x20 SWAP1 RETURN JUMPDEST CALLVALUE PUSH2 0x6A8 JUMPI PUSH1 0x0 CALLDATASIZE PUSH1 0x3 NOT ADD SLT PUSH2 0x6A8 JUMPI PUSH1 0x20 PUSH1 0x40 MLOAD PUSH20 0xD9E1CE17F2641F24AE83637AB66A2CCA9C378B9F DUP2 MSTORE RETURN JUMPDEST CALLVALUE PUSH2 0x6A8 JUMPI PUSH1 0x20 CALLDATASIZE PUSH1 0x3 NOT ADD SLT PUSH2 0x6A8 JUMPI PUSH1 0x4 CALLDATALOAD PUSH1 0x9 SLOAD DUP2 LT ISZERO PUSH2 0x6A8 JUMPI PUSH2 0xC35 PUSH2 0xC1F PUSH1 0x20 SWAP3 PUSH2 0xFFB JUMP JUMPDEST SWAP2 SWAP1 SLOAD SWAP2 PUSH1 0xFF PUSH1 0x40 MLOAD SWAP4 DUP5 SWAP3 PUSH1 0x3 SHL SHR AND PUSH2 0x104E JUMP JUMPDEST RETURN JUMPDEST CALLVALUE PUSH2 0x6A8 JUMPI PUSH1 0x20 CALLDATASIZE PUSH1 0x3 NOT ADD SLT PUSH2 0x6A8 JUMPI PUSH1 0x4 CALLDATALOAD DUP1 ISZERO ISZERO DUP1 SWAP2 SUB PUSH2 0x6A8 JUMPI PUSH1 0x20 PUSH32 0xE2FB031EE032DC02D8011DC50B816EB450CF856ABD8261680DAC74F72165BD2 SWAP2 PUSH2 0xC8E PUSH1 0x1 DUP1 PUSH1 0xA0 SHL SUB PUSH1 0x0 SLOAD AND CALLER EQ PUSH2 0x1ED5 JUMP JUMPDEST PUSH1 0xFF NOT PUSH1 0x4 SLOAD AND PUSH1 0xFF DUP3 AND OR PUSH1 0x4 SSTORE PUSH1 0x40 MLOAD SWAP1 DUP2 MSTORE LOG1 STOP JUMPDEST CALLVALUE PUSH2 0x6A8 JUMPI PUSH1 0x40 CALLDATASIZE PUSH1 0x3 NOT ADD SLT PUSH2 0x6A8 JUMPI PUSH2 0xCBF PUSH2 0xFE5 JUMP JUMPDEST PUSH1 0x24 CALLDATALOAD SWAP1 DUP2 ISZERO ISZERO SWAP1 DUP2 DUP4 SUB PUSH2 0x6A8 JUMPI PUSH32 0x3BEB044D3B23B475A7A8E337D1F11E8DF3FAA1508A2A22B21FB4E021D1D6EDB9 SWAP2 PUSH2 0xD2D PUSH1 0x20 SWAP3 PUSH1 0x1 DUP1 PUSH1 0xA0 SHL SUB SWAP1 PUSH2 0xD0D DUP3 PUSH1 0x0 SLOAD AND CALLER EQ PUSH2 0x1ED5 JUMP JUMPDEST AND SWAP5 DUP6 PUSH1 0x0 MSTORE PUSH1 0x7 DUP5 MSTORE PUSH1 0x40 PUSH1 0x0 KECCAK256 SWAP1 PUSH1 0xFF DUP1 NOT DUP4 SLOAD AND SWAP2 ISZERO ISZERO AND OR SWAP1 SSTORE JUMP JUMPDEST PUSH1 0x40 MLOAD SWAP1 DUP2 MSTORE LOG2 STOP JUMPDEST CALLVALUE PUSH2 0x6A8 JUMPI PUSH1 0x80 CALLDATASIZE PUSH1 0x3 NOT ADD SLT PUSH2 0x6A8 JUMPI PUSH1 0x4 CALLDATALOAD PUSH1 0x7 DUP1 DUP3 LT ISZERO DUP1 PUSH2 0x6A8 JUMPI PUSH2 0xD5D PUSH2 0xFCF JUMP JUMPDEST SWAP1 PUSH1 0x44 CALLDATALOAD SWAP1 PUSH1 0x64 CALLDATALOAD SWAP4 DUP5 ISZERO DUP1 ISZERO SWAP6 DUP7 DUP2 SUB PUSH2 0x6A8 JUMPI PUSH1 0x0 SLOAD PUSH1 0x1 PUSH1 0x1 PUSH1 0xA0 SHL SUB SWAP1 PUSH2 0xD8B SWAP1 DUP3 AND CALLER EQ PUSH2 0x1ED5 JUMP JUMPDEST PUSH1 0x40 MLOAD PUSH1 0x60 DUP2 ADD DUP2 DUP2 LT PUSH8 0xFFFFFFFFFFFFFFFF DUP3 GT OR PUSH2 0x658 JUMPI PUSH2 0xE04 SWAP3 PUSH1 0x2 SWAP2 PUSH1 0x40 MSTORE DUP1 DUP11 AND DUP4 MSTORE PUSH1 0x20 DUP4 ADD SWAP1 DUP10 DUP3 MSTORE PUSH1 0x40 DUP5 ADD SWAP12 DUP13 MSTORE PUSH2 0xDCC DUP14 PUSH2 0x108C JUMP JUMPDEST SWAP4 MLOAD AND PUSH12 0xFFFFFFFFFFFFFFFFFFFFFFFF PUSH1 0xA0 SHL DUP5 SLOAD AND OR DUP4 SSTORE MLOAD SWAP10 PUSH1 0x1 SWAP11 DUP12 DUP5 ADD SSTORE MLOAD ISZERO ISZERO SWAP2 ADD SWAP1 PUSH1 0xFF DUP1 NOT DUP4 SLOAD AND SWAP2 ISZERO ISZERO AND OR SWAP1 SSTORE JUMP JUMPDEST DUP1 PUSH2 0xF7D JUMPI JUMPDEST ISZERO PUSH2 0xE9A JUMPI POP POP SWAP1 SWAP2 SWAP3 PUSH1 0x9 SLOAD PUSH9 0x10000000000000000 DUP2 LT ISZERO PUSH2 0x658 JUMPI PUSH2 0xE3B DUP2 PUSH2 0xE41 SWAP4 DUP9 SWAP4 ADD PUSH1 0x9 SSTORE PUSH2 0xFFB JUMP JUMPDEST SWAP1 PUSH2 0x1F0D JUMP JUMPDEST PUSH2 0xE84 JUMPI PUSH1 0x40 DUP1 MLOAD PUSH1 0x1 PUSH1 0x1 PUSH1 0xA0 SHL SUB SWAP4 SWAP1 SWAP4 AND DUP4 MSTORE PUSH1 0x20 DUP4 ADD SWAP2 SWAP1 SWAP2 MSTORE PUSH32 0xD3CE3F3C18A4555514F2E4C62B481EDA4B7C83C447E089CC8362C4075203F392 SWAP2 LOG2 STOP JUMPDEST PUSH4 0x4E487B71 PUSH1 0xE0 SHL PUSH1 0x0 MSTORE PUSH1 0x21 PUSH1 0x4 MSTORE PUSH1 0x24 PUSH1 0x0 REVERT JUMPDEST PUSH2 0xEA9 JUMPI JUMPDEST POP SWAP1 SWAP2 SWAP3 POP PUSH2 0xE41 JUMP JUMPDEST PUSH1 0x0 DUP6 JUMPDEST PUSH2 0xEB8 JUMPI JUMPDEST POP PUSH2 0xE9F JUMP JUMPDEST PUSH1 0x9 DUP1 SLOAD SWAP1 DUP2 DUP4 LT ISZERO PUSH2 0xF76 JUMPI PUSH2 0xECE DUP4 PUSH2 0xFFB JUMP JUMPDEST SWAP3 DUP7 PUSH1 0xFF DUP1 SWAP4 SLOAD PUSH1 0x3 SWAP7 DUP8 SHL SHR AND SWAP1 PUSH2 0xE84 JUMPI DUP7 DUP2 LT ISZERO PUSH2 0xE84 JUMPI DUP12 EQ PUSH2 0xF02 JUMPI POP POP POP POP PUSH2 0xEFC SWAP1 PUSH2 0x1516 JUMP JUMPDEST DUP6 PUSH2 0xEAD JUMP JUMPDEST SWAP2 SWAP5 POP SWAP3 SWAP2 SWAP5 SWAP6 SWAP7 SWAP8 POP PUSH1 0x0 NOT SWAP2 DUP3 DUP3 ADD SWAP2 DUP3 GT PUSH2 0x5D6 JUMPI PUSH2 0xE3B DUP5 PUSH2 0xF2A PUSH2 0xF37 SWAP5 PUSH2 0xFFB JUMP JUMPDEST SWAP1 SLOAD SWAP1 DUP10 SHL SHR AND SWAP2 PUSH2 0xFFB JUMP JUMPDEST DUP3 SLOAD DUP1 ISZERO PUSH2 0xF60 JUMPI ADD SWAP3 PUSH2 0xF4A DUP5 PUSH2 0xFFB JUMP JUMPDEST DUP2 SWAP4 SWAP2 SLOAD SWAP3 SHL SHL NOT AND SWAP1 SSTORE SSTORE SWAP1 DUP3 SWAP2 DUP6 DUP1 PUSH2 0xEB2 JUMP JUMPDEST PUSH4 0x4E487B71 PUSH1 0xE0 SHL PUSH1 0x0 MSTORE PUSH1 0x31 PUSH1 0x4 MSTORE PUSH1 0x24 PUSH1 0x0 REVERT JUMPDEST POP POP PUSH2 0xEB2 JUMP JUMPDEST POP PUSH2 0xF87 DUP8 PUSH2 0x1F2E JUMP JUMPDEST ISZERO PUSH2 0xE0A JUMP JUMPDEST CALLVALUE PUSH2 0x6A8 JUMPI PUSH1 0x0 CALLDATASIZE PUSH1 0x3 NOT ADD SLT PUSH2 0x6A8 JUMPI PUSH32 0x0 PUSH1 0x1 PUSH1 0x1 PUSH1 0xA0 SHL SUB AND DUP2 MSTORE PUSH1 0x20 SWAP1 RETURN JUMPDEST PUSH1 0x24 CALLDATALOAD SWAP1 PUSH1 0x1 PUSH1 0x1 PUSH1 0xA0 SHL SUB DUP3 AND DUP3 SUB PUSH2 0x6A8 JUMPI JUMP JUMPDEST PUSH1 0x4 CALLDATALOAD SWAP1 PUSH1 0x1 PUSH1 0x1 PUSH1 0xA0 SHL SUB DUP3 AND DUP3 SUB PUSH2 0x6A8 JUMPI JUMP JUMPDEST SWAP1 PUSH1 0x9 SLOAD DUP3 LT ISZERO PUSH2 0x1038 JUMPI PUSH1 0x9 PUSH1 0x0 MSTORE PUSH1 0x1F DUP3 PUSH1 0x5 SHR PUSH32 0x6E1540171B6C0C960B71A7020D9F60077F6AF931A8BBF590DA0223DACF75C7AF ADD SWAP3 AND SWAP1 JUMP JUMPDEST PUSH4 0x4E487B71 PUSH1 0xE0 SHL PUSH1 0x0 MSTORE PUSH1 0x32 PUSH1 0x4 MSTORE PUSH1 0x24 PUSH1 0x0 REVERT JUMPDEST SWAP1 PUSH1 0x7 DUP3 LT ISZERO PUSH2 0xE84 JUMPI MSTORE JUMP JUMPDEST SWAP2 DUP2 PUSH1 0x1F DUP5 ADD SLT ISZERO PUSH2 0x6A8 JUMPI DUP3 CALLDATALOAD SWAP2 PUSH8 0xFFFFFFFFFFFFFFFF DUP4 GT PUSH2 0x6A8 JUMPI PUSH1 0x20 DUP1 DUP6 ADD SWAP5 DUP5 PUSH1 0x5 SHL ADD ADD GT PUSH2 0x6A8 JUMPI JUMP JUMPDEST PUSH1 0x7 DUP2 LT ISZERO PUSH2 0xE84 JUMPI PUSH1 0x0 MSTORE PUSH1 0x8 PUSH1 0x20 MSTORE PUSH1 0x40 PUSH1 0x0 KECCAK256 SWAP1 JUMP JUMPDEST ISZERO PUSH2 0x10AC JUMPI JUMP JUMPDEST PUSH1 0x40 MLOAD PUSH3 0x461BCD PUSH1 0xE5 SHL DUP2 MSTORE PUSH1 0x20 PUSH1 0x4 DUP3 ADD MSTORE PUSH1 0x13 PUSH1 0x24 DUP3 ADD MSTORE PUSH19 0x1499595B9D1C985B98DE4819195D1958DD1959 PUSH1 0x6A SHL PUSH1 0x44 DUP3 ADD MSTORE PUSH1 0x64 SWAP1 REVERT JUMPDEST CALLDATALOAD PUSH1 0x1 PUSH1 0x1 PUSH1 0xA0 SHL SUB DUP2 AND DUP2 SUB PUSH2 0x6A8 JUMPI SWAP1 JUMP JUMPDEST SWAP2 SWAP1 DUP3 ADD DUP1 SWAP3 GT PUSH2 0x5D6 JUMPI JUMP JUMPDEST PUSH1 0x40 DUP2 ADD SWAP1 DUP2 LT PUSH8 0xFFFFFFFFFFFFFFFF DUP3 GT OR PUSH2 0x658 JUMPI PUSH1 0x40 MSTORE JUMP JUMPDEST SWAP1 PUSH1 0x1F DUP1 NOT SWAP2 ADD AND DUP2 ADD SWAP1 DUP2 LT PUSH8 0xFFFFFFFFFFFFFFFF DUP3 GT OR PUSH2 0x658 JUMPI PUSH1 0x40 MSTORE JUMP JUMPDEST SWAP1 DUP2 PUSH1 0x20 SWAP2 SUB SLT PUSH2 0x6A8 JUMPI MLOAD DUP1 ISZERO ISZERO DUP2 SUB PUSH2 0x6A8 JUMPI SWAP1 JUMP JUMPDEST SWAP1 DUP2 PUSH1 0x20 SWAP2 SUB SLT PUSH2 0x6A8 JUMPI MLOAD PUSH1 0x1 PUSH1 0x1 PUSH1 0xA0 SHL SUB DUP2 AND DUP2 SUB PUSH2 0x6A8 JUMPI SWAP1 JUMP JUMPDEST SWAP2 SWAP6 SWAP1 SWAP8 SWAP7 SWAP4 SWAP3 SWAP5 SWAP7 PUSH1 0x1 DUP1 PUSH1 0xA0 SHL SUB SWAP2 DUP3 ADDRESS SWAP2 AND SUB PUSH2 0x14DD JUMPI PUSH1 0x1 DUP10 EQ DUP1 PUSH2 0x14B5 JUMPI JUMPDEST ISZERO PUSH2 0x1480 JUMPI DUP5 PUSH1 0x60 SWAP2 DUP2 ADD SUB SLT PUSH2 0x6A8 JUMPI DUP4 CALLDATALOAD SWAP6 PUSH1 0x20 SWAP7 DUP8 DUP7 ADD CALLDATALOAD SWAP1 PUSH1 0x40 DUP1 SWAP8 ADD CALLDATALOAD PUSH1 0x7 DUP2 LT ISZERO PUSH2 0x6A8 JUMPI PUSH2 0x3E8 DUP3 GT ISZERO DUP1 PUSH2 0x1476 JUMPI JUMPDEST ISZERO PUSH2 0x1441 JUMPI PUSH2 0x11E6 SWAP1 PUSH2 0x1525 JUMP JUMPDEST PUSH1 0xFF PUSH1 0x2 PUSH2 0x11F3 DUP4 PUSH2 0x108C JUMP JUMPDEST ADD SLOAD AND ISZERO PUSH2 0x131D JUMPI DUP10 SWAP11 SWAP12 PUSH1 0x4 SWAP7 SWAP8 SWAP9 SWAP10 SWAP11 DUP7 PUSH2 0x120F DUP5 PUSH2 0x108C JUMP JUMPDEST SLOAD AND DUP12 MLOAD SWAP9 DUP10 DUP1 SWAP3 PUSH4 0x26B1D5F PUSH1 0xE0 SHL DUP3 MSTORE GAS STATICCALL SWAP7 DUP8 ISZERO PUSH2 0x1312 JUMPI PUSH1 0x0 SWAP8 PUSH2 0x12E3 JUMPI JUMPDEST POP ISZERO PUSH2 0x1038 JUMPI PUSH2 0x1241 DUP8 PUSH2 0x10E7 JUMP JUMPDEST SWAP10 ISZERO PUSH2 0x1038 JUMPI PUSH2 0x1254 SWAP4 CALLDATALOAD SWAP10 DUP11 SWAP2 PUSH2 0x1722 JUMP JUMPDEST SWAP8 ISZERO PUSH2 0x1038 JUMPI PUSH1 0x0 DUP2 PUSH2 0x1276 PUSH2 0x1270 PUSH2 0x12AA SWAP10 DUP12 SWAP9 CALLDATALOAD SWAP1 PUSH2 0x10FB JUMP JUMPDEST SWAP6 PUSH2 0x10E7 JUMP JUMPDEST AND SWAP3 DUP7 MLOAD SWAP8 DUP9 SWAP6 DUP7 SWAP5 DUP6 SWAP4 PUSH4 0x95EA7B3 PUSH1 0xE0 SHL DUP6 MSTORE AND PUSH1 0x4 DUP5 ADD PUSH1 0x20 SWAP1 SWAP4 SWAP3 SWAP2 SWAP4 PUSH1 0x40 DUP2 ADD SWAP5 PUSH1 0x1 DUP1 PUSH1 0xA0 SHL SUB AND DUP2 MSTORE ADD MSTORE JUMP JUMPDEST SUB SWAP3 GAS CALL SWAP1 DUP2 ISZERO PUSH2 0x12D9 JUMPI POP PUSH2 0x12BF JUMPI POP POP SWAP1 JUMP JUMPDEST DUP2 PUSH2 0x12D5 SWAP3 SWAP1 RETURNDATASIZE LT PUSH2 0x578 JUMPI PUSH2 0x569 DUP2 DUP4 PUSH2 0x1124 JUMP JUMPDEST POP SWAP1 JUMP JUMPDEST MLOAD RETURNDATASIZE PUSH1 0x0 DUP3 RETURNDATACOPY RETURNDATASIZE SWAP1 REVERT JUMPDEST PUSH2 0x1304 SWAP2 SWAP8 POP DUP13 DUP14 RETURNDATASIZE LT PUSH2 0x130B JUMPI JUMPDEST PUSH2 0x12FC DUP2 DUP4 PUSH2 0x1124 JUMP JUMPDEST DUP2 ADD SWAP1 PUSH2 0x115E JUMP JUMPDEST SWAP6 CODESIZE PUSH2 0x1232 JUMP JUMPDEST POP RETURNDATASIZE PUSH2 0x12F2 JUMP JUMPDEST DUP11 MLOAD RETURNDATASIZE PUSH1 0x0 DUP3 RETURNDATACOPY RETURNDATASIZE SWAP1 REVERT JUMPDEST SWAP3 SWAP8 SWAP6 SWAP10 SWAP5 SWAP4 SWAP7 SWAP9 SWAP11 SWAP2 POP POP ISZERO PUSH2 0x1038 JUMPI PUSH2 0x1337 DUP3 PUSH2 0x10E7 JUMP JUMPDEST SWAP2 PUSH1 0x7 DUP3 LT ISZERO PUSH2 0xE84 JUMPI DUP10 PUSH2 0x1397 SWAP3 PUSH32 0x7ADEE99C99D1C2BF46DC1ED8D09351255600D53B862471FBD3A741E716278331 PUSH1 0x60 DUP10 DUP1 SWAP8 PUSH16 0x4E6574776F726B20696E616374697665 PUSH1 0x80 SHL DUP15 PUSH1 0x10 DUP2 MLOAD SWAP9 DUP1 DUP11 MSTORE DUP10 ADD MSTORE DUP8 ADD MSTORE AND SWAP4 LOG3 PUSH2 0x10E7 JUMP JUMPDEST AND SWAP2 ISZERO PUSH2 0x1038 JUMPI ISZERO PUSH2 0x1038 JUMPI PUSH2 0x13B4 DUP7 SWAP4 PUSH2 0x140B SWAP7 CALLDATALOAD SWAP1 CALLDATALOAD PUSH2 0x10FB JUMP JUMPDEST DUP5 MLOAD PUSH4 0x95EA7B3 PUSH1 0xE0 SHL DUP2 MSTORE PUSH32 0x0 SWAP4 SWAP1 SWAP4 AND PUSH1 0x1 PUSH1 0x1 PUSH1 0xA0 SHL SUB AND PUSH1 0x4 DUP5 ADD MSTORE PUSH1 0x24 DUP4 ADD MSTORE SWAP1 SWAP4 DUP5 SWAP2 SWAP1 DUP3 SWAP1 PUSH1 0x0 SWAP1 DUP3 SWAP1 PUSH1 0x44 DUP3 ADD SWAP1 JUMP JUMPDEST SUB SWAP3 GAS CALL SWAP1 DUP2 ISZERO PUSH2 0x12D9 JUMPI POP PUSH2 0x1423 JUMPI JUMPDEST POP POP PUSH1 0x1 SWAP1 JUMP JUMPDEST DUP2 PUSH2 0x1439 SWAP3 SWAP1 RETURNDATASIZE LT PUSH2 0x578 JUMPI PUSH2 0x569 DUP2 DUP4 PUSH2 0x1124 JUMP JUMPDEST POP CODESIZE DUP1 PUSH2 0x141C JUMP JUMPDEST DUP8 MLOAD PUSH3 0x461BCD PUSH1 0xE5 SHL DUP2 MSTORE PUSH1 0x4 DUP2 ADD DUP12 SWAP1 MSTORE PUSH1 0xE PUSH1 0x24 DUP3 ADD MSTORE PUSH14 0x496E76616C696420706172616D73 PUSH1 0x90 SHL PUSH1 0x44 DUP3 ADD MSTORE PUSH1 0x64 SWAP1 REVERT JUMPDEST POP TIMESTAMP DUP4 LT ISZERO PUSH2 0x11D8 JUMP JUMPDEST PUSH1 0x40 MLOAD PUSH3 0x461BCD PUSH1 0xE5 SHL DUP2 MSTORE PUSH1 0x20 PUSH1 0x4 DUP3 ADD MSTORE PUSH1 0xD PUSH1 0x24 DUP3 ADD MSTORE PUSH13 0x125B9D985B1A5908185CDCD95D PUSH1 0x9A SHL PUSH1 0x44 DUP3 ADD MSTORE PUSH1 0x64 SWAP1 REVERT JUMPDEST POP DUP9 ISZERO PUSH2 0x1038 JUMPI DUP2 PUSH2 0x14C6 DUP5 PUSH2 0x10E7 JUMP JUMPDEST AND PUSH1 0x0 MSTORE PUSH1 0x7 PUSH1 0x20 MSTORE PUSH1 0xFF PUSH1 0x40 PUSH1 0x0 KECCAK256 SLOAD AND PUSH2 0x11A1 JUMP JUMPDEST PUSH1 0x40 MLOAD PUSH3 0x461BCD PUSH1 0xE5 SHL DUP2 MSTORE PUSH1 0x20 PUSH1 0x4 DUP3 ADD MSTORE PUSH1 0x11 PUSH1 0x24 DUP3 ADD MSTORE PUSH17 0x24B73B30B634B21034B734BA34B0BA37B9 PUSH1 0x79 SHL PUSH1 0x44 DUP3 ADD MSTORE PUSH1 0x64 SWAP1 REVERT JUMPDEST PUSH1 0x0 NOT DUP2 EQ PUSH2 0x5D6 JUMPI PUSH1 0x1 ADD SWAP1 JUMP JUMPDEST PUSH1 0xFF SWAP1 PUSH1 0x2 SWAP1 DUP3 DUP3 PUSH2 0x1536 DUP4 PUSH2 0x108C JUMP JUMPDEST ADD SLOAD AND DUP1 PUSH2 0x163A JUMPI JUMPDEST PUSH2 0x1634 JUMPI POP PUSH1 0x9 SLOAD SWAP1 DUP2 ISZERO PUSH2 0x1038 JUMPI PUSH1 0x9 PUSH1 0x0 MSTORE DUP3 PUSH32 0x6E1540171B6C0C960B71A7020D9F60077F6AF931A8BBF590DA0223DACF75C7AF SLOAD AND SWAP3 PUSH1 0x1 SWAP2 DUP3 PUSH2 0x1585 DUP7 PUSH2 0x108C JUMP JUMPDEST ADD SLOAD SWAP1 DUP4 JUMPDEST DUP6 DUP2 LT PUSH2 0x159A JUMPI POP POP POP POP POP POP SWAP1 JUMP JUMPDEST DUP4 DUP1 DUP4 PUSH2 0x15B8 PUSH2 0x15A9 DUP6 PUSH2 0xFFB JUMP JUMPDEST SWAP5 SWAP1 SLOAD PUSH1 0x3 SWAP6 DUP7 SHL SHR AND PUSH2 0x108C JUMP JUMPDEST ADD SLOAD AND DUP1 PUSH2 0x1610 JUMPI JUMPDEST PUSH2 0x15D5 JUMPI JUMPDEST POP PUSH2 0x15D0 SWAP1 PUSH2 0x1516 JUMP JUMPDEST PUSH2 0x158A JUMP JUMPDEST SWAP7 POP SWAP2 POP PUSH2 0x15D0 DUP5 PUSH2 0x1607 DUP6 DUP1 PUSH2 0x15EB DUP8 PUSH2 0xFFB JUMP JUMPDEST SWAP1 SLOAD SWAP1 DUP13 SHL SHR AND SWAP10 PUSH2 0x15FC DUP8 PUSH2 0xFFB JUMP JUMPDEST SWAP1 SLOAD SWAP2 SHL SHR AND PUSH2 0x108C JUMP JUMPDEST ADD SLOAD SWAP3 SWAP1 PUSH2 0x15C6 JUMP JUMPDEST POP DUP4 DUP7 PUSH2 0x162C DUP8 PUSH2 0x1620 DUP7 PUSH2 0xFFB JUMP JUMPDEST SWAP1 SLOAD SWAP1 DUP7 SHL SHR AND PUSH2 0x108C JUMP JUMPDEST ADD SLOAD GT PUSH2 0x15C1 JUMP JUMPDEST SWAP2 POP POP SWAP1 JUMP JUMPDEST POP PUSH1 0x32 PUSH1 0x1 PUSH2 0x1648 DUP4 PUSH2 0x108C JUMP JUMPDEST ADD SLOAD GT PUSH2 0x153F JUMP JUMPDEST SWAP2 SWAP1 DUP3 SUB SWAP2 DUP3 GT PUSH2 0x5D6 JUMPI JUMP JUMPDEST DUP2 DUP2 MUL SWAP3 SWAP2 DUP2 ISZERO SWAP2 DUP5 DIV EQ OR ISZERO PUSH2 0x5D6 JUMPI JUMP JUMPDEST SWAP2 SWAP1 DUP3 MLOAD SWAP3 DUP4 DUP3 MSTORE PUSH1 0x0 JUMPDEST DUP5 DUP2 LT PUSH2 0x169C JUMPI POP POP DUP3 PUSH1 0x0 PUSH1 0x20 DUP1 SWAP5 SWAP6 DUP5 ADD ADD MSTORE PUSH1 0x1F DUP1 NOT SWAP2 ADD AND ADD ADD SWAP1 JUMP JUMPDEST PUSH1 0x20 DUP2 DUP4 ADD DUP2 ADD MLOAD DUP5 DUP4 ADD DUP3 ADD MSTORE ADD PUSH2 0x167B JUMP JUMPDEST PUSH1 0x0 PUSH1 0x44 RETURNDATASIZE LT PUSH2 0x170E JUMPI PUSH1 0x40 MLOAD PUSH1 0x3 NOT SWAP2 RETURNDATASIZE DUP4 ADD PUSH1 0x4 DUP4 RETURNDATACOPY DUP2 MLOAD PUSH8 0xFFFFFFFFFFFFFFFF SWAP2 DUP3 DUP3 GT RETURNDATASIZE PUSH1 0x24 DUP5 ADD GT OR PUSH2 0x1711 JUMPI DUP2 DUP5 ADD SWAP5 DUP6 MLOAD SWAP4 DUP5 GT PUSH2 0x1719 JUMPI RETURNDATASIZE DUP6 ADD ADD PUSH1 0x20 DUP5 DUP8 ADD ADD GT PUSH2 0x1711 JUMPI POP PUSH2 0x170E SWAP3 SWAP2 ADD PUSH1 0x20 ADD SWAP1 PUSH2 0x1124 JUMP JUMPDEST SWAP1 JUMP JUMPDEST SWAP5 SWAP4 POP POP POP POP JUMP JUMPDEST POP SWAP5 SWAP4 POP POP POP POP JUMP JUMPDEST PUSH1 0x40 DUP1 MLOAD PUSH4 0xC45A0155 PUSH1 0xE0 SHL DUP1 DUP3 MSTORE SWAP2 SWAP7 PUSH1 0x4 SWAP7 PUSH1 0x20 SWAP7 SWAP3 SWAP6 SWAP3 SWAP2 SWAP1 DUP8 DUP8 DUP11 DUP2 PUSH20 0x7A250D5630B4CF539739DF2C5DACB4C659F2488D GAS STATICCALL SWAP7 DUP8 ISZERO PUSH2 0x1312 JUMPI PUSH1 0x0 SWAP8 PUSH2 0x1C82 JUMPI JUMPDEST POP DUP10 MLOAD SWAP4 PUSH4 0xE6A43905 PUSH1 0xE0 SHL SWAP5 DUP6 DUP2 MSTORE PUSH20 0xC02AAA39B223FE8D0A0E5C4F27EAD9083C756CC2 SWAP6 DUP7 DUP13 DUP4 ADD MSTORE PUSH1 0x1 PUSH1 0xA0 SHL PUSH1 0x1 SWAP1 SUB SWAP8 DUP12 DUP4 DUP11 DUP1 DUP8 AND SWAP14 DUP15 PUSH1 0x24 DUP5 ADD MSTORE AND DUP2 GAS SWAP2 PUSH1 0x44 SWAP3 STATICCALL SWAP3 DUP4 ISZERO PUSH2 0x1C58 JUMPI DUP14 SWAP2 DUP16 DUP15 SWAP3 PUSH1 0x0 SWAP7 PUSH2 0x1C63 JUMPI JUMPDEST POP MLOAD SWAP3 DUP4 SWAP2 DUP3 MSTORE DUP2 PUSH20 0xD9E1CE17F2641F24AE83637AB66A2CCA9C378B9F GAS STATICCALL SWAP1 DUP2 ISZERO PUSH2 0x1C58 JUMPI DUP13 SWAP3 DUP16 DUP16 SWAP4 DUP15 DUP14 SWAP3 PUSH1 0x44 SWAP6 PUSH1 0x0 SWAP4 PUSH2 0x1C39 JUMPI JUMPDEST POP MLOAD SWAP13 DUP14 SWAP7 DUP8 SWAP6 DUP7 MSTORE DUP6 ADD MSTORE PUSH1 0x24 DUP5 ADD MSTORE AND GAS STATICCALL SWAP6 DUP7 ISZERO PUSH2 0x1C2E JUMPI PUSH1 0x0 SWAP7 PUSH2 0x1C03 JUMPI JUMPDEST POP SWAP1 PUSH2 0x1831 DUP2 PUSH2 0x1837 SWAP4 PUSH2 0x1CB5 JUMP JUMPDEST SWAP6 PUSH2 0x1CB5 JUMP JUMPDEST SWAP4 DUP1 ISZERO DUP1 ISZERO PUSH2 0x1BFB JUMPI JUMPDEST PUSH2 0x1B87 JUMPI DUP5 DUP2 GT ISZERO PUSH2 0x1B78 JUMPI PUSH2 0x1857 DUP6 DUP3 PUSH2 0x1650 JUMP JUMPDEST PUSH1 0x7 DUP9 LT ISZERO PUSH2 0x1B63 JUMPI DUP8 PUSH32 0x49B39EFA4AB9D7D4B92B75847D3FF610C9442309ED1FCB0908BDED9E5A74CD53 PUSH1 0x60 DUP13 DUP16 SWAP5 DUP6 DUP12 DUP16 SWAP8 MLOAD SWAP4 DUP10 DUP6 MSTORE DUP5 ADD MSTORE DUP3 ADD MSTORE LOG3 DUP1 DUP6 GT SWAP5 DUP6 ISZERO PUSH2 0x1B55 JUMPI SWAP1 PUSH2 0x18AB SWAP2 PUSH2 0x1650 JUMP JUMPDEST PUSH1 0x2 SLOAD LT PUSH2 0x18C3 JUMPI JUMPDEST POP POP POP POP POP POP POP POP POP POP PUSH1 0x1 SWAP1 JUMP JUMPDEST DUP10 MLOAD PUSH4 0x7C12178D PUSH1 0xE1 SHL DUP2 MSTORE SWAP3 PUSH2 0x18DC DUP11 DUP6 ADD DUP9 PUSH2 0x104E JUMP JUMPDEST DUP8 PUSH1 0x24 DUP6 ADD MSTORE PUSH1 0x44 DUP5 ADD MSTORE PUSH1 0x64 DUP4 ADD MSTORE DUP3 PUSH1 0x84 DUP4 ADD MSTORE PUSH1 0xA4 DUP3 ADD MSTORE DUP6 DUP2 PUSH1 0xC4 DUP2 PUSH1 0x0 ADDRESS GAS CALL PUSH1 0x0 SWAP2 DUP2 PUSH2 0x1B23 JUMPI JUMPDEST POP PUSH2 0x19AE JUMPI POP POP POP PUSH1 0x1 SWAP4 PUSH1 0x0 SWAP1 PUSH1 0x3 RETURNDATASIZE GT PUSH2 0x19A1 JUMPI JUMPDEST POP PUSH4 0x8C379A0 EQ PUSH2 0x1945 JUMPI JUMPDEST POP POP POP PUSH2 0x12D9 JUMPI POP JUMPDEST CODESIZE DUP1 DUP1 DUP1 DUP1 DUP1 DUP1 DUP1 DUP1 DUP1 PUSH2 0x18B4 JUMP JUMPDEST PUSH2 0x194D PUSH2 0x16B0 JUMP JUMPDEST DUP1 PUSH2 0x1959 JUMPI JUMPDEST POP PUSH2 0x192D JUMP JUMPDEST PUSH32 0x7ADEE99C99D1C2BF46DC1ED8D09351255600D53B862471FBD3A741E716278331 SWAP2 SWAP3 SWAP4 SWAP5 POP PUSH1 0x0 SWAP5 PUSH2 0x1995 DUP8 MLOAD SWAP3 DUP3 DUP5 SWAP4 DUP5 MSTORE DUP4 ADD SWAP1 PUSH2 0x1670 JUMP JUMPDEST SUB SWAP1 LOG3 CODESIZE DUP1 DUP1 DUP1 PUSH2 0x1953 JUMP JUMPDEST DUP2 DUP1 RETURNDATACOPY MLOAD PUSH1 0xE0 SHR CODESIZE PUSH2 0x1921 JUMP JUMPDEST DUP1 SWAP8 SWAP3 SWAP5 SWAP8 SWAP7 SWAP4 SWAP7 PUSH2 0x19C8 JUMPI JUMPDEST POP POP POP POP POP POP POP POP PUSH2 0x1936 JUMP JUMPDEST DUP6 PUSH2 0x19E6 SWAP5 PUSH2 0x2710 PUSH2 0x19DC PUSH1 0x3 SLOAD DUP6 PUSH2 0x165D JUMP JUMPDEST DIV SWAP6 DUP7 DUP1 SWAP5 PUSH2 0x1650 JUMP JUMPDEST SWAP7 DUP11 PUSH1 0x0 MSTORE PUSH1 0x6 DUP4 MSTORE DUP6 PUSH1 0x0 KECCAK256 PUSH2 0x19FE DUP10 DUP3 SLOAD PUSH2 0x10FB JUMP JUMPDEST SWAP1 SSTORE PUSH1 0x1 SLOAD DUP7 MLOAD PUSH4 0xA9059CBB PUSH1 0xE0 SHL DUP2 MSTORE SWAP2 AND PUSH1 0x1 PUSH1 0x1 PUSH1 0xA0 SHL SUB AND SWAP2 DUP2 ADD SWAP2 DUP3 MSTORE PUSH1 0x20 DUP3 ADD SWAP4 SWAP1 SWAP4 MSTORE DUP3 SWAP1 DUP2 SWAP1 PUSH1 0x40 ADD SUB DUP2 PUSH1 0x0 DUP13 GAS CALL DUP1 ISZERO PUSH2 0x1B18 JUMPI SWAP3 PUSH32 0xAAA3A601B5615A15721D3D042DAA78A00501F9520FFC0DD062E1A207B278046D SWAP7 SWAP6 SWAP5 SWAP3 PUSH1 0x80 SWAP3 PUSH2 0x1AB6 SWAP6 PUSH2 0x1AFB JUMPI JUMPDEST POP ISZERO PUSH2 0x1ACC JUMPI DUP1 MLOAD PUSH2 0x1A7F DUP2 PUSH2 0x1108 JUMP JUMPDEST PUSH1 0x12 DUP2 MSTORE PUSH18 0x42757920556E692053656C6C205375736869 PUSH1 0x70 SHL DUP8 DUP3 ADD MSTORE SWAP3 JUMPDEST DUP2 MLOAD SWAP7 DUP8 SWAP7 DUP8 MSTORE DUP7 ADD MSTORE DUP5 ADD MSTORE PUSH1 0x80 DUP4 ADD SWAP1 PUSH2 0x1670 JUMP JUMPDEST TIMESTAMP PUSH1 0x60 DUP4 ADD MSTORE SUB SWAP1 LOG3 CODESIZE DUP1 DUP1 DUP1 DUP1 DUP1 DUP1 DUP1 PUSH2 0x19BB JUMP JUMPDEST DUP1 MLOAD PUSH2 0x1AD7 DUP2 PUSH2 0x1108 JUMP JUMPDEST PUSH1 0x12 DUP2 MSTORE PUSH18 0x4275792053757368692053656C6C20556E69 PUSH1 0x70 SHL DUP8 DUP3 ADD MSTORE SWAP3 PUSH2 0x1A9F JUMP JUMPDEST PUSH2 0x1B11 SWAP1 DUP9 RETURNDATASIZE DUP11 GT PUSH2 0x578 JUMPI PUSH2 0x569 DUP2 DUP4 PUSH2 0x1124 JUMP JUMPDEST POP CODESIZE PUSH2 0x1A6E JUMP JUMPDEST DUP4 MLOAD RETURNDATASIZE PUSH1 0x0 DUP3 RETURNDATACOPY RETURNDATASIZE SWAP1 REVERT JUMPDEST SWAP1 SWAP2 DUP8 DUP3 DUP2 RETURNDATASIZE DUP4 GT PUSH2 0x1B4E JUMPI JUMPDEST PUSH2 0x1B3A DUP2 DUP4 PUSH2 0x1124 JUMP JUMPDEST DUP2 ADD SUB SLT PUSH2 0x1B4B JUMPI POP MLOAD SWAP1 CODESIZE PUSH2 0x190A JUMP JUMPDEST DUP1 REVERT JUMPDEST POP RETURNDATASIZE PUSH2 0x1B30 JUMP JUMPDEST PUSH2 0x1B5E SWAP2 PUSH2 0x1650 JUMP JUMPDEST PUSH2 0x18AB JUMP JUMPDEST PUSH1 0x21 DUP12 PUSH4 0x4E487B71 PUSH1 0xE0 SHL PUSH1 0x0 MSTORE MSTORE PUSH1 0x24 PUSH1 0x0 REVERT JUMPDEST PUSH2 0x1B82 DUP2 DUP7 PUSH2 0x1650 JUMP JUMPDEST PUSH2 0x1857 JUMP JUMPDEST POP POP POP POP POP POP SWAP3 PUSH1 0x7 DUP5 SWAP6 SWAP3 SWAP6 LT ISZERO PUSH2 0x1BE6 JUMPI POP PUSH32 0x7ADEE99C99D1C2BF46DC1ED8D09351255600D53B862471FBD3A741E716278331 SWAP2 PUSH14 0x496E76616C696420707269636573 PUSH1 0x90 SHL DUP3 PUSH1 0xE PUSH1 0x60 SWAP5 MLOAD SWAP4 DUP1 DUP6 MSTORE DUP5 ADD MSTORE DUP3 ADD MSTORE LOG3 PUSH1 0x1 SWAP1 JUMP JUMPDEST PUSH1 0x21 SWAP1 PUSH4 0x4E487B71 PUSH1 0xE0 SHL PUSH1 0x0 MSTORE MSTORE PUSH1 0x24 PUSH1 0x0 REVERT JUMPDEST POP DUP5 ISZERO PUSH2 0x1841 JUMP JUMPDEST DUP3 PUSH2 0x1837 SWAP4 SWAP3 SWAP8 POP PUSH2 0x1C24 PUSH2 0x1831 SWAP3 DUP14 DUP1 RETURNDATASIZE LT PUSH2 0x130B JUMPI PUSH2 0x12FC DUP2 DUP4 PUSH2 0x1124 JUMP JUMPDEST SWAP8 SWAP3 POP SWAP3 POP PUSH2 0x1822 JUMP JUMPDEST DUP13 MLOAD RETURNDATASIZE PUSH1 0x0 DUP3 RETURNDATACOPY RETURNDATASIZE SWAP1 REVERT JUMPDEST PUSH2 0x1C51 SWAP2 SWAP4 POP DUP9 RETURNDATASIZE DUP11 GT PUSH2 0x130B JUMPI PUSH2 0x12FC DUP2 DUP4 PUSH2 0x1124 JUMP JUMPDEST SWAP2 CODESIZE PUSH2 0x17FF JUMP JUMPDEST DUP15 MLOAD RETURNDATASIZE PUSH1 0x0 DUP3 RETURNDATACOPY RETURNDATASIZE SWAP1 REVERT JUMPDEST PUSH2 0x1C7B SWAP2 SWAP7 POP DUP4 RETURNDATASIZE DUP6 GT PUSH2 0x130B JUMPI PUSH2 0x12FC DUP2 DUP4 PUSH2 0x1124 JUMP JUMPDEST SWAP5 CODESIZE PUSH2 0x17C6 JUMP JUMPDEST PUSH2 0x1C9A SWAP2 SWAP8 POP DUP9 RETURNDATASIZE DUP11 GT PUSH2 0x130B JUMPI PUSH2 0x12FC DUP2 DUP4 PUSH2 0x1124 JUMP JUMPDEST SWAP6 CODESIZE PUSH2 0x1768 JUMP JUMPDEST MLOAD SWAP1 PUSH1 0x1 PUSH1 0x1 PUSH1 0x70 SHL SUB DUP3 AND DUP3 SUB PUSH2 0x6A8 JUMPI JUMP JUMPDEST PUSH1 0x1 PUSH1 0x1 PUSH1 0xA0 SHL SUB SWAP1 DUP2 AND SWAP1 DUP2 ISZERO PUSH2 0x1DBE JUMPI PUSH1 0x60 PUSH1 0x4 SWAP3 PUSH1 0x40 MLOAD SWAP4 DUP5 DUP1 SWAP3 PUSH4 0x240BC6B PUSH1 0xE2 SHL DUP3 MSTORE GAS STATICCALL SWAP2 DUP3 ISZERO PUSH2 0x544 JUMPI PUSH1 0x0 SWAP1 DUP2 SWAP4 PUSH2 0x1D66 JUMPI JUMPDEST POP PUSH1 0x1 PUSH1 0x1 PUSH1 0x70 SHL SUB DUP1 SWAP2 AND SWAP3 AND SWAP3 AND PUSH20 0xC02AAA39B223FE8D0A0E5C4F27EAD9083C756CC2 LT PUSH1 0x0 EQ PUSH2 0x1D60 JUMPI JUMPDEST PUSH1 0x0 DUP3 PUSH2 0x1D2D JUMPI POP POP POP PUSH1 0x0 SWAP1 JUMP JUMPDEST PUSH8 0xDE0B6B3A7640000 SWAP2 DUP3 DUP2 MUL SWAP3 DUP2 DUP5 DIV EQ SWAP1 ISZERO OR ISZERO PUSH2 0x1D4C JUMPI POP DIV SWAP1 JUMP JUMPDEST PUSH4 0x4E487B71 PUSH1 0xE0 SHL DUP2 MSTORE PUSH1 0x11 PUSH1 0x4 MSTORE PUSH1 0x24 SWAP1 REVERT JUMPDEST SWAP1 PUSH2 0x1D1E JUMP JUMPDEST SWAP3 POP PUSH1 0x60 DUP4 RETURNDATASIZE DUP3 GT PUSH2 0x1DB6 JUMPI JUMPDEST DUP2 PUSH2 0x1D80 PUSH1 0x60 SWAP4 DUP4 PUSH2 0x1124 JUMP JUMPDEST DUP2 ADD SUB SLT PUSH2 0x1B4B JUMPI PUSH2 0x1D91 DUP4 PUSH2 0x1CA1 JUMP JUMPDEST SWAP1 PUSH1 0x40 PUSH2 0x1DA0 PUSH1 0x20 DUP7 ADD PUSH2 0x1CA1 JUMP JUMPDEST SWAP5 ADD MLOAD PUSH4 0xFFFFFFFF DUP2 AND SUB PUSH2 0x1B4B JUMPI POP CODESIZE PUSH2 0x1CF0 JUMP JUMPDEST RETURNDATASIZE SWAP2 POP PUSH2 0x1D73 JUMP JUMPDEST POP POP POP PUSH1 0x0 SWAP1 JUMP JUMPDEST DUP1 MLOAD PUSH1 0x1 LT ISZERO PUSH2 0x1038 JUMPI PUSH1 0x40 ADD SWAP1 JUMP JUMPDEST DUP1 MLOAD ISZERO PUSH2 0x1038 JUMPI PUSH1 0x20 ADD SWAP1 JUMP JUMPDEST SWAP1 PUSH1 0x20 SWAP1 DUP2 DUP4 DUP3 SUB SLT PUSH2 0x6A8 JUMPI DUP3 MLOAD PUSH8 0xFFFFFFFFFFFFFFFF SWAP4 DUP5 DUP3 GT PUSH2 0x6A8 JUMPI ADD DUP2 PUSH1 0x1F DUP3 ADD SLT ISZERO PUSH2 0x6A8 JUMPI DUP1 MLOAD SWAP4 DUP5 GT PUSH2 0x658 JUMPI DUP4 PUSH1 0x5 SHL SWAP1 PUSH1 0x40 MLOAD SWAP5 PUSH2 0x1E2D DUP6 DUP5 ADD DUP8 PUSH2 0x1124 JUMP JUMPDEST DUP6 MSTORE DUP4 DUP1 DUP7 ADD SWAP3 DUP3 ADD ADD SWAP3 DUP4 GT PUSH2 0x6A8 JUMPI DUP4 ADD SWAP1 JUMPDEST DUP3 DUP3 LT PUSH2 0x1E50 JUMPI POP POP POP POP SWAP1 JUMP JUMPDEST DUP2 MLOAD DUP2 MSTORE SWAP1 DUP4 ADD SWAP1 DUP4 ADD PUSH2 0x1E42 JUMP JUMPDEST SWAP1 DUP2 MLOAD DUP1 DUP3 MSTORE PUSH1 0x20 DUP1 DUP1 SWAP4 ADD SWAP4 ADD SWAP2 PUSH1 0x0 JUMPDEST DUP3 DUP2 LT PUSH2 0x1E7F JUMPI POP POP POP POP SWAP1 JUMP JUMPDEST DUP4 MLOAD PUSH1 0x1 PUSH1 0x1 PUSH1 0xA0 SHL SUB AND DUP6 MSTORE SWAP4 DUP2 ADD SWAP4 SWAP3 DUP2 ADD SWAP3 PUSH1 0x1 ADD PUSH2 0x1E71 JUMP JUMPDEST SWAP2 SWAP3 PUSH1 0x80 SWAP4 PUSH2 0x1EC1 SWAP3 SWAP8 SWAP7 SWAP6 SWAP8 DUP5 MSTORE PUSH1 0x20 DUP5 ADD MSTORE PUSH1 0xA0 PUSH1 0x40 DUP5 ADD MSTORE PUSH1 0xA0 DUP4 ADD SWAP1 PUSH2 0x1E5F JUMP JUMPDEST PUSH1 0x1 PUSH1 0x1 PUSH1 0xA0 SHL SUB SWAP1 SWAP6 AND PUSH1 0x60 DUP3 ADD MSTORE ADD MSTORE JUMP JUMPDEST ISZERO PUSH2 0x1EDC JUMPI JUMP JUMPDEST PUSH1 0x40 MLOAD PUSH3 0x461BCD PUSH1 0xE5 SHL DUP2 MSTORE PUSH1 0x20 PUSH1 0x4 DUP3 ADD MSTORE PUSH1 0x9 PUSH1 0x24 DUP3 ADD MSTORE PUSH9 0x2737BA1037BBB732B9 PUSH1 0xB9 SHL PUSH1 0x44 DUP3 ADD MSTORE PUSH1 0x64 SWAP1 REVERT JUMPDEST SWAP2 SWAP1 PUSH1 0x7 DUP3 LT ISZERO PUSH2 0xE84 JUMPI PUSH1 0xFF DUP1 DUP5 SLOAD SWAP3 PUSH1 0x3 SHL SWAP4 AND DUP4 SHL SWAP3 SHL NOT AND OR SWAP1 SSTORE JUMP JUMPDEST PUSH1 0x9 SLOAD SWAP1 PUSH1 0x0 JUMPDEST DUP3 DUP2 LT PUSH2 0x1F44 JUMPI POP POP POP PUSH1 0x0 SWAP1 JUMP JUMPDEST PUSH1 0xFF PUSH2 0x1F4F DUP3 PUSH2 0xFFB JUMP JUMPDEST SWAP1 SLOAD SWAP1 PUSH1 0x3 SHL SHR AND PUSH1 0x7 DUP1 DUP5 LT ISZERO PUSH2 0xE84 JUMPI DUP2 LT ISZERO PUSH2 0xE84 JUMPI DUP3 EQ PUSH2 0x1F7C JUMPI PUSH2 0x1F77 SWAP1 PUSH2 0x1516 JUMP JUMPDEST PUSH2 0x1F35 JUMP JUMPDEST POP POP POP PUSH1 0x1 SWAP1 JUMP INVALID LOG2 PUSH5 0x6970667358 0x22 SLT KECCAK256 0xC4 0xE7 MOD 0x22 0xBB PUSH12 0xA8332FC98D69590EC6587137 0xD9 SWAP12 SWAP8 DUP12 KECCAK256 ORIGIN SWAP1 0xBC SWAP9 LOG2 CALLDATALOAD STOP SWAP14 DUP7 PUSH5 0x736F6C6343 STOP ADDMOD EQ STOP CALLER "},"methodIdentifiers":{"ADDRESSES_PROVIDER()":"0542975c","POOL()":"7535d246","SUSHISWAP_ROUTER()":"277754ed","UNISWAP_ROUTER()":"d8264920","WBTC()":"4dede3de","WETH()":"ad5c4648","activeNetworks(uint256)":"1e9c47c6","approveToken(address,bool)":"0c0e0cef","approvedTokens(address)":"6d1ea3fa","executeOperation(address[],uint256[],uint256[],address,bytes)":"920f5c84","executeTrade(uint8,address,uint256,uint256,bool,uint256)":"f8242f1a","feePercentage()":"a001ecdd","feeRecipient()":"46904840","getProfit(address)":"c600e1dc","isTokenApproved(address)":"9d93d352","minProfitThreshold()":"7341ab8c","networkConfigs(uint8)":"df564196","owner()":"8da5cb5b","paused()":"5c975abb","profits(address)":"cc85f080","setFeePercentage(uint256)":"ae06c1b7","setMinProfitThreshold(uint256)":"c0286465","setPaused(bool)":"16c38b3c","updateNetwork(uint8,address,uint256,bool)":"05c47460","withdraw(address)":"51cff8d9"}}}}}