{"contracts/ArbTrader.sol":{"ArbTrader":{"abi":[{"inputs":[],"name":"executeTrade","outputs":[],"stateMutability":"payable","type":"function"}],"evm":{"bytecode":{"linkReferences":{},"object":"608080604052346013576067908160198239f35b600080fdfe6004361015600c57600080fd5b6000803560e01c63e0c70b6614602157600080fd5b80600319360112602e5780f35b80fdfea26469706673582212200b2cf68903c5c5ec72c102a834647597d23d36054ff2ce64a61425fb15c9f88d64736f6c63430008140033","opcodes":"PUSH1 0x80 DUP1 PUSH1 0x40 MSTORE CALLVALUE PUSH1 0x13 JUMPI PUSH1 0x67 SWAP1 DUP2 PUSH1 0x19 DUP3 CODECOPY RETURN JUMPDEST PUSH1 0x0 DUP1 REVERT INVALID PUSH1 0x4 CALLDATASIZE LT ISZERO PUSH1 0xC JUMPI PUSH1 0x0 DUP1 REVERT JUMPDEST PUSH1 0x0 DUP1 CALLDATALOAD PUSH1 0xE0 SHR PUSH4 0xE0C70B66 EQ PUSH1 0x21 JUMPI PUSH1 0x0 DUP1 REVERT JUMPDEST DUP1 PUSH1 0x3 NOT CALLDATASIZE ADD SLT PUSH1 0x2E JUMPI DUP1 RETURN JUMPDEST DUP1 REVERT INVALID LOG2 PUSH5 0x6970667358 0x22 SLT KECCAK256 SIGNEXTEND 0x2C 0xF6 DUP10 SUB 0xC5 0xC5 0xEC PUSH19 0xC102A834647597D23D36054FF2CE64A61425FB ISZERO 0xC9 0xF8 DUP14 PUSH5 0x736F6C6343 STOP ADDMOD EQ STOP CALLER "},"methodIdentifiers":{"executeTrade()":"e0c70b66"}}}}}