{"contracts/FlashLoanArbitrage.sol":{"FlashLoanArbitrage":{"abi":[{"inputs":[],"stateMutability":"nonpayable","type":"constructor"},{"inputs":[{"internalType":"address","name":"","type":"address"},{"internalType":"bytes","name":"data","type":"bytes"}],"name":"callFunction","outputs":[],"stateMutability":"nonpayable","type":"function"},{"inputs":[{"internalType":"uint256","name":"amount","type":"uint256"}],"name":"executeFlashLoan","outputs":[],"stateMutability":"nonpayable","type":"function"},{"inputs":[],"name":"owner","outputs":[{"internalType":"address","name":"","type":"address"}],"stateMutability":"view","type":"function"},{"stateMutability":"payable","type":"receive"}],"evm":{"bytecode":{"linkReferences":{},"object":"6080806040523461002857600080546001600160a01b03191633179055610996908161002e8239f35b600080fdfe608080604052600436101561001d575b50361561001b57600080fd5b005b600090813560e01c9081638da5cb5b1461083e575080639c23da50146103185763fb056f680361000f573461031557602036600319011261031557805460043591906001600160a01b031633036102e35760405161007a81610895565b60018152602036818301373061008f826108d3565b526040519261009d84610895565b60018452825b6020811061029c5750604051816020820152602081526100c281610895565b604051916100cf83610862565b6002835284602084015260408301528360608301528360808301523060a08301528360c083015260e0820152610104846108d3565b5261010e836108d3565b50731e0447b19bb6ecfdae1e4ae1694b0c3659614e4e3b156102985761014c604051916312c9ef7160e31b8352604060048401526044830190610906565b600319828203016024830152835180825260208201916020808360051b83010196019285915b8383106101db5786868181808c038183731e0447b19bb6ecfdae1e4ae1694b0c3659614e4e5af180156101d0576101a7575080f35b67ffffffffffffffff81116101bc5760405280f35b634e487b7160e01b82526041600452602482fd5b6040513d84823e3d90fd5b9091929396601f1982820301835260e0885160ff81511683526020810151602084015260408101516040840152606081015160608401526080810151608084015260018060a01b0360a08201511660a084015260c081015160c0840152015190610100918260e083015280518093830152885b838110610281575050808201610120908101899052601f909201601f191601019660209081019493600101920190610172565b80602080928401015161012082860101520161024e565b5080fd5b6020906040516102ab81610862565b8581528583820152856040820152606086818301528660808301528660a08301528660c083015260e0820152828288010152016100a3565b60405162461bcd60e51b815260206004820152600a60248201526927b7363c9037bbb732b960b11b6044820152606490fd5b80fd5b5034610315576040366003190112610315576001600160a01b036004358181160361029857602480359167ffffffffffffffff9081841161083a573660238501121561083a578360040135828111610836578401368482011161083657731e0447b19bb6ecfdae1e4ae1694b0c3659614e4e90813303610806578587916020978891031261029857850135936040519363095ea7b360e01b91828652737a250d5630b4cf539739df2c5dacb4c659f2488d80600488015287898801526044968a81898173b4fbf271143f4fbf7b91a5ded31805e42b2208d6998a5af180156107fb576107de575b506040519060608201828110848211176107a957604052600282526040368c8401378561042b836108d3565b527311fe4b6ae13d2a6055c8d9cf65c55bac32b5d844918261044c826108f6565b52603c4201908142116107cb578d8a938d828e81999896610493839760a06040519b8c998a9889976338ed173960e01b8952600489015287015285015260a4840190610906565b90306064840152608483015203925af19283156107c0578b938d938b9287926106f7575b5050906104c6869493926108f6565b5197604051948593849283528a73a2b47e3d5c44877cca798226b7b8118f9bfb7a56988960048601528401525af180156105f7578b936001936084938d936106da575b506040519788958694630f7c084960e21b86528460048701528501528b8401528160648401525af19182156106cf57899261069c575b508560011b8681046002148715171561068957612710900486018096116106765785821061063d5760405163a9059cbb60e01b9485825260048201528688820152888187818d885af1801561063257610615575b5088541694810390811161060257869493929188916040519788968795865260048601528401525af180156105f7576105ca578280f35b816105e992903d106105f0575b6105e181836108b1565b810190610943565b5038808280f35b503d6105d7565b6040513d85823e3d90fd5b634e487b7160e01b885260116004528588fd5b61062b90893d8b116105f0576105e181836108b1565b5038610593565b6040513d8c823e3d90fd5b60405162461bcd60e51b81526004810189905260138189015272125b9cdd59999a58da595b9d081c1c9bd99a5d606a1b81870152606490fd5b634e487b7160e01b895260116004528689fd5b634e487b7160e01b8a526011600452878afd5b9091508781813d83116106c8575b6106b481836108b1565b810103126106c45751903861053f565b8880fd5b503d6106aa565b6040513d8b823e3d90fd5b6106f090873d89116105f0576105e181836108b1565b5038610509565b94509450505092503d808d843e61070e81846108b1565b8201918b818403126107bc578051908282116107a5570182601f820112156107bc5780519182116107a957908b92918160051b91610751604051958401866108b1565b84528c808501928201019283116107a5578b938d938f9693858d9401905b82821061078457506104c691508790506104b7565b9195935080949750839296505181520191018b938d938f9693928c9361076f565b8d80fd5b634e487b7160e01b8d5260416004528a8dfd5b8c80fd5b6040513d86823e3d90fd5b634e487b7160e01b8e5260116004528b8efd5b6107f4908b3d8d116105f0576105e181836108b1565b50386103ff565b6040513d8e823e3d90fd5b60405162461bcd60e51b8152602060048201526009818701526809edcd8f240c8b2c8b60bb1b6044820152606490fd5b8580fd5b8480fd5b90503461029857816003193601126102985790546001600160a01b03168152602090f35b610100810190811067ffffffffffffffff82111761087f57604052565b634e487b7160e01b600052604160045260246000fd5b6040810190811067ffffffffffffffff82111761087f57604052565b90601f8019910116810190811067ffffffffffffffff82111761087f57604052565b8051156108e05760200190565b634e487b7160e01b600052603260045260246000fd5b8051600110156108e05760400190565b90815180825260208080930193019160005b828110610926575050505090565b83516001600160a01b031685529381019392810192600101610918565b9081602091031261095b5751801515810361095b5790565b600080fdfea2646970667358221220c3691a78b038f91cd82d5de9e1fbed855562d13ba4217cc385f441cef5954a7164736f6c63430008140033","opcodes":"PUSH1 0x80 DUP1 PUSH1 0x40 MSTORE CALLVALUE PUSH2 0x28 JUMPI PUSH1 0x0 DUP1 SLOAD PUSH1 0x1 PUSH1 0x1 PUSH1 0xA0 SHL SUB NOT AND CALLER OR SWAP1 SSTORE PUSH2 0x996 SWAP1 DUP2 PUSH2 0x2E DUP3 CODECOPY RETURN JUMPDEST PUSH1 0x0 DUP1 REVERT INVALID PUSH1 0x80 DUP1 PUSH1 0x40 MSTORE PUSH1 0x4 CALLDATASIZE LT ISZERO PUSH2 0x1D JUMPI JUMPDEST POP CALLDATASIZE ISZERO PUSH2 0x1B JUMPI PUSH1 0x0 DUP1 REVERT JUMPDEST STOP JUMPDEST PUSH1 0x0 SWAP1 DUP2 CALLDATALOAD PUSH1 0xE0 SHR SWAP1 DUP2 PUSH4 0x8DA5CB5B EQ PUSH2 0x83E JUMPI POP DUP1 PUSH4 0x9C23DA50 EQ PUSH2 0x318 JUMPI PUSH4 0xFB056F68 SUB PUSH2 0xF JUMPI CALLVALUE PUSH2 0x315 JUMPI PUSH1 0x20 CALLDATASIZE PUSH1 0x3 NOT ADD SLT PUSH2 0x315 JUMPI DUP1 SLOAD PUSH1 0x4 CALLDATALOAD SWAP2 SWAP1 PUSH1 0x1 PUSH1 0x1 PUSH1 0xA0 SHL SUB AND CALLER SUB PUSH2 0x2E3 JUMPI PUSH1 0x40 MLOAD PUSH2 0x7A DUP2 PUSH2 0x895 JUMP JUMPDEST PUSH1 0x1 DUP2 MSTORE PUSH1 0x20 CALLDATASIZE DUP2 DUP4 ADD CALLDATACOPY ADDRESS PUSH2 0x8F DUP3 PUSH2 0x8D3 JUMP JUMPDEST MSTORE PUSH1 0x40 MLOAD SWAP3 PUSH2 0x9D DUP5 PUSH2 0x895 JUMP JUMPDEST PUSH1 0x1 DUP5 MSTORE DUP3 JUMPDEST PUSH1 0x20 DUP2 LT PUSH2 0x29C JUMPI POP PUSH1 0x40 MLOAD DUP2 PUSH1 0x20 DUP3 ADD MSTORE PUSH1 0x20 DUP2 MSTORE PUSH2 0xC2 DUP2 PUSH2 0x895 JUMP JUMPDEST PUSH1 0x40 MLOAD SWAP2 PUSH2 0xCF DUP4 PUSH2 0x862 JUMP JUMPDEST PUSH1 0x2 DUP4 MSTORE DUP5 PUSH1 0x20 DUP5 ADD MSTORE PUSH1 0x40 DUP4 ADD MSTORE DUP4 PUSH1 0x60 DUP4 ADD MSTORE DUP4 PUSH1 0x80 DUP4 ADD MSTORE ADDRESS PUSH1 0xA0 DUP4 ADD MSTORE DUP4 PUSH1 0xC0 DUP4 ADD MSTORE PUSH1 0xE0 DUP3 ADD MSTORE PUSH2 0x104 DUP5 PUSH2 0x8D3 JUMP JUMPDEST MSTORE PUSH2 0x10E DUP4 PUSH2 0x8D3 JUMP JUMPDEST POP PUSH20 0x1E0447B19BB6ECFDAE1E4AE1694B0C3659614E4E EXTCODESIZE ISZERO PUSH2 0x298 JUMPI PUSH2 0x14C PUSH1 0x40 MLOAD SWAP2 PUSH4 0x12C9EF71 PUSH1 0xE3 SHL DUP4 MSTORE PUSH1 0x40 PUSH1 0x4 DUP5 ADD MSTORE PUSH1 0x44 DUP4 ADD SWAP1 PUSH2 0x906 JUMP JUMPDEST PUSH1 0x3 NOT DUP3 DUP3 SUB ADD PUSH1 0x24 DUP4 ADD MSTORE DUP4 MLOAD DUP1 DUP3 MSTORE PUSH1 0x20 DUP3 ADD SWAP2 PUSH1 0x20 DUP1 DUP4 PUSH1 0x5 SHL DUP4 ADD ADD SWAP7 ADD SWAP3 DUP6 SWAP2 JUMPDEST DUP4 DUP4 LT PUSH2 0x1DB JUMPI DUP7 DUP7 DUP2 DUP2 DUP1 DUP13 SUB DUP2 DUP4 PUSH20 0x1E0447B19BB6ECFDAE1E4AE1694B0C3659614E4E GAS CALL DUP1 ISZERO PUSH2 0x1D0 JUMPI PUSH2 0x1A7 JUMPI POP DUP1 RETURN JUMPDEST PUSH8 0xFFFFFFFFFFFFFFFF DUP2 GT PUSH2 0x1BC JUMPI PUSH1 0x40 MSTORE DUP1 RETURN JUMPDEST PUSH4 0x4E487B71 PUSH1 0xE0 SHL DUP3 MSTORE PUSH1 0x41 PUSH1 0x4 MSTORE PUSH1 0x24 DUP3 REVERT JUMPDEST PUSH1 0x40 MLOAD RETURNDATASIZE DUP5 DUP3 RETURNDATACOPY RETURNDATASIZE SWAP1 REVERT JUMPDEST SWAP1 SWAP2 SWAP3 SWAP4 SWAP7 PUSH1 0x1F NOT DUP3 DUP3 SUB ADD DUP4 MSTORE PUSH1 0xE0 DUP9 MLOAD PUSH1 0xFF DUP2 MLOAD AND DUP4 MSTORE PUSH1 0x20 DUP2 ADD MLOAD PUSH1 0x20 DUP5 ADD MSTORE PUSH1 0x40 DUP2 ADD MLOAD PUSH1 0x40 DUP5 ADD MSTORE PUSH1 0x60 DUP2 ADD MLOAD PUSH1 0x60 DUP5 ADD MSTORE PUSH1 0x80 DUP2 ADD MLOAD PUSH1 0x80 DUP5 ADD MSTORE PUSH1 0x1 DUP1 PUSH1 0xA0 SHL SUB PUSH1 0xA0 DUP3 ADD MLOAD AND PUSH1 0xA0 DUP5 ADD MSTORE PUSH1 0xC0 DUP2 ADD MLOAD PUSH1 0xC0 DUP5 ADD MSTORE ADD MLOAD SWAP1 PUSH2 0x100 SWAP2 DUP3 PUSH1 0xE0 DUP4 ADD MSTORE DUP1 MLOAD DUP1 SWAP4 DUP4 ADD MSTORE DUP9 JUMPDEST DUP4 DUP2 LT PUSH2 0x281 JUMPI POP POP DUP1 DUP3 ADD PUSH2 0x120 SWAP1 DUP2 ADD DUP10 SWAP1 MSTORE PUSH1 0x1F SWAP1 SWAP3 ADD PUSH1 0x1F NOT AND ADD ADD SWAP7 PUSH1 0x20 SWAP1 DUP2 ADD SWAP5 SWAP4 PUSH1 0x1 ADD SWAP3 ADD SWAP1 PUSH2 0x172 JUMP JUMPDEST DUP1 PUSH1 0x20 DUP1 SWAP3 DUP5 ADD ADD MLOAD PUSH2 0x120 DUP3 DUP7 ADD ADD MSTORE ADD PUSH2 0x24E JUMP JUMPDEST POP DUP1 REVERT JUMPDEST PUSH1 0x20 SWAP1 PUSH1 0x40 MLOAD PUSH2 0x2AB DUP2 PUSH2 0x862 JUMP JUMPDEST DUP6 DUP2 MSTORE DUP6 DUP4 DUP3 ADD MSTORE DUP6 PUSH1 0x40 DUP3 ADD MSTORE PUSH1 0x60 DUP7 DUP2 DUP4 ADD MSTORE DUP7 PUSH1 0x80 DUP4 ADD MSTORE DUP7 PUSH1 0xA0 DUP4 ADD MSTORE DUP7 PUSH1 0xC0 DUP4 ADD MSTORE PUSH1 0xE0 DUP3 ADD MSTORE DUP3 DUP3 DUP9 ADD ADD MSTORE ADD PUSH2 0xA3 JUMP JUMPDEST PUSH1 0x40 MLOAD PUSH3 0x461BCD PUSH1 0xE5 SHL DUP2 MSTORE PUSH1 0x20 PUSH1 0x4 DUP3 ADD MSTORE PUSH1 0xA PUSH1 0x24 DUP3 ADD MSTORE PUSH10 0x27B7363C9037BBB732B9 PUSH1 0xB1 SHL PUSH1 0x44 DUP3 ADD MSTORE PUSH1 0x64 SWAP1 REVERT JUMPDEST DUP1 REVERT JUMPDEST POP CALLVALUE PUSH2 0x315 JUMPI PUSH1 0x40 CALLDATASIZE PUSH1 0x3 NOT ADD SLT PUSH2 0x315 JUMPI PUSH1 0x1 PUSH1 0x1 PUSH1 0xA0 SHL SUB PUSH1 0x4 CALLDATALOAD DUP2 DUP2 AND SUB PUSH2 0x298 JUMPI PUSH1 0x24 DUP1 CALLDATALOAD SWAP2 PUSH8 0xFFFFFFFFFFFFFFFF SWAP1 DUP2 DUP5 GT PUSH2 0x83A JUMPI CALLDATASIZE PUSH1 0x23 DUP6 ADD SLT ISZERO PUSH2 0x83A JUMPI DUP4 PUSH1 0x4 ADD CALLDATALOAD DUP3 DUP2 GT PUSH2 0x836 JUMPI DUP5 ADD CALLDATASIZE DUP5 DUP3 ADD GT PUSH2 0x836 JUMPI PUSH20 0x1E0447B19BB6ECFDAE1E4AE1694B0C3659614E4E SWAP1 DUP2 CALLER SUB PUSH2 0x806 JUMPI DUP6 DUP8 SWAP2 PUSH1 0x20 SWAP8 DUP9 SWAP2 SUB SLT PUSH2 0x298 JUMPI DUP6 ADD CALLDATALOAD SWAP4 PUSH1 0x40 MLOAD SWAP4 PUSH4 0x95EA7B3 PUSH1 0xE0 SHL SWAP2 DUP3 DUP7 MSTORE PUSH20 0x7A250D5630B4CF539739DF2C5DACB4C659F2488D DUP1 PUSH1 0x4 DUP9 ADD MSTORE DUP8 DUP10 DUP9 ADD MSTORE PUSH1 0x44 SWAP7 DUP11 DUP2 DUP10 DUP2 PUSH20 0xB4FBF271143F4FBF7B91A5DED31805E42B2208D6 SWAP10 DUP11 GAS CALL DUP1 ISZERO PUSH2 0x7FB JUMPI PUSH2 0x7DE JUMPI JUMPDEST POP PUSH1 0x40 MLOAD SWAP1 PUSH1 0x60 DUP3 ADD DUP3 DUP2 LT DUP5 DUP3 GT OR PUSH2 0x7A9 JUMPI PUSH1 0x40 MSTORE PUSH1 0x2 DUP3 MSTORE PUSH1 0x40 CALLDATASIZE DUP13 DUP5 ADD CALLDATACOPY DUP6 PUSH2 0x42B DUP4 PUSH2 0x8D3 JUMP JUMPDEST MSTORE PUSH20 0x11FE4B6AE13D2A6055C8D9CF65C55BAC32B5D844 SWAP2 DUP3 PUSH2 0x44C DUP3 PUSH2 0x8F6 JUMP JUMPDEST MSTORE PUSH1 0x3C TIMESTAMP ADD SWAP1 DUP2 TIMESTAMP GT PUSH2 0x7CB JUMPI DUP14 DUP11 SWAP4 DUP14 DUP3 DUP15 DUP2 SWAP10 SWAP9 SWAP7 PUSH2 0x493 DUP4 SWAP8 PUSH1 0xA0 PUSH1 0x40 MLOAD SWAP12 DUP13 SWAP10 DUP11 SWAP9 DUP10 SWAP8 PUSH4 0x38ED1739 PUSH1 0xE0 SHL DUP10 MSTORE PUSH1 0x4 DUP10 ADD MSTORE DUP8 ADD MSTORE DUP6 ADD MSTORE PUSH1 0xA4 DUP5 ADD SWAP1 PUSH2 0x906 JUMP JUMPDEST SWAP1 ADDRESS PUSH1 0x64 DUP5 ADD MSTORE PUSH1 0x84 DUP4 ADD MSTORE SUB SWAP3 GAS CALL SWAP3 DUP4 ISZERO PUSH2 0x7C0 JUMPI DUP12 SWAP4 DUP14 SWAP4 DUP12 SWAP3 DUP8 SWAP3 PUSH2 0x6F7 JUMPI JUMPDEST POP POP SWAP1 PUSH2 0x4C6 DUP7 SWAP5 SWAP4 SWAP3 PUSH2 0x8F6 JUMP JUMPDEST MLOAD SWAP8 PUSH1 0x40 MLOAD SWAP5 DUP6 SWAP4 DUP5 SWAP3 DUP4 MSTORE DUP11 PUSH20 0xA2B47E3D5C44877CCA798226B7B8118F9BFB7A56 SWAP9 DUP10 PUSH1 0x4 DUP7 ADD MSTORE DUP5 ADD MSTORE GAS CALL DUP1 ISZERO PUSH2 0x5F7 JUMPI DUP12 SWAP4 PUSH1 0x1 SWAP4 PUSH1 0x84 SWAP4 DUP14 SWAP4 PUSH2 0x6DA JUMPI JUMPDEST POP PUSH1 0x40 MLOAD SWAP8 DUP9 SWAP6 DUP7 SWAP5 PUSH4 0xF7C0849 PUSH1 0xE2 SHL DUP7 MSTORE DUP5 PUSH1 0x4 DUP8 ADD MSTORE DUP6 ADD MSTORE DUP12 DUP5 ADD MSTORE DUP2 PUSH1 0x64 DUP5 ADD MSTORE GAS CALL SWAP2 DUP3 ISZERO PUSH2 0x6CF JUMPI DUP10 SWAP3 PUSH2 0x69C JUMPI JUMPDEST POP DUP6 PUSH1 0x1 SHL DUP7 DUP2 DIV PUSH1 0x2 EQ DUP8 ISZERO OR ISZERO PUSH2 0x689 JUMPI PUSH2 0x2710 SWAP1 DIV DUP7 ADD DUP1 SWAP7 GT PUSH2 0x676 JUMPI DUP6 DUP3 LT PUSH2 0x63D JUMPI PUSH1 0x40 MLOAD PUSH4 0xA9059CBB PUSH1 0xE0 SHL SWAP5 DUP6 DUP3 MSTORE PUSH1 0x4 DUP3 ADD MSTORE DUP7 DUP9 DUP3 ADD MSTORE DUP9 DUP2 DUP8 DUP2 DUP14 DUP9 GAS CALL DUP1 ISZERO PUSH2 0x632 JUMPI PUSH2 0x615 JUMPI JUMPDEST POP DUP9 SLOAD AND SWAP5 DUP2 SUB SWAP1 DUP2 GT PUSH2 0x602 JUMPI DUP7 SWAP5 SWAP4 SWAP3 SWAP2 DUP9 SWAP2 PUSH1 0x40 MLOAD SWAP8 DUP9 SWAP7 DUP8 SWAP6 DUP7 MSTORE PUSH1 0x4 DUP7 ADD MSTORE DUP5 ADD MSTORE GAS CALL DUP1 ISZERO PUSH2 0x5F7 JUMPI PUSH2 0x5CA JUMPI DUP3 DUP1 RETURN JUMPDEST DUP2 PUSH2 0x5E9 SWAP3 SWAP1 RETURNDATASIZE LT PUSH2 0x5F0 JUMPI JUMPDEST PUSH2 0x5E1 DUP2 DUP4 PUSH2 0x8B1 JUMP JUMPDEST DUP2 ADD SWAP1 PUSH2 0x943 JUMP JUMPDEST POP CODESIZE DUP1 DUP3 DUP1 RETURN JUMPDEST POP RETURNDATASIZE PUSH2 0x5D7 JUMP JUMPDEST PUSH1 0x40 MLOAD RETURNDATASIZE DUP6 DUP3 RETURNDATACOPY RETURNDATASIZE SWAP1 REVERT JUMPDEST PUSH4 0x4E487B71 PUSH1 0xE0 SHL DUP9 MSTORE PUSH1 0x11 PUSH1 0x4 MSTORE DUP6 DUP9 REVERT JUMPDEST PUSH2 0x62B SWAP1 DUP10 RETURNDATASIZE DUP12 GT PUSH2 0x5F0 JUMPI PUSH2 0x5E1 DUP2 DUP4 PUSH2 0x8B1 JUMP JUMPDEST POP CODESIZE PUSH2 0x593 JUMP JUMPDEST PUSH1 0x40 MLOAD RETURNDATASIZE DUP13 DUP3 RETURNDATACOPY RETURNDATASIZE SWAP1 REVERT JUMPDEST PUSH1 0x40 MLOAD PUSH3 0x461BCD PUSH1 0xE5 SHL DUP2 MSTORE PUSH1 0x4 DUP2 ADD DUP10 SWAP1 MSTORE PUSH1 0x13 DUP2 DUP10 ADD MSTORE PUSH19 0x125B9CDD59999A58DA595B9D081C1C9BD99A5D PUSH1 0x6A SHL DUP2 DUP8 ADD MSTORE PUSH1 0x64 SWAP1 REVERT JUMPDEST PUSH4 0x4E487B71 PUSH1 0xE0 SHL DUP10 MSTORE PUSH1 0x11 PUSH1 0x4 MSTORE DUP7 DUP10 REVERT JUMPDEST PUSH4 0x4E487B71 PUSH1 0xE0 SHL DUP11 MSTORE PUSH1 0x11 PUSH1 0x4 MSTORE DUP8 DUP11 REVERT JUMPDEST SWAP1 SWAP2 POP DUP8 DUP2 DUP2 RETURNDATASIZE DUP4 GT PUSH2 0x6C8 JUMPI JUMPDEST PUSH2 0x6B4 DUP2 DUP4 PUSH2 0x8B1 JUMP JUMPDEST DUP2 ADD SUB SLT PUSH2 0x6C4 JUMPI MLOAD SWAP1 CODESIZE PUSH2 0x53F JUMP JUMPDEST DUP9 DUP1 REVERT JUMPDEST POP RETURNDATASIZE PUSH2 0x6AA JUMP JUMPDEST PUSH1 0x40 MLOAD RETURNDATASIZE DUP12 DUP3 RETURNDATACOPY RETURNDATASIZE SWAP1 REVERT JUMPDEST PUSH2 0x6F0 SWAP1 DUP8 RETURNDATASIZE DUP10 GT PUSH2 0x5F0 JUMPI PUSH2 0x5E1 DUP2 DUP4 PUSH2 0x8B1 JUMP JUMPDEST POP CODESIZE PUSH2 0x509 JUMP JUMPDEST SWAP5 POP SWAP5 POP POP POP SWAP3 POP RETURNDATASIZE DUP1 DUP14 DUP5 RETURNDATACOPY PUSH2 0x70E DUP2 DUP5 PUSH2 0x8B1 JUMP JUMPDEST DUP3 ADD SWAP2 DUP12 DUP2 DUP5 SUB SLT PUSH2 0x7BC JUMPI DUP1 MLOAD SWAP1 DUP3 DUP3 GT PUSH2 0x7A5 JUMPI ADD DUP3 PUSH1 0x1F DUP3 ADD SLT ISZERO PUSH2 0x7BC JUMPI DUP1 MLOAD SWAP2 DUP3 GT PUSH2 0x7A9 JUMPI SWAP1 DUP12 SWAP3 SWAP2 DUP2 PUSH1 0x5 SHL SWAP2 PUSH2 0x751 PUSH1 0x40 MLOAD SWAP6 DUP5 ADD DUP7 PUSH2 0x8B1 JUMP JUMPDEST DUP5 MSTORE DUP13 DUP1 DUP6 ADD SWAP3 DUP3 ADD ADD SWAP3 DUP4 GT PUSH2 0x7A5 JUMPI DUP12 SWAP4 DUP14 SWAP4 DUP16 SWAP7 SWAP4 DUP6 DUP14 SWAP5 ADD SWAP1 JUMPDEST DUP3 DUP3 LT PUSH2 0x784 JUMPI POP PUSH2 0x4C6 SWAP2 POP DUP8 SWAP1 POP PUSH2 0x4B7 JUMP JUMPDEST SWAP2 SWAP6 SWAP4 POP DUP1 SWAP5 SWAP8 POP DUP4 SWAP3 SWAP7 POP MLOAD DUP2 MSTORE ADD SWAP2 ADD DUP12 SWAP4 DUP14 SWAP4 DUP16 SWAP7 SWAP4 SWAP3 DUP13 SWAP4 PUSH2 0x76F JUMP JUMPDEST DUP14 DUP1 REVERT JUMPDEST PUSH4 0x4E487B71 PUSH1 0xE0 SHL DUP14 MSTORE PUSH1 0x41 PUSH1 0x4 MSTORE DUP11 DUP14 REVERT JUMPDEST DUP13 DUP1 REVERT JUMPDEST PUSH1 0x40 MLOAD RETURNDATASIZE DUP7 DUP3 RETURNDATACOPY RETURNDATASIZE SWAP1 REVERT JUMPDEST PUSH4 0x4E487B71 PUSH1 0xE0 SHL DUP15 MSTORE PUSH1 0x11 PUSH1 0x4 MSTORE DUP12 DUP15 REVERT JUMPDEST PUSH2 0x7F4 SWAP1 DUP12 RETURNDATASIZE DUP14 GT PUSH2 0x5F0 JUMPI PUSH2 0x5E1 DUP2 DUP4 PUSH2 0x8B1 JUMP JUMPDEST POP CODESIZE PUSH2 0x3FF JUMP JUMPDEST PUSH1 0x40 MLOAD RETURNDATASIZE DUP15 DUP3 RETURNDATACOPY RETURNDATASIZE SWAP1 REVERT JUMPDEST PUSH1 0x40 MLOAD PUSH3 0x461BCD PUSH1 0xE5 SHL DUP2 MSTORE PUSH1 0x20 PUSH1 0x4 DUP3 ADD MSTORE PUSH1 0x9 DUP2 DUP8 ADD MSTORE PUSH9 0x9EDCD8F240C8B2C8B PUSH1 0xBB SHL PUSH1 0x44 DUP3 ADD MSTORE PUSH1 0x64 SWAP1 REVERT JUMPDEST DUP6 DUP1 REVERT JUMPDEST DUP5 DUP1 REVERT JUMPDEST SWAP1 POP CALLVALUE PUSH2 0x298 JUMPI DUP2 PUSH1 0x3 NOT CALLDATASIZE ADD SLT PUSH2 0x298 JUMPI SWAP1 SLOAD PUSH1 0x1 PUSH1 0x1 PUSH1 0xA0 SHL SUB AND DUP2 MSTORE PUSH1 0x20 SWAP1 RETURN JUMPDEST PUSH2 0x100 DUP2 ADD SWAP1 DUP2 LT PUSH8 0xFFFFFFFFFFFFFFFF DUP3 GT OR PUSH2 0x87F JUMPI PUSH1 0x40 MSTORE JUMP JUMPDEST PUSH4 0x4E487B71 PUSH1 0xE0 SHL PUSH1 0x0 MSTORE PUSH1 0x41 PUSH1 0x4 MSTORE PUSH1 0x24 PUSH1 0x0 REVERT JUMPDEST PUSH1 0x40 DUP2 ADD SWAP1 DUP2 LT PUSH8 0xFFFFFFFFFFFFFFFF DUP3 GT OR PUSH2 0x87F JUMPI PUSH1 0x40 MSTORE JUMP JUMPDEST SWAP1 PUSH1 0x1F DUP1 NOT SWAP2 ADD AND DUP2 ADD SWAP1 DUP2 LT PUSH8 0xFFFFFFFFFFFFFFFF DUP3 GT OR PUSH2 0x87F JUMPI PUSH1 0x40 MSTORE JUMP JUMPDEST DUP1 MLOAD ISZERO PUSH2 0x8E0 JUMPI PUSH1 0x20 ADD SWAP1 JUMP JUMPDEST PUSH4 0x4E487B71 PUSH1 0xE0 SHL PUSH1 0x0 MSTORE PUSH1 0x32 PUSH1 0x4 MSTORE PUSH1 0x24 PUSH1 0x0 REVERT JUMPDEST DUP1 MLOAD PUSH1 0x1 LT ISZERO PUSH2 0x8E0 JUMPI PUSH1 0x40 ADD SWAP1 JUMP JUMPDEST SWAP1 DUP2 MLOAD DUP1 DUP3 MSTORE PUSH1 0x20 DUP1 DUP1 SWAP4 ADD SWAP4 ADD SWAP2 PUSH1 0x0 JUMPDEST DUP3 DUP2 LT PUSH2 0x926 JUMPI POP POP POP POP SWAP1 JUMP JUMPDEST DUP4 MLOAD PUSH1 0x1 PUSH1 0x1 PUSH1 0xA0 SHL SUB AND DUP6 MSTORE SWAP4 DUP2 ADD SWAP4 SWAP3 DUP2 ADD SWAP3 PUSH1 0x1 ADD PUSH2 0x918 JUMP JUMPDEST SWAP1 DUP2 PUSH1 0x20 SWAP2 SUB SLT PUSH2 0x95B JUMPI MLOAD DUP1 ISZERO ISZERO DUP2 SUB PUSH2 0x95B JUMPI SWAP1 JUMP JUMPDEST PUSH1 0x0 DUP1 REVERT INVALID LOG2 PUSH5 0x6970667358 0x22 SLT KECCAK256 0xC3 PUSH10 0x1A78B038F91CD82D5DE9 0xE1 0xFB 0xED DUP6 SSTORE PUSH3 0xD13BA4 0x21 PUSH29 0xC385F441CEF5954A7164736F6C63430008140033000000000000000000 "},"methodIdentifiers":{"callFunction(address,bytes)":"9c23da50","executeFlashLoan(uint256)":"fb056f68","owner()":"8da5cb5b"}}}}}