{"contracts/HelloWorld.sol":{"HelloWorld":{"abi":[{"inputs":[],"stateMutability":"nonpayable","type":"constructor"},{"inputs":[],"name":"message","outputs":[{"internalType":"string","name":"","type":"string"}],"stateMutability":"view","type":"function"}],"evm":{"bytecode":{"linkReferences":{},"object":"608080604052346100a857600080546001908181811c9116801561009e575b602082101461008a57601f8111610061575b50507f48656c6c6f20576f726c6421000000000000000000000000000000000000001890556101c190816100ae8239f35b828052601f60208420910160051c8101905b8181106100805750610030565b8381558201610073565b634e487b7160e01b83526022600452602483fd5b90607f169061001e565b600080fdfe6080600436101561000f57600080fd5b6000803560e01c63e21f37ce1461002557600080fd5b34610188578060031936011261018857809181549060019382851c85841695861561017e575b602094858310881461016a578585969798848752918260001461014e5750506001146100f7575b5050601f801993849203011681019381851067ffffffffffffffff8611176100e3579291849192604094838652818452845191828186015281955b8387106100cb5750508394508582601f949501015201168101030190f35b868101820151898801890152958101958895506100ad565b634e487b7160e01b81526041600452602490fd5b8680528592508691907f290decd9548b62a8d60345a988386fc84ba6bc95484008f6362f93160ef3e5635b828410610136575050508201013880610072565b80548488018601528695508794909301928101610122565b925093505060ff191682840152151560051b8201013880610072565b634e487b7160e01b87526022600452602487fd5b90607f169061004b565b80fdfea26469706673582212204aa7bfcb1a2ae6d867aebd9989711fc7193424ee1f5036f99cc0f17a0715118864736f6c63430008140033","opcodes":"PUSH1 0x80 DUP1 PUSH1 0x40 MSTORE CALLVALUE PUSH2 0xA8 JUMPI PUSH1 0x0 DUP1 SLOAD PUSH1 0x1 SWAP1 DUP2 DUP2 DUP2 SHR SWAP2 AND DUP1 ISZERO PUSH2 0x9E JUMPI JUMPDEST PUSH1 0x20 DUP3 LT EQ PUSH2 0x8A JUMPI PUSH1 0x1F DUP2 GT PUSH2 0x61 JUMPI JUMPDEST POP POP PUSH32 0x48656C6C6F20576F726C64210000000000000000000000000000000000000018 SWAP1 SSTORE PUSH2 0x1C1 SWAP1 DUP2 PUSH2 0xAE DUP3 CODECOPY RETURN JUMPDEST DUP3 DUP1 MSTORE PUSH1 0x1F PUSH1 0x20 DUP5 KECCAK256 SWAP2 ADD PUSH1 0x5 SHR DUP2 ADD SWAP1 JUMPDEST DUP2 DUP2 LT PUSH2 0x80 JUMPI POP PUSH2 0x30 JUMP JUMPDEST DUP4 DUP2 SSTORE DUP3 ADD PUSH2 0x73 JUMP JUMPDEST PUSH4 0x4E487B71 PUSH1 0xE0 SHL DUP4 MSTORE PUSH1 0x22 PUSH1 0x4 MSTORE PUSH1 0x24 DUP4 REVERT JUMPDEST SWAP1 PUSH1 0x7F AND SWAP1 PUSH2 0x1E JUMP JUMPDEST PUSH1 0x0 DUP1 REVERT INVALID PUSH1 0x80 PUSH1 0x4 CALLDATASIZE LT ISZERO PUSH2 0xF JUMPI PUSH1 0x0 DUP1 REVERT JUMPDEST PUSH1 0x0 DUP1 CALLDATALOAD PUSH1 0xE0 SHR PUSH4 0xE21F37CE EQ PUSH2 0x25 JUMPI PUSH1 0x0 DUP1 REVERT JUMPDEST CALLVALUE PUSH2 0x188 JUMPI DUP1 PUSH1 0x3 NOT CALLDATASIZE ADD SLT PUSH2 0x188 JUMPI DUP1 SWAP2 DUP2 SLOAD SWAP1 PUSH1 0x1 SWAP4 DUP3 DUP6 SHR DUP6 DUP5 AND SWAP6 DUP7 ISZERO PUSH2 0x17E JUMPI JUMPDEST PUSH1 0x20 SWAP5 DUP6 DUP4 LT DUP9 EQ PUSH2 0x16A JUMPI DUP6 DUP6 SWAP7 SWAP8 SWAP9 DUP5 DUP8 MSTORE SWAP2 DUP3 PUSH1 0x0 EQ PUSH2 0x14E JUMPI POP POP PUSH1 0x1 EQ PUSH2 0xF7 JUMPI JUMPDEST POP POP PUSH1 0x1F DUP1 NOT SWAP4 DUP5 SWAP3 SUB ADD AND DUP2 ADD SWAP4 DUP2 DUP6 LT PUSH8 0xFFFFFFFFFFFFFFFF DUP7 GT OR PUSH2 0xE3 JUMPI SWAP3 SWAP2 DUP5 SWAP2 SWAP3 PUSH1 0x40 SWAP5 DUP4 DUP7 MSTORE DUP2 DUP5 MSTORE DUP5 MLOAD SWAP2 DUP3 DUP2 DUP7 ADD MSTORE DUP2 SWAP6 JUMPDEST DUP4 DUP8 LT PUSH2 0xCB JUMPI POP POP DUP4 SWAP5 POP DUP6 DUP3 PUSH1 0x1F SWAP5 SWAP6 ADD ADD MSTORE ADD AND DUP2 ADD SUB ADD SWAP1 RETURN JUMPDEST DUP7 DUP2 ADD DUP3 ADD MLOAD DUP10 DUP9 ADD DUP10 ADD MSTORE SWAP6 DUP2 ADD SWAP6 DUP9 SWAP6 POP PUSH2 0xAD JUMP JUMPDEST PUSH4 0x4E487B71 PUSH1 0xE0 SHL DUP2 MSTORE PUSH1 0x41 PUSH1 0x4 MSTORE PUSH1 0x24 SWAP1 REVERT JUMPDEST DUP7 DUP1 MSTORE DUP6 SWAP3 POP DUP7 SWAP2 SWAP1 PUSH32 0x290DECD9548B62A8D60345A988386FC84BA6BC95484008F6362F93160EF3E563 JUMPDEST DUP3 DUP5 LT PUSH2 0x136 JUMPI POP POP POP DUP3 ADD ADD CODESIZE DUP1 PUSH2 0x72 JUMP JUMPDEST DUP1 SLOAD DUP5 DUP9 ADD DUP7 ADD MSTORE DUP7 SWAP6 POP DUP8 SWAP5 SWAP1 SWAP4 ADD SWAP3 DUP2 ADD PUSH2 0x122 JUMP JUMPDEST SWAP3 POP SWAP4 POP POP PUSH1 0xFF NOT AND DUP3 DUP5 ADD MSTORE ISZERO ISZERO PUSH1 0x5 SHL DUP3 ADD ADD CODESIZE DUP1 PUSH2 0x72 JUMP JUMPDEST PUSH4 0x4E487B71 PUSH1 0xE0 SHL DUP8 MSTORE PUSH1 0x22 PUSH1 0x4 MSTORE PUSH1 0x24 DUP8 REVERT JUMPDEST SWAP1 PUSH1 0x7F AND SWAP1 PUSH2 0x4B JUMP JUMPDEST DUP1 REVERT INVALID LOG2 PUSH5 0x6970667358 0x22 SLT KECCAK256 0x4A 0xA7 0xBF 0xCB BYTE 0x2A 0xE6 0xD8 PUSH8 0xAEBD9989711FC719 CALLVALUE 0x24 0xEE 0x1F POP CALLDATASIZE 0xF9 SWAP13 0xC0 CALL PUSH27 0x715118864736F6C63430008140033000000000000000000000000 "},"methodIdentifiers":{"message()":"e21f37ce"}}}}}