{
  "_format": "hh-sol-artifact-1",
  "contractName": "ZeroCapitalArbTrader",
  "sourceName": "contracts/ZeroCapitalArbTrader.sol",
  "abi": [
    {
      "inputs": [
        {
          "internalType": "address payable",
          "name": "_feeRecipient",
          "type": "address"
        },
        {
          "internalType": "enum ZeroCapitalArbTrader.Network[]",
          "name": "initialNetworks",
          "type": "uint8[]"
        },
        {
          "internalType": "address[]",
          "name": "poolProviders",
          "type": "address[]"
        },
        {
          "internalType": "uint256[]",
          "name": "liquidityScores",
          "type": "uint256[]"
        }
      ],
      "stateMutability": "nonpayable",
      "type": "constructor"
    },
    {
      "anonymous": false,
      "inputs": [
        {
          "indexed": true,
          "internalType": "enum ZeroCapitalArbTrader.Network",
          "name": "network",
          "type": "uint8"
        },
        {
          "indexed": true,
          "internalType": "address",
          "name": "token",
          "type": "address"
        },
        {
          "indexed": false,
          "internalType": "uint256",
          "name": "profit",
          "type": "uint256"
        },
        {
          "indexed": false,
          "internalType": "uint256",
          "name": "fee",
          "type": "uint256"
        },
        {
          "indexed": false,
          "internalType": "string",
          "name": "direction",
          "type": "string"
        },
        {
          "indexed": false,
          "internalType": "uint256",
          "name": "timestamp",
          "type": "uint256"
        }
      ],
      "name": "ArbitrageExecuted",
      "type": "event"
    },
    {
      "anonymous": false,
      "inputs": [
        {
          "indexed": false,
          "internalType": "uint256",
          "name": "newFee",
          "type": "uint256"
        }
      ],
      "name": "FeeUpdated",
      "type": "event"
    },
    {
      "anonymous": false,
      "inputs": [
        {
          "indexed": true,
          "internalType": "enum ZeroCapitalArbTrader.Network",
          "name": "network",
          "type": "uint8"
        },
        {
          "indexed": false,
          "internalType": "address",
          "name": "poolProvider",
          "type": "address"
        },
        {
          "indexed": false,
          "internalType": "uint256",
          "name": "liquidityScore",
          "type": "uint256"
        }
      ],
      "name": "NetworkUpdated",
      "type": "event"
    },
    {
      "anonymous": false,
      "inputs": [
        {
          "indexed": false,
          "internalType": "bool",
          "name": "status",
          "type": "bool"
        }
      ],
      "name": "Paused",
      "type": "event"
    },
    {
      "anonymous": false,
      "inputs": [
        {
          "indexed": true,
          "internalType": "enum ZeroCapitalArbTrader.Network",
          "name": "network",
          "type": "uint8"
        },
        {
          "indexed": true,
          "internalType": "address",
          "name": "token",
          "type": "address"
        },
        {
          "indexed": false,
          "internalType": "uint256",
          "name": "uniswapPrice",
          "type": "uint256"
        },
        {
          "indexed": false,
          "internalType": "uint256",
          "name": "sushiswapPrice",
          "type": "uint256"
        },
        {
          "indexed": false,
          "internalType": "uint256",
          "name": "priceDiff",
          "type": "uint256"
        }
      ],
      "name": "PriceData",
      "type": "event"
    },
    {
      "anonymous": false,
      "inputs": [
        {
          "indexed": true,
          "internalType": "address",
          "name": "token",
          "type": "address"
        },
        {
          "indexed": false,
          "internalType": "bool",
          "name": "status",
          "type": "bool"
        }
      ],
      "name": "TokenApproval",
      "type": "event"
    },
    {
      "anonymous": false,
      "inputs": [
        {
          "indexed": true,
          "internalType": "enum ZeroCapitalArbTrader.Network",
          "name": "network",
          "type": "uint8"
        },
        {
          "indexed": true,
          "internalType": "address",
          "name": "token",
          "type": "address"
        },
        {
          "indexed": false,
          "internalType": "string",
          "name": "reason",
          "type": "string"
        }
      ],
      "name": "TradeFailed",
      "type": "event"
    },
    {
      "inputs": [],
      "name": "ADDRESSES_PROVIDER",
      "outputs": [
        {
          "internalType": "contract IPoolAddressesProvider",
          "name": "",
          "type": "address"
        }
      ],
      "stateMutability": "view",
      "type": "function"
    },
    {
      "inputs": [],
      "name": "POOL",
      "outputs": [
        {
          "internalType": "contract IPool",
          "name": "",
          "type": "address"
        }
      ],
      "stateMutability": "view",
      "type": "function"
    },
    {
      "inputs": [],
      "name": "SUSHISWAP_ROUTER",
      "outputs": [
        {
          "internalType": "address",
          "name": "",
          "type": "address"
        }
      ],
      "stateMutability": "view",
      "type": "function"
    },
    {
      "inputs": [],
      "name": "UNISWAP_ROUTER",
      "outputs": [
        {
          "internalType": "address",
          "name": "",
          "type": "address"
        }
      ],
      "stateMutability": "view",
      "type": "function"
    },
    {
      "inputs": [],
      "name": "WBTC",
      "outputs": [
        {
          "internalType": "address",
          "name": "",
          "type": "address"
        }
      ],
      "stateMutability": "view",
      "type": "function"
    },
    {
      "inputs": [],
      "name": "WETH",
      "outputs": [
        {
          "internalType": "address",
          "name": "",
          "type": "address"
        }
      ],
      "stateMutability": "view",
      "type": "function"
    },
    {
      "inputs": [
        {
          "internalType": "uint256",
          "name": "",
          "type": "uint256"
        }
      ],
      "name": "activeNetworks",
      "outputs": [
        {
          "internalType": "enum ZeroCapitalArbTrader.Network",
          "name": "",
          "type": "uint8"
        }
      ],
      "stateMutability": "view",
      "type": "function"
    },
    {
      "inputs": [
        {
          "internalType": "address",
          "name": "token",
          "type": "address"
        },
        {
          "internalType": "bool",
          "name": "status",
          "type": "bool"
        }
      ],
      "name": "approveToken",
      "outputs": [],
      "stateMutability": "nonpayable",
      "type": "function"
    },
    {
      "inputs": [
        {
          "internalType": "address",
          "name": "",
          "type": "address"
        }
      ],
      "name": "approvedTokens",
      "outputs": [
        {
          "internalType": "bool",
          "name": "",
          "type": "bool"
        }
      ],
      "stateMutability": "view",
      "type": "function"
    },
    {
      "inputs": [
        {
          "internalType": "address[]",
          "name": "assets",
          "type": "address[]"
        },
        {
          "internalType": "uint256[]",
          "name": "amounts",
          "type": "uint256[]"
        },
        {
          "internalType": "uint256[]",
          "name": "premiums",
          "type": "uint256[]"
        },
        {
          "internalType": "address",
          "name": "initiator",
          "type": "address"
        },
        {
          "internalType": "bytes",
          "name": "params",
          "type": "bytes"
        }
      ],
      "name": "executeOperation",
      "outputs": [
        {
          "internalType": "bool",
          "name": "",
          "type": "bool"
        }
      ],
      "stateMutability": "nonpayable",
      "type": "function"
    },
    {
      "inputs": [
        {
          "internalType": "enum ZeroCapitalArbTrader.Network",
          "name": "network",
          "type": "uint8"
        },
        {
          "internalType": "address",
          "name": "token",
          "type": "address"
        },
        {
          "internalType": "uint256",
          "name": "amount",
          "type": "uint256"
        },
        {
          "internalType": "uint256",
          "name": "maxSlippage",
          "type": "uint256"
        },
        {
          "internalType": "bool",
          "name": "buyUniswap",
          "type": "bool"
        },
        {
          "internalType": "uint256",
          "name": "deadline",
          "type": "uint256"
        }
      ],
      "name": "executeTrade",
      "outputs": [
        {
          "internalType": "uint256",
          "name": "",
          "type": "uint256"
        }
      ],
      "stateMutability": "nonpayable",
      "type": "function"
    },
    {
      "inputs": [],
      "name": "feePercentage",
      "outputs": [
        {
          "internalType": "uint256",
          "name": "",
          "type": "uint256"
        }
      ],
      "stateMutability": "view",
      "type": "function"
    },
    {
      "inputs": [],
      "name": "feeRecipient",
      "outputs": [
        {
          "internalType": "address payable",
          "name": "",
          "type": "address"
        }
      ],
      "stateMutability": "view",
      "type": "function"
    },
    {
      "inputs": [
        {
          "internalType": "address",
          "name": "token",
          "type": "address"
        }
      ],
      "name": "getProfit",
      "outputs": [
        {
          "internalType": "uint256",
          "name": "",
          "type": "uint256"
        }
      ],
      "stateMutability": "view",
      "type": "function"
    },
    {
      "inputs": [
        {
          "internalType": "address",
          "name": "token",
          "type": "address"
        }
      ],
      "name": "isTokenApproved",
      "outputs": [
        {
          "internalType": "bool",
          "name": "",
          "type": "bool"
        }
      ],
      "stateMutability": "view",
      "type": "function"
    },
    {
      "inputs": [],
      "name": "minProfitThreshold",
      "outputs": [
        {
          "internalType": "uint256",
          "name": "",
          "type": "uint256"
        }
      ],
      "stateMutability": "view",
      "type": "function"
    },
    {
      "inputs": [
        {
          "internalType": "enum ZeroCapitalArbTrader.Network",
          "name": "",
          "type": "uint8"
        }
      ],
      "name": "networkConfigs",
      "outputs": [
        {
          "internalType": "address",
          "name": "poolProvider",
          "type": "address"
        },
        {
          "internalType": "uint256",
          "name": "liquidityScore",
          "type": "uint256"
        },
        {
          "internalType": "bool",
          "name": "active",
          "type": "bool"
        }
      ],
      "stateMutability": "view",
      "type": "function"
    },
    {
      "inputs": [],
      "name": "owner",
      "outputs": [
        {
          "internalType": "address payable",
          "name": "",
          "type": "address"
        }
      ],
      "stateMutability": "view",
      "type": "function"
    },
    {
      "inputs": [],
      "name": "paused",
      "outputs": [
        {
          "internalType": "bool",
          "name": "",
          "type": "bool"
        }
      ],
      "stateMutability": "view",
      "type": "function"
    },
    {
      "inputs": [
        {
          "internalType": "address",
          "name": "",
          "type": "address"
        }
      ],
      "name": "profits",
      "outputs": [
        {
          "internalType": "uint256",
          "name": "",
          "type": "uint256"
        }
      ],
      "stateMutability": "view",
      "type": "function"
    },
    {
      "inputs": [
        {
          "internalType": "uint256",
          "name": "_fee",
          "type": "uint256"
        }
      ],
      "name": "setFeePercentage",
      "outputs": [],
      "stateMutability": "nonpayable",
      "type": "function"
    },
    {
      "inputs": [
        {
          "internalType": "uint256",
          "name": "_threshold",
          "type": "uint256"
        }
      ],
      "name": "setMinProfitThreshold",
      "outputs": [],
      "stateMutability": "nonpayable",
      "type": "function"
    },
    {
      "inputs": [
        {
          "internalType": "bool",
          "name": "_paused",
          "type": "bool"
        }
      ],
      "name": "setPaused",
      "outputs": [],
      "stateMutability": "nonpayable",
      "type": "function"
    },
    {
      "inputs": [
        {
          "internalType": "enum ZeroCapitalArbTrader.Network",
          "name": "network",
          "type": "uint8"
        },
        {
          "internalType": "address",
          "name": "poolProvider",
          "type": "address"
        },
        {
          "internalType": "uint256",
          "name": "liquidityScore",
          "type": "uint256"
        },
        {
          "internalType": "bool",
          "name": "active",
          "type": "bool"
        }
      ],
      "name": "updateNetwork",
      "outputs": [],
      "stateMutability": "nonpayable",
      "type": "function"
    },
    {
      "inputs": [
        {
          "internalType": "address",
          "name": "token",
          "type": "address"
        }
      ],
      "name": "withdraw",
      "outputs": [],
      "stateMutability": "nonpayable",
      "type": "function"
    },
    {
      "stateMutability": "payable",
      "type": "receive"
    }
  ],
  "bytecode": "0x60c08060405234620005085762002572803803809162000020828562000543565b8339810190608081830312620005085780516001600160a01b0381169290839003620005085760208201516001600160401b038111620005085782019281601f8501121562000508578351620000768162000567565b9462000086604051968762000543565b81865260208087019260051b820101908482116200050857602001915b818310620005285750505060408301516001600160401b038111620005085783019282601f850112156200050857835190620000df8262000567565b94620000ef604051968762000543565b828652602086016020819460051b830101918683116200050857602001905b8282106200050d575050506060810151906001600160401b0382116200050857019280601f8501121562000508578351620001498162000567565b9462000159604051968762000543565b81865260208087019260051b8201019283116200050857602001905b828210620004f7575050508351156200040f57516001600160a01b0316608081905260405163026b1d5f60e01b815290602090829060049082905afa908115620004eb57600091620004a6575b506001600160a01b031660a05267016345785d8a000060025560646003558351835190811490816200049a575b50156200046457600080546001600160a01b031990811633178255600180549091169290921782556005919091555b83518110156200043b576001600160a01b036200023c828562000594565b51166200024a828462000594565b51604051916001600160401b0360608401908111908411176200042557606083016040528252602082015260016040820152620002926200028c838762000594565b620005a9565b6007811015620003f9576000526008602052604060028160002060018060a01b0384511660018060a01b03198254161781556020840151600182015501910151151560ff80198354169116179055620002f06200028c828662000594565b6009549068010000000000000000821015620004255760018201806009558210156200040f5760096000527f6e1540171b6c0c960b71a7020d9f60077f6af931a8bbf590da0223dacf75c7af6007821015620003f9578260051c019160ff8060f885549360031b169316831b921b1916179055620003736200028c828662000594565b6001600160a01b0362000387838662000594565b511662000395838562000594565b516007831015620003f9577fd3ce3f3c18a4555514f2e4c62b481eda4b7c83c447e089cc8362c4075203f3929160409182519182526020820152a26000198114620003e3576001016200021e565b634e487b7160e01b600052601160045260246000fd5b634e487b7160e01b600052602160045260246000fd5b634e487b7160e01b600052603260045260246000fd5b634e487b7160e01b600052604160045260246000fd5b604051611fba9081620005b8823960805181610fa0015260a0518181816109e801526113c20152f35b60405162461bcd60e51b815260206004820152600e60248201526d082e4e4c2f240dad2e6dac2e8c6d60931b6044820152606490fd5b905082511438620001ef565b906020823d602011620004e2575b81620004c36020938362000543565b81010312620004df5750620004d8906200057f565b38620001c2565b80fd5b3d9150620004b4565b6040513d6000823e3d90fd5b815181526020918201910162000175565b600080fd5b602080916200051c846200057f565b8152019101906200010e565b825160078110156200050857815260209283019201620000a3565b601f909101601f19168101906001600160401b038211908210176200042557604052565b6001600160401b038111620004255760051b60200190565b51906001600160a01b03821682036200050857565b80518210156200040f5760209160051b010190565b516007811015620003f9579056fe608080604052600436101561001d575b50361561001b57600080fd5b005b60003560e01c9081630542975c14610f8d5750806305c4746014610d365780630c0e0cef14610ca657806316c38b3c14610c375780631e9c47c614610bf3578063277754ed14610bc45780634690484014610b9b5780634dede3de14610b6c57806351cff8d914610a585780635c975abb14610a355780636d1ea3fa146108495780637341ab8c14610a175780637535d246146109d25780638da5cb5b146109a9578063920f5c84146108885780639d93d35214610849578063a001ecdd1461082b578063ad5c4648146107fc578063ae06c1b714610799578063c02864651461076b578063c600e1dc14610731578063cc85f08014610731578063d826492014610702578063df564196146106ad5763f8242f1a1461013d573861000f565b346106a85760c03660031901126106a857600760043510156106a857610161610fcf565b60843580151581036106a85761017b6001600554146110a5565b600260055530330361066e576040516060810181811067ffffffffffffffff82111761065857604052600281526040366020830137811561063d578273c02aaa39b223fe8d0a0e5c4f27ead9083c756cc25b6101d683611dc6565b6001600160a01b0390911690526101ec82611dd6565b6001600160a01b039091169052811561062257737a250d5630b4cf539739df2c5dacb4c659f2488d915b156106075773d9e1ce17f2641f24ae83637ab66a2cca9c378b9f925b60405163d06ca61f60e01b81526044356004820152604060248201526000818061025f6044820187611e5f565b03816001600160a01b0388165afa801561054457610285916000916105ec575b50611dc6565b516127106064358103116105d6576102a56127109160643583039061165d565b60405163095ea7b360e01b81526001600160a01b03868116600483015260448035602484015293909204959093909260209285928391600091165af190811561054457600094859361031d936105b7575b506040519586809481936338ed173960e01b835260a4359089309160443560048701611e9c565b03926001600160a01b03165af19182156105445760009261059a575b506001600160a01b0361034b82611dc6565b51166001600160a01b0361035e83611dd6565b511661036983611dc6565b5261037382611dd6565b5261037d82611dc6565b51926040519363d06ca61f60e01b8552600485015260406024850152600084806103aa6044820186611e5f565b6001600160a01b03909416930381845afa8015610544576103e9612710916104279660009161057f575b506103e3606435840391611dc6565b5161165d565b049160206103f685611dc6565b5160405163095ea7b360e01b81526001600160a01b0385166004820152602481019190915295869081906044820190565b0381600073c02aaa39b223fe8d0a0e5c4f27ead9083c756cc25af19485156105445761045f6000958692610484986105505750611dc6565b516040516338ed173960e01b81529687958694859360a4359230929160048701611e9c565b03925af190811561054457600091610521575b506044356104a482611dc6565b511115610519576104c1906104bb60443591611dc6565b51611650565b6002548111156104db576020906001600555604051908152f35b60405162461bcd60e51b8152602060048201526016602482015275141c9bd99a5d0818995b1bddc81d1a1c995cda1bdb1960521b6044820152606490fd5b5060006104c1565b61053e91503d806000833e6105368183611124565b810190611de3565b38610497565b6040513d6000823e3d90fd5b6105719060203d602011610578575b6105698183611124565b810190611146565b503861027f565b503d61055f565b61059491503d806000833e6105368183611124565b386103d4565b6105b09192503d806000833e6105368183611124565b9038610339565b6105cf9060203d602011610578576105698183611124565b50386102f6565b634e487b7160e01b600052601160045260246000fd5b61060191503d806000833e6105368183611124565b3861027f565b737a250d5630b4cf539739df2c5dacb4c659f2488d92610232565b73d9e1ce17f2641f24ae83637ab66a2cca9c378b9f91610216565b73c02aaa39b223fe8d0a0e5c4f27ead9083c756cc2836101cd565b634e487b7160e01b600052604160045260246000fd5b60405162461bcd60e51b8152602060048201526012602482015271496e7465726e616c2063616c6c206f6e6c7960701b6044820152606490fd5b600080fd5b346106a85760203660031901126106a85760043560078110156106a8576106d560609161108c565b60018060a01b038154169060ff600260018301549201541690604051928352602083015215156040820152f35b346106a85760003660031901126106a8576020604051737a250d5630b4cf539739df2c5dacb4c659f2488d8152f35b346106a85760203660031901126106a8576001600160a01b03610752610fe5565b1660005260066020526020604060002054604051908152f35b346106a85760203660031901126106a85761079160018060a01b03600054163314611ed5565b600435600255005b346106a85760203660031901126106a8576004356107c260018060a01b03600054163314611ed5565b6103e881116106a8576020817f8c4d35e54a3f2ef1134138fd8ea3daee6a3c89e10d2665996babdf70261e2c7692600355604051908152a1005b346106a85760003660031901126106a857602060405173c02aaa39b223fe8d0a0e5c4f27ead9083c756cc28152f35b346106a85760003660031901126106a8576020600354604051908152f35b346106a85760203660031901126106a8576001600160a01b0361086a610fe5565b166000526007602052602060ff604060002054166040519015158152f35b346106a85760a03660031901126106a85767ffffffffffffffff6004358181116106a8576108ba90369060040161105b565b916024358181116106a8576108d390369060040161105b565b6044939193358381116106a8576108ee90369060040161105b565b606435929091906001600160a01b03841684036106a857608435968688116106a857366023890112156106a85787600401359687116106a857366024888a0101116106a8576109416001600554146110a5565b600260055560ff6004541661096f57602098602461096099019661117d565b60016005556040519015158152f35b60405162461bcd60e51b815260206004820152601260248201527110dbdb9d1c9858dd081a5cc81c185d5cd95960721b6044820152606490fd5b346106a85760003660031901126106a8576000546040516001600160a01b039091168152602090f35b346106a85760003660031901126106a8576040517f00000000000000000000000000000000000000000000000000000000000000006001600160a01b03168152602090f35b346106a85760003660031901126106a8576020600254604051908152f35b346106a85760003660031901126106a857602060ff600454166040519015158152f35b346106a8576020806003193601126106a857610a72610fe5565b6000546001600160a01b039291908316908390610a90338414611ed5565b169081610ab557505050479081156106a8576000808093819382541682f11561054457005b6040516370a0823160e01b815230600482015292935090918381602481865afa90811561054457600091610b3f575b5080156106a85760405163a9059cbb60e01b81526001600160a01b039290921660048301526024820152908290829060449082906000905af1801561054457610b2957005b8161001b92903d10610578576105698183611124565b90508381813d8311610b65575b610b568183611124565b810103126106a8575184610ae4565b503d610b4c565b346106a85760003660031901126106a8576020604051732260fac5e5542a773aa44fbcfedf7c193bc2c5998152f35b346106a85760003660031901126106a8576001546040516001600160a01b039091168152602090f35b346106a85760003660031901126106a857602060405173d9e1ce17f2641f24ae83637ab66a2cca9c378b9f8152f35b346106a85760203660031901126106a8576004356009548110156106a857610c35610c1f602092610ffb565b9190549160ff60405193849260031b1c1661104e565bf35b346106a85760203660031901126106a8576004358015158091036106a85760207f0e2fb031ee032dc02d8011dc50b816eb450cf856abd8261680dac74f72165bd291610c8e60018060a01b03600054163314611ed5565b60ff196004541660ff821617600455604051908152a1005b346106a85760403660031901126106a857610cbf610fe5565b60243590811515908183036106a8577f3beb044d3b23b475a7a8e337d1f11e8df3faa1508a2a22b21fb4e021d1d6edb991610d2d60209260018060a01b0390610d0d82600054163314611ed5565b1694856000526007845260406000209060ff801983541691151516179055565b604051908152a2005b346106a85760803660031901126106a857600435600780821015806106a857610d5d610fcf565b90604435906064359384158015958681036106a8576000546001600160a01b0390610d8b9082163314611ed5565b6040516060810181811067ffffffffffffffff82111761065857610e0492600291604052808a1683526020830190898252604084019b8c52610dcc8d61108c565b9351166bffffffffffffffffffffffff60a01b845416178355519960019a8b84015551151591019060ff801983541691151516179055565b80610f7d575b15610e9a5750509091926009546801000000000000000081101561065857610e3b81610e4193889301600955610ffb565b90611f0d565b610e8457604080516001600160a01b0393909316835260208301919091527fd3ce3f3c18a4555514f2e4c62b481eda4b7c83c447e089cc8362c4075203f39291a2005b634e487b7160e01b600052602160045260246000fd5b610ea9575b5090919250610e41565b6000855b610eb8575b50610e9f565b600980549081831015610f7657610ece83610ffb565b928660ff809354600396871b1c1690610e845786811015610e84578b14610f025750505050610efc90611516565b85610ead565b91945092919495969750600019918282019182116105d657610e3b84610f2a610f3794610ffb565b905490891b1c1691610ffb565b82548015610f60570192610f4a84610ffb565b81939154921b1b19169055559082918580610eb2565b634e487b7160e01b600052603160045260246000fd5b5050610eb2565b50610f8787611f2e565b15610e0a565b346106a85760003660031901126106a8577f00000000000000000000000000000000000000000000000000000000000000006001600160a01b03168152602090f35b602435906001600160a01b03821682036106a857565b600435906001600160a01b03821682036106a857565b90600954821015611038576009600052601f8260051c7f6e1540171b6c0c960b71a7020d9f60077f6af931a8bbf590da0223dacf75c7af01921690565b634e487b7160e01b600052603260045260246000fd5b906007821015610e845752565b9181601f840112156106a85782359167ffffffffffffffff83116106a8576020808501948460051b0101116106a857565b6007811015610e84576000526008602052604060002090565b156110ac57565b60405162461bcd60e51b81526020600482015260136024820152721499595b9d1c985b98de4819195d1958dd1959606a1b6044820152606490fd5b356001600160a01b03811681036106a85790565b919082018092116105d657565b6040810190811067ffffffffffffffff82111761065857604052565b90601f8019910116810190811067ffffffffffffffff82111761065857604052565b908160209103126106a8575180151581036106a85790565b908160209103126106a857516001600160a01b03811681036106a85790565b91959097969392949660018060a01b039182309116036114dd5760018914806114b5575b156114805784606091810103126106a857833595602096878601359060408097013560078110156106a8576103e882111580611476575b15611441576111e690611525565b60ff60026111f38361108c565b0154161561131d57899a9b6004969798999a8661120f8461108c565b54168b519889809263026b1d5f60e01b82525afa968715611312576000976112e3575b501561103857611241876110e7565b9915611038576112549335998a91611722565b9715611038576000816112766112706112aa998b9835906110fb565b956110e7565b169286519788958694859363095ea7b360e01b8552166004840160209093929193604081019460018060a01b031681520152565b03925af19081156112d957506112bf57505090565b816112d592903d10610578576105698183611124565b5090565b513d6000823e3d90fd5b6113049197508c8d3d1061130b575b6112fc8183611124565b81019061115e565b9538611232565b503d6112f2565b8a513d6000823e3d90fd5b92979599949396989a9150501561103857611337826110e7565b916007821015610e845789611397927f7adee99c99d1c2bf46dc1ed8d09351255600d53b862471fbd3a741e71627833160608980976f4e6574776f726b20696e61637469766560801b8e6010815198808a528901528701521693a36110e7565b1691156110385715611038576113b4869361140b963590356110fb565b845163095ea7b360e01b81527f0000000000000000000000000000000000000000000000000000000000000000939093166001600160a01b0316600484015260248301529093849190829060009082906044820190565b03925af19081156112d95750611423575b5050600190565b8161143992903d10610578576105698183611124565b50388061141c565b875162461bcd60e51b8152600481018b9052600e60248201526d496e76616c696420706172616d7360901b6044820152606490fd5b50428310156111d8565b60405162461bcd60e51b815260206004820152600d60248201526c125b9d985b1a5908185cdcd95d609a1b6044820152606490fd5b50881561103857816114c6846110e7565b16600052600760205260ff604060002054166111a1565b60405162461bcd60e51b815260206004820152601160248201527024b73b30b634b21034b734ba34b0ba37b960791b6044820152606490fd5b60001981146105d65760010190565b60ff9060029082826115368361108c565b0154168061163a575b6116345750600954908115611038576009600052827f6e1540171b6c0c960b71a7020d9f60077f6af931a8bbf590da0223dacf75c7af541692600191826115858661108c565b015490835b85811061159a5750505050505090565b8380836115b86115a985610ffb565b949054600395861b1c1661108c565b01541680611610575b6115d5575b506115d090611516565b61158a565b965091506115d08461160785806115eb87610ffb565b9054908c1b1c16996115fc87610ffb565b9054911b1c1661108c565b015492906115c6565b50838661162c8761162086610ffb565b905490861b1c1661108c565b0154116115c1565b91505090565b50603260016116488361108c565b01541161153f565b919082039182116105d657565b818102929181159184041417156105d657565b919082519283825260005b84811061169c575050826000602080949584010152601f8019910116010190565b60208183018101518483018201520161167b565b600060443d1061170e57604051600319913d83016004833e815167ffffffffffffffff918282113d60248401111761171157818401948551938411611719573d85010160208487010111611711575061170e92910160200190611124565b90565b949350505050565b50949350505050565b6040805163c45a015560e01b8082529196600496602096929592919087878a81737a250d5630b4cf539739df2c5dacb4c659f2488d5afa96871561131257600097611c82575b5089519363e6a4390560e01b9485815273c02aaa39b223fe8d0a0e5c4f27ead9083c756cc295868c830152600160a01b60019003978b838a8087169d8e602484015216815a91604492fa928315611c58578d918f8e92600096611c63575b505192839182528173d9e1ce17f2641f24ae83637ab66a2cca9c378b9f5afa908115611c58578c928f8f938e8d92604495600093611c39575b50519c8d96879586528501526024840152165afa958615611c2e57600096611c03575b50906118318161183793611cb5565b95611cb5565b9380158015611bfb575b611b875784811115611b78576118578582611650565b6007881015611b6357877f49b39efa4ab9d7d4b92b75847d3ff610c9442309ed1fcb0908bded9e5a74cd5360608c8f94858b8f975193898552840152820152a3808511948515611b5557906118ab91611650565b600254106118c3575b50505050505050505050600190565b8951637c12178d60e11b8152926118dc8a85018861104e565b8760248501526044840152606483015282608483015260a4820152858160c4816000305af160009181611b23575b506119ae5750505060019360009060033d116119a1575b506308c379a014611945575b5050506112d957505b388080808080808080806118b4565b61194d6116b0565b80611959575b5061192d565b7f7adee99c99d1c2bf46dc1ed8d09351255600d53b862471fbd3a741e71627833191929394506000946119958751928284938452830190611670565b0390a338808080611953565b81803e5160e01c38611921565b80979294979693966119c8575b5050505050505050611936565b856119e6946127106119dc6003548561165d565b0495868094611650565b968a60005260068352856000206119fe8982546110fb565b9055600154865163a9059cbb60e01b815291166001600160a01b0316918101918252602082019390935282908190604001038160008c5af18015611b1857927faaa3a601b5615a15721d3d042daa78a00501f9520ffc0dd062e1a207b278046d96959492608092611ab695611afb575b5015611acc578051611a7f81611108565b601281527142757920556e692053656c6c20537573686960701b87820152925b815196879687528601528401526080830190611670565b4260608301520390a338808080808080806119bb565b8051611ad781611108565b60128152714275792053757368692053656c6c20556e6960701b8782015292611a9f565b611b1190883d8a11610578576105698183611124565b5038611a6e565b83513d6000823e3d90fd5b90918782813d8311611b4e575b611b3a8183611124565b81010312611b4b575051903861190a565b80fd5b503d611b30565b611b5e91611650565b6118ab565b60218b634e487b7160e01b6000525260246000fd5b611b828186611650565b611857565b505050505050926007849592951015611be657507f7adee99c99d1c2bf46dc1ed8d09351255600d53b862471fbd3a741e716278331916d496e76616c69642070726963657360901b82600e6060945193808552840152820152a3600190565b602190634e487b7160e01b6000525260246000fd5b508415611841565b8261183793929750611c24611831928d803d1061130b576112fc8183611124565b9792509250611822565b8c513d6000823e3d90fd5b611c51919350883d8a1161130b576112fc8183611124565b91386117ff565b8e513d6000823e3d90fd5b611c7b919650833d851161130b576112fc8183611124565b94386117c6565b611c9a919750883d8a1161130b576112fc8183611124565b9538611768565b51906001600160701b03821682036106a857565b6001600160a01b03908116908115611dbe57606060049260405193848092630240bc6b60e21b82525afa918215610544576000908193611d66575b506001600160701b038091169216921673c02aaa39b223fe8d0a0e5c4f27ead9083c756cc210600014611d60575b600082611d2d57505050600090565b670de0b6b3a764000091828102928184041490151715611d4c57500490565b634e487b7160e01b81526011600452602490fd5b90611d1e565b92506060833d8211611db6575b81611d8060609383611124565b81010312611b4b57611d9183611ca1565b906040611da060208601611ca1565b94015163ffffffff811603611b4b575038611cf0565b3d9150611d73565b505050600090565b8051600110156110385760400190565b8051156110385760200190565b9060209081838203126106a857825167ffffffffffffffff938482116106a8570181601f820112156106a8578051938411610658578360051b9060405194611e2d85840187611124565b855283808601928201019283116106a8578301905b828210611e50575050505090565b81518152908301908301611e42565b90815180825260208080930193019160005b828110611e7f575050505090565b83516001600160a01b031685529381019392810192600101611e71565b9192608093611ec192979695978452602084015260a0604084015260a0830190611e5f565b6001600160a01b0390951660608201520152565b15611edc57565b60405162461bcd60e51b81526020600482015260096024820152682737ba1037bbb732b960b91b6044820152606490fd5b91906007821015610e845760ff8084549260031b9316831b921b1916179055565b6009549060005b828110611f4457505050600090565b60ff611f4f82610ffb565b90549060031b1c16600780841015610e8457811015610e84578214611f7c57611f7790611516565b611f35565b50505060019056fea2646970667358221220c4e70622bb6ba8332fc98d69590ec6587137d99b978b203290bc98a235009d8664736f6c63430008140033",
  "linkReferences": {},
  "deployedLinkReferences": {}
}