{
  "_format": "hh-sol-artifact-1",
  "contractName": "MockPoolAddressesProvider",
  "sourceName": "contracts/mocks/MockPoolAddressesProvider.sol",
  "abi": [
    {
      "inputs": [
        {
          "internalType": "address",
          "name": "_dummyPoolAddress",
          "type": "address"
        }
      ],
      "stateMutability": "nonpayable",
      "type": "constructor"
    },
    {
      "inputs": [],
      "name": "dummyPoolAddress",
      "outputs": [
        {
          "internalType": "address",
          "name": "",
          "type": "address"
        }
      ],
      "stateMutability": "view",
      "type": "function"
    },
    {
      "inputs": [],
      "name": "getPool",
      "outputs": [
        {
          "internalType": "contract IPool",
          "name": "",
          "type": "address"
        }
      ],
      "stateMutability": "view",
      "type": "function"
    }
  ],
  "bytecode": "0x60803461007357601f61014638819003918201601f19168301916001600160401b038311848410176100785780849260209460405283398101031261007357516001600160a01b0381169081900361007357600080546001600160a01b03191691909117905560405160b7908161008f8239f35b600080fd5b634e487b7160e01b600052604160045260246000fdfe6080806040526004361015601257600080fd5b600090813560e01c908163026b1d5f14605b5750637b316a7714603457600080fd5b3460585780600319360112605857546040516001600160a01b039091168152602090f35b80fd5b905034607d5781600319360112607d5790546001600160a01b03168152602090f35b5080fdfea264697066735822122032651b17fef6816d2ea716741d126062b5fea2056ac1f5cca617bc51735bd04c64736f6c63430008140033",
  "linkReferences": {},
  "deployedLinkReferences": {}
}