{
  "_format": "hh-sol-artifact-1",
  "contractName": "FlashLoanProvider",
  "sourceName": "contracts/FlashLoanProvider.sol",
  "abi": [
    {
      "inputs": [],
      "name": "takeFlashLoan",
      "outputs": [],
      "stateMutability": "payable",
      "type": "function"
    }
  ],
  "bytecode": "0x608080604052346100155760f5908161001b8239f35b600080fdfe60806004361015600e57600080fd5b600090813560e01c63ddfb54a914602457600080fd5b8160031936011260bb5767ffffffffffffffff9081361160a757601f19603f81601f360116011681018181108382111760935783916020916040523681523683838301373601015260405160a08101918211911017607f5780f35b634e487b7160e01b81526041600452602490fd5b634e487b7160e01b84526041600452602484fd5b634e487b7160e01b83526041600452602483fd5b5080fdfea2646970667358221220728da53f42fefc577dc4d49c4af81fc111721f3112e680eac7550959479b3cda64736f6c63430008140033",
  "linkReferences": {},
  "deployedLinkReferences": {}
}