{
  "_format": "hh-sol-artifact-1",
  "contractName": "ArbTrader",
  "sourceName": "contracts/ArbTrader.sol",
  "abi": [
    {
      "inputs": [],
      "name": "executeTrade",
      "outputs": [],
      "stateMutability": "payable",
      "type": "function"
    }
  ],
  "bytecode": "0x608080604052346013576067908160198239f35b600080fdfe6004361015600c57600080fd5b6000803560e01c63e0c70b6614602157600080fd5b80600319360112602e5780f35b80fdfea26469706673582212200b2cf68903c5c5ec72c102a834647597d23d36054ff2ce64a61425fb15c9f88d64736f6c63430008140033",
  "linkReferences": {},
  "deployedLinkReferences": {}
}