{
  "_format": "hh-sol-artifact-1",
  "contractName": "HelloWorld",
  "sourceName": "contracts/HelloWorld.sol",
  "abi": [
    {
      "inputs": [],
      "stateMutability": "nonpayable",
      "type": "constructor"
    },
    {
      "inputs": [],
      "name": "message",
      "outputs": [
        {
          "internalType": "string",
          "name": "",
          "type": "string"
        }
      ],
      "stateMutability": "view",
      "type": "function"
    }
  ],
  "bytecode": "0x608080604052346100a857600080546001908181811c9116801561009e575b602082101461008a57601f8111610061575b50507f48656c6c6f20576f726c6421000000000000000000000000000000000000001890556101c190816100ae8239f35b828052601f60208420910160051c8101905b8181106100805750610030565b8381558201610073565b634e487b7160e01b83526022600452602483fd5b90607f169061001e565b600080fdfe6080600436101561000f57600080fd5b6000803560e01c63e21f37ce1461002557600080fd5b34610188578060031936011261018857809181549060019382851c85841695861561017e575b602094858310881461016a578585969798848752918260001461014e5750506001146100f7575b5050601f801993849203011681019381851067ffffffffffffffff8611176100e3579291849192604094838652818452845191828186015281955b8387106100cb5750508394508582601f949501015201168101030190f35b868101820151898801890152958101958895506100ad565b634e487b7160e01b81526041600452602490fd5b8680528592508691907f290decd9548b62a8d60345a988386fc84ba6bc95484008f6362f93160ef3e5635b828410610136575050508201013880610072565b80548488018601528695508794909301928101610122565b925093505060ff191682840152151560051b8201013880610072565b634e487b7160e01b87526022600452602487fd5b90607f169061004b565b80fdfea26469706673582212204aa7bfcb1a2ae6d867aebd9989711fc7193424ee1f5036f99cc0f17a0715118864736f6c63430008140033",
  "linkReferences": {},
  "deployedLinkReferences": {}
}